{
  "abi": [
    {
      "inputs": [
        {
          "internalType": "address",
          "name": "_cbdToken",
          "type": "address"
        },
        {
          "internalType": "address",
          "name": "_purchaseToken",
          "type": "address"
        },
        {
          "internalType": "uint256",
          "name": "_tokenPrice",
          "type": "uint256"
        },
        {
          "internalType": "address",
          "name": "_priceFeed",
          "type": "address"
        }
      ],
      "stateMutability": "nonpayable",
      "type": "constructor"
    },
    {
      "inputs": [
        {
          "internalType": "address",
          "name": "_newOwner",
          "type": "address"
        }
      ],
      "name": "addOwner",
      "outputs": [],
      "stateMutability": "nonpayable",
      "type": "function"
    },
    {
      "inputs": [],
      "name": "admin",
      "outputs": [
        {
          "internalType": "address",
          "name": "",
          "type": "address"
        }
      ],
      "stateMutability": "view",
      "type": "function"
    },
    {
      "inputs": [
        {
          "internalType": "address",
          "name": "_user",
          "type": "address"
        }
      ],
      "name": "allPurchaseRewardAmounts",
      "outputs": [
        {
          "internalType": "uint256",
          "name": "",
          "type": "uint256"
        }
      ],
      "stateMutability": "view",
      "type": "function"
    },
    {
      "inputs": [
        {
          "internalType": "address",
          "name": "_user",
          "type": "address"
        }
      ],
      "name": "allPurchaseTotalRewardAmounts",
      "outputs": [
        {
          "internalType": "uint256",
          "name": "",
          "type": "uint256"
        }
      ],
      "stateMutability": "view",
      "type": "function"
    },
    {
      "inputs": [
        {
          "internalType": "address",
          "name": "_user",
          "type": "address"
        }
      ],
      "name": "allReferRewardAmounts",
      "outputs": [
        {
          "internalType": "uint256",
          "name": "",
          "type": "uint256"
        }
      ],
      "stateMutability": "view",
      "type": "function"
    },
    {
      "inputs": [
        {
          "internalType": "address",
          "name": "_user",
          "type": "address"
        }
      ],
      "name": "allReferTotalRewardAmounts",
      "outputs": [
        {
          "internalType": "uint256",
          "name": "",
          "type": "uint256"
        }
      ],
      "stateMutability": "view",
      "type": "function"
    },
    {
      "inputs": [
        {
          "internalType": "address",
          "name": "_user",
          "type": "address"
        }
      ],
      "name": "allRewardAmounts",
      "outputs": [
        {
          "internalType": "uint256",
          "name": "",
          "type": "uint256"
        }
      ],
      "stateMutability": "view",
      "type": "function"
    },
    {
      "inputs": [
        {
          "internalType": "address",
          "name": "_user",
          "type": "address"
        }
      ],
      "name": "allTotalRewardAmounts",
      "outputs": [
        {
          "internalType": "uint256",
          "name": "",
          "type": "uint256"
        }
      ],
      "stateMutability": "view",
      "type": "function"
    },
    {
      "inputs": [
        {
          "internalType": "uint256",
          "name": "",
          "type": "uint256"
        }
      ],
      "name": "allowedAmounts",
      "outputs": [
        {
          "internalType": "bool",
          "name": "isAllowed",
          "type": "bool"
        },
        {
          "internalType": "uint256",
          "name": "totalReward",
          "type": "uint256"
        }
      ],
      "stateMutability": "view",
      "type": "function"
    },
    {
      "inputs": [
        {
          "internalType": "uint256",
          "name": "_amount",
          "type": "uint256"
        },
        {
          "internalType": "uint256",
          "name": "_totalRewardByAmount",
          "type": "uint256"
        }
      ],
      "name": "anableAllawanceForAmount",
      "outputs": [],
      "stateMutability": "nonpayable",
      "type": "function"
    },
    {
      "inputs": [],
      "name": "baseRegisterAmount",
      "outputs": [
        {
          "internalType": "uint256",
          "name": "",
          "type": "uint256"
        }
      ],
      "stateMutability": "view",
      "type": "function"
    },
    {
      "inputs": [
        {
          "internalType": "uint256",
          "name": "stableCoinAmount",
          "type": "uint256"
        },
        {
          "internalType": "address",
          "name": "_refer",
          "type": "address"
        }
      ],
      "name": "buyToken",
      "outputs": [],
      "stateMutability": "nonpayable",
      "type": "function"
    },
    {
      "inputs": [
        {
          "internalType": "uint256",
          "name": "stableCoinAmount",
          "type": "uint256"
        }
      ],
      "name": "buyTokenWhitoutRef",
      "outputs": [],
      "stateMutability": "nonpayable",
      "type": "function"
    },
    {
      "inputs": [],
      "name": "cbdToken",
      "outputs": [
        {
          "internalType": "contract CBDToken",
          "name": "",
          "type": "address"
        }
      ],
      "stateMutability": "view",
      "type": "function"
    },
    {
      "inputs": [
        {
          "internalType": "address",
          "name": "_newAdmin",
          "type": "address"
        }
      ],
      "name": "changeAdmin",
      "outputs": [],
      "stateMutability": "nonpayable",
      "type": "function"
    },
    {
      "inputs": [
        {
          "internalType": "bool",
          "name": "_status",
          "type": "bool"
        }
      ],
      "name": "changeAllowAmountsActivation",
      "outputs": [],
      "stateMutability": "nonpayable",
      "type": "function"
    },
    {
      "inputs": [],
      "name": "claimPurchaseRewards",
      "outputs": [],
      "stateMutability": "nonpayable",
      "type": "function"
    },
    {
      "inputs": [],
      "name": "claimReferRewards",
      "outputs": [],
      "stateMutability": "nonpayable",
      "type": "function"
    },
    {
      "inputs": [],
      "name": "claimRewards",
      "outputs": [],
      "stateMutability": "nonpayable",
      "type": "function"
    },
    {
      "inputs": [
        {
          "internalType": "uint256",
          "name": "_amount",
          "type": "uint256"
        }
      ],
      "name": "disableAllawanceForAmount",
      "outputs": [],
      "stateMutability": "nonpayable",
      "type": "function"
    },
    {
      "inputs": [],
      "name": "getOracleUsdcPrice",
      "outputs": [
        {
          "internalType": "uint256",
          "name": "",
          "type": "uint256"
        }
      ],
      "stateMutability": "view",
      "type": "function"
    },
    {
      "inputs": [
        {
          "internalType": "address",
          "name": "_user",
          "type": "address"
        }
      ],
      "name": "getUnclaimedRewards",
      "outputs": [
        {
          "internalType": "uint256",
          "name": "",
          "type": "uint256"
        }
      ],
      "stateMutability": "view",
      "type": "function"
    },
    {
      "inputs": [
        {
          "internalType": "address",
          "name": "",
          "type": "address"
        }
      ],
      "name": "instantReferRewardHistory",
      "outputs": [
        {
          "internalType": "uint256",
          "name": "",
          "type": "uint256"
        }
      ],
      "stateMutability": "view",
      "type": "function"
    },
    {
      "inputs": [
        {
          "internalType": "address",
          "name": "_user",
          "type": "address"
        }
      ],
      "name": "isOwner",
      "outputs": [
        {
          "internalType": "bool",
          "name": "",
          "type": "bool"
        }
      ],
      "stateMutability": "view",
      "type": "function"
    },
    {
      "inputs": [
        {
          "internalType": "address",
          "name": "",
          "type": "address"
        }
      ],
      "name": "isRegistered",
      "outputs": [
        {
          "internalType": "bool",
          "name": "",
          "type": "bool"
        }
      ],
      "stateMutability": "view",
      "type": "function"
    },
    {
      "inputs": [
        {
          "internalType": "address",
          "name": "",
          "type": "address"
        }
      ],
      "name": "owners",
      "outputs": [
        {
          "internalType": "bool",
          "name": "",
          "type": "bool"
        }
      ],
      "stateMutability": "view",
      "type": "function"
    },
    {
      "inputs": [],
      "name": "priceFeed",
      "outputs": [
        {
          "internalType": "contract AggregatorV3Interface",
          "name": "",
          "type": "address"
        }
      ],
      "stateMutability": "view",
      "type": "function"
    },
    {
      "inputs": [
        {
          "internalType": "address",
          "name": "",
          "type": "address"
        },
        {
          "internalType": "uint256",
          "name": "",
          "type": "uint256"
        }
      ],
      "name": "purchaseRewards",
      "outputs": [
        {
          "internalType": "uint256",
          "name": "totalRewardAmount",
          "type": "uint256"
        },
        {
          "internalType": "uint256",
          "name": "rewardAmount",
          "type": "uint256"
        },
        {
          "internalType": "uint256",
          "name": "endTime",
          "type": "uint256"
        },
        {
          "internalType": "uint256",
          "name": "lastUpdateTime",
          "type": "uint256"
        }
      ],
      "stateMutability": "view",
      "type": "function"
    },
    {
      "inputs": [],
      "name": "purchaseToken",
      "outputs": [
        {
          "internalType": "address",
          "name": "",
          "type": "address"
        }
      ],
      "stateMutability": "view",
      "type": "function"
    },
    {
      "inputs": [
        {
          "internalType": "address",
          "name": "",
          "type": "address"
        }
      ],
      "name": "refer",
      "outputs": [
        {
          "internalType": "address",
          "name": "",
          "type": "address"
        }
      ],
      "stateMutability": "view",
      "type": "function"
    },
    {
      "inputs": [
        {
          "internalType": "address",
          "name": "",
          "type": "address"
        },
        {
          "internalType": "uint256",
          "name": "",
          "type": "uint256"
        }
      ],
      "name": "referRewards",
      "outputs": [
        {
          "internalType": "uint256",
          "name": "totalRewardAmount",
          "type": "uint256"
        },
        {
          "internalType": "uint256",
          "name": "rewardAmount",
          "type": "uint256"
        },
        {
          "internalType": "uint256",
          "name": "endTime",
          "type": "uint256"
        },
        {
          "internalType": "uint256",
          "name": "lastUpdateTime",
          "type": "uint256"
        }
      ],
      "stateMutability": "view",
      "type": "function"
    },
    {
      "inputs": [
        {
          "internalType": "address",
          "name": "",
          "type": "address"
        },
        {
          "internalType": "uint256",
          "name": "",
          "type": "uint256"
        }
      ],
      "name": "referredPeople",
      "outputs": [
        {
          "internalType": "address",
          "name": "",
          "type": "address"
        }
      ],
      "stateMutability": "view",
      "type": "function"
    },
    {
      "inputs": [
        {
          "internalType": "uint256",
          "name": "stableCoinAmount",
          "type": "uint256"
        },
        {
          "internalType": "address",
          "name": "_refer",
          "type": "address"
        }
      ],
      "name": "register",
      "outputs": [],
      "stateMutability": "nonpayable",
      "type": "function"
    },
    {
      "inputs": [
        {
          "internalType": "address",
          "name": "_newOwner",
          "type": "address"
        }
      ],
      "name": "removeOwner",
      "outputs": [],
      "stateMutability": "nonpayable",
      "type": "function"
    },
    {
      "inputs": [
        {
          "internalType": "uint256",
          "name": "_baseRegisterAmount",
          "type": "uint256"
        }
      ],
      "name": "setBaseRegisterAmount",
      "outputs": [],
      "stateMutability": "nonpayable",
      "type": "function"
    },
    {
      "inputs": [
        {
          "internalType": "address",
          "name": "_CBDToken",
          "type": "address"
        }
      ],
      "name": "setCBDToken",
      "outputs": [],
      "stateMutability": "nonpayable",
      "type": "function"
    },
    {
      "inputs": [
        {
          "internalType": "address",
          "name": "_purchaseToken",
          "type": "address"
        }
      ],
      "name": "setPurchaseToken",
      "outputs": [],
      "stateMutability": "nonpayable",
      "type": "function"
    },
    {
      "inputs": [
        {
          "internalType": "uint256",
          "name": "_newTokenPrice",
          "type": "uint256"
        }
      ],
      "name": "setTokenPrice",
      "outputs": [],
      "stateMutability": "nonpayable",
      "type": "function"
    },
    {
      "inputs": [],
      "name": "tokenPrice",
      "outputs": [
        {
          "internalType": "uint256",
          "name": "",
          "type": "uint256"
        }
      ],
      "stateMutability": "view",
      "type": "function"
    },
    {
      "inputs": [
        {
          "internalType": "address",
          "name": "_newOwner",
          "type": "address"
        }
      ],
      "name": "transferUserOwnership",
      "outputs": [],
      "stateMutability": "nonpayable",
      "type": "function"
    },
    {
      "inputs": [
        {
          "internalType": "address",
          "name": "_user",
          "type": "address"
        }
      ],
      "name": "userPurchaseRewards",
      "outputs": [
        {
          "components": [
            {
              "internalType": "uint256",
              "name": "totalRewardAmount",
              "type": "uint256"
            },
            {
              "internalType": "uint256",
              "name": "rewardAmount",
              "type": "uint256"
            },
            {
              "internalType": "uint256",
              "name": "endTime",
              "type": "uint256"
            },
            {
              "internalType": "uint256",
              "name": "lastUpdateTime",
              "type": "uint256"
            }
          ],
          "internalType": "struct Purchase.UserRewards[]",
          "name": "",
          "type": "tuple[]"
        }
      ],
      "stateMutability": "view",
      "type": "function"
    },
    {
      "inputs": [
        {
          "internalType": "address",
          "name": "_user",
          "type": "address"
        }
      ],
      "name": "userReferRewards",
      "outputs": [
        {
          "components": [
            {
              "internalType": "uint256",
              "name": "totalRewardAmount",
              "type": "uint256"
            },
            {
              "internalType": "uint256",
              "name": "rewardAmount",
              "type": "uint256"
            },
            {
              "internalType": "uint256",
              "name": "endTime",
              "type": "uint256"
            },
            {
              "internalType": "uint256",
              "name": "lastUpdateTime",
              "type": "uint256"
            }
          ],
          "internalType": "struct Purchase.UserRewards[]",
          "name": "",
          "type": "tuple[]"
        }
      ],
      "stateMutability": "view",
      "type": "function"
    },
    {
      "inputs": [
        {
          "internalType": "address",
          "name": "_user",
          "type": "address"
        }
      ],
      "name": "userReferredPeople",
      "outputs": [
        {
          "internalType": "address[]",
          "name": "",
          "type": "address[]"
        }
      ],
      "stateMutability": "view",
      "type": "function"
    }
  ],
  "bytecode": {
    "object": "0x60806040523480156200001157600080fd5b50604051620048c0380380620048c08339810160408190526200003491620002f5565b600080546001600160a01b038087166001600160a01b0319928316178355600180548783169084168117909155600286905560048054928616929093169190911782556040805163313ce56760e01b81529051919263313ce5679282820192602092908290030181865afa158015620000b1573d6000803e3d6000fd5b505050506040513d601f19601f82011682018060405250810190620000d7919062000349565b60ff169050620000e981600a6200048a565b620000f690603262000498565b6003553360008181526006602052604090208054600160ff199182168117909255600580546001600160a01b03191690931790925560088054909216179055620001746200014682600a6200048a565b620001539060fa62000498565b6200016083600a6200048a565b6200016e906101f462000498565b6200022d565b620001ae6200018582600a6200048a565b62000193906101f462000498565b620001a083600a6200048a565b6200016e906105dc62000498565b620001e8620001bf82600a6200048a565b620001cd906103e862000498565b620001da83600a6200048a565b6200016e90610bb862000498565b62000222620001f982600a6200048a565b62000207906107d062000498565b6200021483600a6200048a565b6200016e9061177062000498565b5050505050620004b2565b6200023762000257565b600091825260096020526040909120805460ff1916600190811782550155565b3360009081526006602052604090205460ff16620002d65760405162461bcd60e51b815260206004820152603260248201527f4f776e61626c655f4469737472696275746f723a2063616c6c6572206973206e6044820152716f742066726f6d20746865206f776e65727360701b606482015260840160405180910390fd5b565b80516001600160a01b0381168114620002f057600080fd5b919050565b600080600080608085870312156200030c57600080fd5b6200031785620002d8565b93506200032760208601620002d8565b9250604085015191506200033e60608601620002d8565b905092959194509250565b6000602082840312156200035c57600080fd5b815160ff811681146200036e57600080fd5b9392505050565b634e487b7160e01b600052601160045260246000fd5b600181815b80851115620003cc578160001904821115620003b057620003b062000375565b80851615620003be57918102915b93841c939080029062000390565b509250929050565b600082620003e55750600162000484565b81620003f45750600062000484565b81600181146200040d5760028114620004185762000438565b600191505062000484565b60ff8411156200042c576200042c62000375565b50506001821b62000484565b5060208310610133831016604e8410600b84101617156200045d575081810a62000484565b6200046983836200038b565b806000190482111562000480576200048062000375565b0290505b92915050565b60006200036e8383620003d4565b808202811582820484141762000484576200048462000375565b6143fe80620004c26000396000f3fe608060405234801561001057600080fd5b50600436106102695760003560e01c80637cdfecdb11610151578063b4e3934d116100c3578063dbbdf08311610087578063dbbdf083146105e4578063e174a9c4146105f7578063e1a5df791461060a578063e7627c6e1461061d578063f851a4401461063d578063fe08c5ac1461065057600080fd5b8063b4e3934d14610575578063b6f6fbd914610588578063c3c5a5471461059b578063cf7b5ea9146105be578063d895acb8146105d157600080fd5b80639134709e116101155780639134709e146104ee578063981a6ea314610501578063a95c4d6214610509578063b38035101461051c578063b43ec3341461052f578063b4cae3d91461056257600080fd5b80637cdfecdb1461048c5780637ff9b5961461049f5780638456bd2e146104a85780638a8c7e46146104bb5780638f283970146104db57600080fd5b80633a8ce33c116101ea5780636a61e5fc116101ae5780636a61e5fc146103e75780636fc98615146103fa5780637065cb481461041a578063741bef1a1461042d5780637721818714610440578063772f44271461044857600080fd5b80633a8ce33c14610392578063510bbe691461039b578063689ae9bf146103ae57806368c95f09146103c157806369a69e29146103d457600080fd5b80631dfebd12116102315780631dfebd12146103305780632f54bf6e14610338578063352d80e01461036457806336f1187f14610377578063372500ab1461038a57600080fd5b8063022914a71461026e5780630505cadb146102a65780631547e29d146102c7578063173825d9146102dc5780631d509afd146102ef575b600080fd5b61029161027c366004613e0f565b60066020526000908152604090205460ff1681565b60405190151581526020015b60405180910390f35b6102b96102b4366004613e0f565b610663565b60405190815260200161029d565b6102da6102d5366004613e2a565b61072d565b005b6102da6102ea366004613e0f565b610755565b6103186102fd366004613e0f565b600c602052600090815260409020546001600160a01b031681565b6040516001600160a01b03909116815260200161029d565b6102da61077e565b610291610346366004613e0f565b6001600160a01b031660009081526006602052604090205460ff1690565b6102da610372366004613e4c565b610bc8565b600054610318906001600160a01b031681565b6102da610bec565b6102b960035481565b6102b96103a9366004613e0f565b611414565b6102da6103bc366004613e4c565b6114d7565b6102b96103cf366004613e0f565b611545565b6102b96103e2366004613e0f565b6116ca565b6102da6103f5366004613e4c565b611b79565b6102b9610408366004613e0f565b600e6020526000908152604090205481565b6102da610428366004613e0f565b611b86565b600454610318906001600160a01b031681565b6102da611bb2565b610475610456366004613e4c565b6009602052600090815260409020805460019091015460ff9091169082565b60408051921515835260208301919091520161029d565b6102da61049a366004613e0f565b611ff8565b6102b960025481565b6102da6104b6366004613e0f565b612037565b6104ce6104c9366004613e0f565b6120c6565b60405161029d9190613e65565b6102da6104e9366004613e0f565b612163565b6102da6104fc366004613ec9565b61218d565b6102b9612d59565b600154610318906001600160a01b031681565b6104ce61052a366004613e0f565b612e52565b61054261053d366004613ef5565b612ee1565b60408051948552602085019390935291830152606082015260800161029d565b610318610570366004613ef5565b612f27565b6102da610583366004613e0f565b612f5f565b6102b9610596366004613e0f565b612fe9565b6102916105a9366004613e0f565b60076020526000908152604090205460ff1681565b6102b96105cc366004613e0f565b61316e565b6102da6105df366004613f30565b613231565b6102da6105f2366004613ec9565b61324c565b6102da610605366004613e4c565b613491565b610542610618366004613ef5565b613652565b61063061062b366004613e0f565b61366e565b60405161029d9190613f4d565b600554610318906001600160a01b031681565b6102b961065e366004613e0f565b6136e4565b600080805b6001600160a01b0384166000908152600b6020526040902054811015610726576001600160a01b0384166000908152600b602052604081208054839081106106b2576106b2613f9a565b9060005260206000209060040201600001541115610714576001600160a01b0384166000908152600b602052604090208054829081106106f4576106f4613f9a565b906000526020600020906004020160000154826107119190613fc6565b91505b8061071e81613fdf565b915050610668565b5092915050565b6107356137a7565b600091825260096020526040909120805460ff1916600190811782550155565b61075d6137a7565b6001600160a01b03166000908152600660205260409020805460ff19169055565b6000805b336000908152600b6020526040902054811015610aef57336000908152600b602052604081208054839081106107ba576107ba613f9a565b9060005260206000209060040201600101541115610add57336000908152600b602052604090208054829081106107f3576107f3613f9a565b906000526020600020906004020160020154421015610a0257336000908152600b6020526040812080548390811061082d5761082d613f9a565b906000526020600020906004020160030154600b6000336001600160a01b03166001600160a01b03168152602001908152602001600020838154811061087557610875613f9a565b9060005260206000209060040201600201546108919190613ff8565b336000908152600b6020526040812080549293509091849081106108b7576108b7613f9a565b906000526020600020906004020160030154426108d49190613ff8565b336000908152600b602052604081208054929350909184918491879081106108fe576108fe613f9a565b90600052602060002090600402016001015461091a919061400b565b6109249190614038565b336000908152600b60205260409020805491925082918690811061094a5761094a613f9a565b9060005260206000209060040201600101600082825461096a9190613ff8565b9091555050336000908152600b6020526040902080544291908690811061099357610993613f9a565b6000918252602080832060036004909302019190910192909255338152600b909152604090208054859081106109cb576109cb613f9a565b9060005260206000209060040201600101546000036109ee576109ee3385613823565b6109f88186613fc6565b9450505050610add565b336000908152600b60205260408120805483908110610a2357610a23613f9a565b90600052602060002090600402016001015490506000600b6000336001600160a01b03166001600160a01b031681526020019081526020016000208381548110610a6f57610a6f613f9a565b90600052602060002090600402016001018190555042600b6000336001600160a01b03166001600160a01b031681526020019081526020016000208381548110610abb57610abb613f9a565b6000918252602090912060036004909202010155610ad98184613fc6565b9250505b80610ae781613fdf565b915050610782565b506000546040516340c10f1960e01b8152336004820152602481018390526001600160a01b03909116906340c10f1990604401600060405180830381600087803b158015610b3c57600080fd5b505af1158015610b50573d6000803e3d6000fd5b5050505060005b336000908152600b6020526040902054811015610bc457336000908152600b60205260409020805482908110610b8f57610b8f613f9a565b906000526020600020906004020160010154600003610bb257610bb23382613823565b80610bbc81613fdf565b915050610b57565b5050565b610bd06137a7565b6000908152600960205260408120805460ff1916815560010155565b6000805b336000908152600a6020526040902054811015610f5d57336000908152600a60205260408120805483908110610c2857610c28613f9a565b9060005260206000209060040201600101541115610f4b57336000908152600a60205260409020805482908110610c6157610c61613f9a565b906000526020600020906004020160020154421015610e7057336000908152600a60205260408120805483908110610c9b57610c9b613f9a565b906000526020600020906004020160030154600a6000336001600160a01b03166001600160a01b031681526020019081526020016000208381548110610ce357610ce3613f9a565b906000526020600020906004020160020154610cff9190613ff8565b336000908152600a602052604081208054929350909184908110610d2557610d25613f9a565b90600052602060002090600402016003015442610d429190613ff8565b336000908152600a60205260408120805492935090918491849187908110610d6c57610d6c613f9a565b906000526020600020906004020160010154610d88919061400b565b610d929190614038565b336000908152600a602052604090208054919250829186908110610db857610db8613f9a565b90600052602060002090600402016001016000828254610dd89190613ff8565b9091555050336000908152600a60205260409020805442919086908110610e0157610e01613f9a565b6000918252602080832060036004909302019190910192909255338152600a90915260409020805485908110610e3957610e39613f9a565b906000526020600020906004020160010154600003610e5c57610e5c33856139bf565b610e668186613fc6565b9450505050610f4b565b336000908152600a60205260408120805483908110610e9157610e91613f9a565b90600052602060002090600402016001015490506000600a6000336001600160a01b03166001600160a01b031681526020019081526020016000208381548110610edd57610edd613f9a565b90600052602060002090600402016001018190555042600a6000336001600160a01b03166001600160a01b031681526020019081526020016000208381548110610f2957610f29613f9a565b6000918252602090912060036004909202010155610f478184613fc6565b9250505b80610f5581613fdf565b915050610bf0565b5060005b336000908152600b60205260409020548110156112ce57336000908152600b60205260408120805483908110610f9957610f99613f9a565b90600052602060002090600402016001015411156112bc57336000908152600b60205260409020805482908110610fd257610fd2613f9a565b9060005260206000209060040201600201544210156111e157336000908152600b6020526040812080548390811061100c5761100c613f9a565b906000526020600020906004020160030154600b6000336001600160a01b03166001600160a01b03168152602001908152602001600020838154811061105457611054613f9a565b9060005260206000209060040201600201546110709190613ff8565b336000908152600b60205260408120805492935090918490811061109657611096613f9a565b906000526020600020906004020160030154426110b39190613ff8565b336000908152600b602052604081208054929350909184918491879081106110dd576110dd613f9a565b9060005260206000209060040201600101546110f9919061400b565b6111039190614038565b336000908152600b60205260409020805491925082918690811061112957611129613f9a565b906000526020600020906004020160010160008282546111499190613ff8565b9091555050336000908152600b6020526040902080544291908690811061117257611172613f9a565b6000918252602080832060036004909302019190910192909255338152600b909152604090208054859081106111aa576111aa613f9a565b9060005260206000209060040201600101546000036111cd576111cd3385613823565b6111d78186613fc6565b94505050506112bc565b336000908152600b6020526040812080548390811061120257611202613f9a565b90600052602060002090600402016001015490506000600b6000336001600160a01b03166001600160a01b03168152602001908152602001600020838154811061124e5761124e613f9a565b90600052602060002090600402016001018190555042600b6000336001600160a01b03166001600160a01b03168152602001908152602001600020838154811061129a5761129a613f9a565b60009182526020909120600360049092020101556112b88184613fc6565b9250505b806112c681613fdf565b915050610f61565b506000546040516340c10f1960e01b8152336004820152602481018390526001600160a01b03909116906340c10f1990604401600060405180830381600087803b15801561131b57600080fd5b505af115801561132f573d6000803e3d6000fd5b5050505060005b336000908152600a60205260409020548110156113a357336000908152600a6020526040902080548290811061136e5761136e613f9a565b9060005260206000209060040201600101546000036113915761139133826139bf565b8061139b81613fdf565b915050611336565b5060005b336000908152600b6020526040902054811015610bc457336000908152600b602052604090208054829081106113df576113df613f9a565b906000526020600020906004020160010154600003611402576114023382613823565b8061140c81613fdf565b9150506113a7565b600080805b6001600160a01b0384166000908152600b6020526040902054811015610726576001600160a01b0384166000908152600b6020526040812080548390811061146357611463613f9a565b90600052602060002090600402016001015411156114c5576001600160a01b0384166000908152600b602052604090208054829081106114a5576114a5613f9a565b906000526020600020906004020160010154826114c29190613fc6565b91505b806114cf81613fdf565b915050611419565b6114df6137a7565b806000036115405760405162461bcd60e51b8152602060048201526024808201527f4261736520726567697374657220616d6f756e742063616e206e6f74206265206044820152637a65726f60e01b60648201526084015b60405180910390fd5b600355565b600080805b6001600160a01b0384166000908152600a6020526040902054811015611608576001600160a01b0384166000908152600a6020526040812080548390811061159457611594613f9a565b90600052602060002090600402016001015411156115f6576001600160a01b0384166000908152600a602052604090208054829081106115d6576115d6613f9a565b906000526020600020906004020160010154826115f39190613fc6565b91505b8061160081613fdf565b91505061154a565b5060005b6001600160a01b0384166000908152600b6020526040902054811015610726576001600160a01b0384166000908152600b6020526040812080548390811061165657611656613f9a565b90600052602060002090600402016001015411156116b8576001600160a01b0384166000908152600b6020526040902080548290811061169857611698613f9a565b906000526020600020906004020160010154826116b59190613fc6565b91505b806116c281613fdf565b91505061160c565b600080805b6001600160a01b0384166000908152600a6020526040902054811015611922576001600160a01b0384166000908152600a6020526040812080548390811061171957611719613f9a565b9060005260206000209060040201600101541115611910576001600160a01b0384166000908152600a6020526040902080548290811061175b5761175b613f9a565b9060005260206000209060040201600201544210156118c6576001600160a01b0384166000908152600a6020526040812080548390811061179e5761179e613f9a565b906000526020600020906004020160030154600a6000876001600160a01b03166001600160a01b0316815260200190815260200160002083815481106117e6576117e6613f9a565b9060005260206000209060040201600201546118029190613ff8565b6001600160a01b0386166000908152600a60205260408120805492935090918490811061183157611831613f9a565b9060005260206000209060040201600301544261184e9190613ff8565b905060008282600a60008a6001600160a01b03166001600160a01b03168152602001908152602001600020868154811061188a5761188a613f9a565b9060005260206000209060040201600101546118a6919061400b565b6118b09190614038565b90506118bc8186613fc6565b9450505050611910565b6001600160a01b0384166000908152600a602052604090208054829081106118f0576118f0613f9a565b9060005260206000209060040201600101548261190d9190613fc6565b91505b8061191a81613fdf565b9150506116cf565b5060005b6001600160a01b0384166000908152600b6020526040902054811015610726576001600160a01b0384166000908152600b6020526040812080548390811061197057611970613f9a565b9060005260206000209060040201600101541115611b67576001600160a01b0384166000908152600b602052604090208054829081106119b2576119b2613f9a565b906000526020600020906004020160020154421015611b1d576001600160a01b0384166000908152600b602052604081208054839081106119f5576119f5613f9a565b906000526020600020906004020160030154600b6000876001600160a01b03166001600160a01b031681526020019081526020016000208381548110611a3d57611a3d613f9a565b906000526020600020906004020160020154611a599190613ff8565b6001600160a01b0386166000908152600b602052604081208054929350909184908110611a8857611a88613f9a565b90600052602060002090600402016003015442611aa59190613ff8565b905060008282600b60008a6001600160a01b03166001600160a01b031681526020019081526020016000208681548110611ae157611ae1613f9a565b906000526020600020906004020160010154611afd919061400b565b611b079190614038565b9050611b138186613fc6565b9450505050611b67565b6001600160a01b0384166000908152600b60205260409020805482908110611b4757611b47613f9a565b90600052602060002090600402016001015482611b649190613fc6565b91505b80611b7181613fdf565b915050611926565b611b816137a7565b600255565b611b8e6137a7565b6001600160a01b03166000908152600660205260409020805460ff19166001179055565b6000805b336000908152600a6020526040902054811015611f2357336000908152600a60205260408120805483908110611bee57611bee613f9a565b9060005260206000209060040201600101541115611f1157336000908152600a60205260409020805482908110611c2757611c27613f9a565b906000526020600020906004020160020154421015611e3657336000908152600a60205260408120805483908110611c6157611c61613f9a565b906000526020600020906004020160030154600a6000336001600160a01b03166001600160a01b031681526020019081526020016000208381548110611ca957611ca9613f9a565b906000526020600020906004020160020154611cc59190613ff8565b336000908152600a602052604081208054929350909184908110611ceb57611ceb613f9a565b90600052602060002090600402016003015442611d089190613ff8565b336000908152600a60205260408120805492935090918491849187908110611d3257611d32613f9a565b906000526020600020906004020160010154611d4e919061400b565b611d589190614038565b336000908152600a602052604090208054919250829186908110611d7e57611d7e613f9a565b90600052602060002090600402016001016000828254611d9e9190613ff8565b9091555050336000908152600a60205260409020805442919086908110611dc757611dc7613f9a565b6000918252602080832060036004909302019190910192909255338152600a90915260409020805485908110611dff57611dff613f9a565b906000526020600020906004020160010154600003611e2257611e2233856139bf565b611e2c8186613fc6565b9450505050611f11565b336000908152600a60205260408120805483908110611e5757611e57613f9a565b90600052602060002090600402016001015490506000600a6000336001600160a01b03166001600160a01b031681526020019081526020016000208381548110611ea357611ea3613f9a565b90600052602060002090600402016001018190555042600a6000336001600160a01b03166001600160a01b031681526020019081526020016000208381548110611eef57611eef613f9a565b6000918252602090912060036004909202010155611f0d8184613fc6565b9250505b80611f1b81613fdf565b915050611bb6565b506000546040516340c10f1960e01b8152336004820152602481018390526001600160a01b03909116906340c10f1990604401600060405180830381600087803b158015611f7057600080fd5b505af1158015611f84573d6000803e3d6000fd5b5050505060005b336000908152600a6020526040902054811015610bc457336000908152600a60205260409020805482908110611fc357611fc3613f9a565b906000526020600020906004020160010154600003611fe657611fe633826139bf565b80611ff081613fdf565b915050611f8b565b6120006137a7565b33600090815260066020526040808220805460ff199081169091556001600160a01b03939093168252902080549091166001179055565b61203f6137a7565b6001600160a01b0381166120a45760405162461bcd60e51b815260206004820152602660248201527f507572636861736520746f6b656e2063616e206e6f74206265207a65726f206160448201526564647265737360d01b6064820152608401611537565b600180546001600160a01b0319166001600160a01b0392909216919091179055565b6001600160a01b0381166000908152600a60209081526040808320805482518185028101850190935280835260609492939192909184015b828210156121585783829060005260206000209060040201604051806080016040529081600082015481526020016001820154815260200160028201548152602001600382015481525050815260200190600101906120fe565b505050509050919050565b61216b6137a7565b600580546001600160a01b0319166001600160a01b0392909216919091179055565b3360009081526007602052604090205460ff1615156001146121ea5760405162461bcd60e51b8152602060048201526016602482015275165bdd48185c99481b9bdd081c9959da5cdd195c995960521b6044820152606401611537565b6001600160a01b03811615612266576001600160a01b03811660009081526007602052604090205460ff1615156001146122665760405162461bcd60e51b815260206004820152601c60248201527f596f7572207265666572206973206e6f742072656769737465726564000000006044820152606401611537565b6000612270612d59565b9050670d2f13f7789f000081101561229a5760405162461bcd60e51b81526004016115379061404c565b6001546040805163313ce56760e01b815290516000926001600160a01b03169163313ce5679160048083019260209291908290030181865afa1580156122e4573d6000803e3d6000fd5b505050506040513d601f19601f820116820180604052508101906123089190614083565b60ff169050336001600160a01b038416036123355760405162461bcd60e51b8152600401611537906140a6565b6001546040516370a0823160e01b815233600482015285916001600160a01b0316906370a0823190602401602060405180830381865afa15801561237d573d6000803e3d6000fd5b505050506040513d601f19601f820116820180604052508101906123a191906140e9565b10156123bf5760405162461bcd60e51b815260040161153790614102565b6002546000906123d786670de0b6b3a764000061400b565b6123e19190614038565b9050600060025483600a6123f59190614235565b612401906103e861400b565b61241390670de0b6b3a764000061400b565b61241d9190614038565b60085490915060ff1615156001036126265760008681526009602052604090205460ff1661249c5760405162461bcd60e51b815260206004820152602660248201527f5468697320737461626c6520636f696e20616d6f756e74206973206e6f7420616044820152651b1b1bddd95960d21b6064820152608401611537565b6002546000878152600960205260408120600101549091906124c690670de0b6b3a764000061400b565b6124d09190614038565b6000549091506001600160a01b03166340c10f193360646124f285600a61400b565b6124fc9190614038565b6040516001600160e01b031960e085901b1681526001600160a01b0390921660048301526024820152604401600060405180830381600087803b15801561254257600080fd5b505af1158015612556573d6000803e3d6000fd5b505060015460055461257993506001600160a01b0391821692503391168a613b2b565b336000908152600a602052604090819020815160808101909252908060646125a285605a61400b565b6125ac9190614038565b815260200160646125be85605a61400b565b6125c89190614038565b81526020016125db426305a39a80613fc6565b815242602091820152825460018181018555600094855293829020835160049092020190815590820151928101929092556040810151600283015560600151600390910155506126a9565b6000546040516340c10f1960e01b8152336004820152602481018490526001600160a01b03909116906340c10f1990604401600060405180830381600087803b15801561267257600080fd5b505af1158015612686573d6000803e3d6000fd5b50506001546005546126a993506001600160a01b03918216925033911689613b2b565b6001600160a01b03851615612d5157336000908152600c60205260409020546001600160a01b0316612729576001600160a01b0385166000818152600d602090815260408083208054600181018255908452828420018054336001600160a01b03199182168117909255908452600c909252909120805490911690911790555b336000908152600c6020526040808220546001600160a01b039081168084528284205482168085528385205483168086529390942054909392911683158015906127df5750600080546040516370a0823160e01b81526001600160a01b038781166004830152909116906370a0823190602401602060405180830381865afa1580156127b9573d6000803e3d6000fd5b505050506040513d601f19601f820116820180604052508101906127dd91906140e9565b115b1561297a576000546001600160a01b03166340c10f1985876128098a674563918244f4000061400b565b6128139190614038565b6040516001600160e01b031960e085901b1681526001600160a01b0390921660048301526024820152604401600060405180830381600087803b15801561285957600080fd5b505af115801561286d573d6000803e3d6000fd5b505050508486674563918244f40000612886919061400b565b6128909190614038565b6001600160a01b0385166000908152600e6020526040812080549091906128b8908490613fc6565b90915550506001600160a01b0384166000908152600b6020526040908190208151608081019092529080876128f58a6783d6c7aab636000061400b565b6128ff9190614038565b8152602001876129178a6783d6c7aab636000061400b565b6129219190614038565b8152602001612934426305a39a80613fc6565b8152426020918201528254600181810185556000948552938290208351600490920201908155908201519281019290925560408101516002830155606001516003909101555b6001600160a01b038316158015906129fe5750600080546040516370a0823160e01b81526001600160a01b038681166004830152909116906370a0823190602401602060405180830381865afa1580156129d8573d6000803e3d6000fd5b505050506040513d601f19601f820116820180604052508101906129fc91906140e9565b115b15612ac0576001600160a01b0383166000908152600b602052604090819020815160808101909252908087612a3b8a6768155a43676e000061400b565b612a459190614038565b815260200187612a5d8a6768155a43676e000061400b565b612a679190614038565b8152602001612a7a426305a39a80613fc6565b8152426020918201528254600181810185556000948552938290208351600490920201908155908201519281019290925560408101516002830155606001516003909101555b6001600160a01b03821615801590612b445750600080546040516370a0823160e01b81526001600160a01b038581166004830152909116906370a0823190602401602060405180830381865afa158015612b1e573d6000803e3d6000fd5b505050506040513d601f19601f82011682018060405250810190612b4291906140e9565b115b15612c06576001600160a01b0382166000908152600b602052604090819020815160808101909252908087612b818a6753444835ec58000061400b565b612b8b9190614038565b815260200187612ba38a6753444835ec58000061400b565b612bad9190614038565b8152602001612bc0426305a39a80613fc6565b8152426020918201528254600181810185556000948552938290208351600490920201908155908201519281019290925560408101516002830155606001516003909101555b6001600160a01b03811615801590612c8a5750600080546040516370a0823160e01b81526001600160a01b038481166004830152909116906370a0823190602401602060405180830381865afa158015612c64573d6000803e3d6000fd5b505050506040513d601f19601f82011682018060405250810190612c8891906140e9565b115b15612d4c576001600160a01b0381166000908152600b602052604090819020815160808101909252908087612cc78a673782dace9d90000061400b565b612cd19190614038565b815260200187612ce98a673782dace9d90000061400b565b612cf39190614038565b8152602001612d06426305a39a80613fc6565b8152426020918201528254600181810185556000948552938290208351600490920201908155908201519281019290925560408101516002830155606001516003909101555b505050505b505050505050565b6004805460408051633fabe5a360e21b8152905160009384936001600160a01b03169263feaf968c928183019260a0928290030181865afa158015612da2573d6000803e3d6000fd5b505050506040513d601f19601f82011682018060405250810190612dc6919061425b565b5050600480546040805163313ce56760e01b81529051949650600095506001600160a01b039091169363313ce5679350818301926020928290030181865afa158015612e16573d6000803e3d6000fd5b505050506040513d601f19601f82011682018060405250810190612e3a9190614083565b90506000612e4a83836012613b8b565b949350505050565b6001600160a01b0381166000908152600b602090815260408083208054825181850281018501909352808352606094929391929091840182156121585783829060005260206000209060040201604051806080016040529081600082015481526020016001820154815260200160028201548152602001600382015481525050815260200190600101906120fe565b600a6020528160005260406000208181548110612efd57600080fd5b60009182526020909120600490910201805460018201546002830154600390930154919450925084565b600d6020528160005260406000208181548110612f4357600080fd5b6000918252602090912001546001600160a01b03169150829050565b612f676137a7565b6001600160a01b038116612fc75760405162461bcd60e51b815260206004820152602160248201527f43424420746f6b656e2063616e206e6f74206265207a65726f206164647265736044820152607360f81b6064820152608401611537565b600080546001600160a01b0319166001600160a01b0392909216919091179055565b600080805b6001600160a01b0384166000908152600a60205260409020548110156130ac576001600160a01b0384166000908152600a6020526040812080548390811061303857613038613f9a565b906000526020600020906004020160000154111561309a576001600160a01b0384166000908152600a6020526040902080548290811061307a5761307a613f9a565b906000526020600020906004020160000154826130979190613fc6565b91505b806130a481613fdf565b915050612fee565b5060005b6001600160a01b0384166000908152600b6020526040902054811015610726576001600160a01b0384166000908152600b602052604081208054839081106130fa576130fa613f9a565b906000526020600020906004020160000154111561315c576001600160a01b0384166000908152600b6020526040902080548290811061313c5761313c613f9a565b906000526020600020906004020160000154826131599190613fc6565b91505b8061316681613fdf565b9150506130b0565b600080805b6001600160a01b0384166000908152600a6020526040902054811015610726576001600160a01b0384166000908152600a602052604081208054839081106131bd576131bd613f9a565b906000526020600020906004020160010154111561321f576001600160a01b0384166000908152600a602052604090208054829081106131ff576131ff613f9a565b9060005260206000209060040201600101548261321c9190613fc6565b91505b8061322981613fdf565b915050613173565b6132396137a7565b6008805460ff1916911515919091179055565b6001600160a01b038116156132c8576001600160a01b03811660009081526007602052604090205460ff1615156001146132c85760405162461bcd60e51b815260206004820152601c60248201527f596f7572207265666572206973206e6f742072656769737465726564000000006044820152606401611537565b6003548210156133355760405162461bcd60e51b815260206004820152603260248201527f596f757220616d6f756e74206973206c6f776572207468616e207468652062616044820152711cd9481c9959da5cdd195c88185b5bdd5b9d60721b6064820152608401611537565b600061333f612d59565b9050670d2f13f7789f00008110156133695760405162461bcd60e51b81526004016115379061404c565b336001600160a01b038316036133915760405162461bcd60e51b8152600401611537906140a6565b6001546040516370a0823160e01b815233600482015284916001600160a01b0316906370a0823190602401602060405180830381865afa1580156133d9573d6000803e3d6000fd5b505050506040513d601f19601f820116820180604052508101906133fd91906140e9565b101561341b5760405162461bcd60e51b815260040161153790614102565b60015460055461343a916001600160a01b039081169133911686613b2b565b336000908152600760205260409020805460ff191660011790556001600160a01b0382161561348c57336000908152600c6020526040902080546001600160a01b0319166001600160a01b0384161790555b505050565b3360009081526007602052604090205460ff1615156001146134ee5760405162461bcd60e51b8152602060048201526016602482015275165bdd48185c99481b9bdd081c9959da5cdd195c995960521b6044820152606401611537565b60006134f8612d59565b9050670d2f13f7789f00008110156135225760405162461bcd60e51b81526004016115379061404c565b6001546040516370a0823160e01b815233600482015283916001600160a01b0316906370a0823190602401602060405180830381865afa15801561356a573d6000803e3d6000fd5b505050506040513d601f19601f8201168201806040525081019061358e91906140e9565b10156135ac5760405162461bcd60e51b815260040161153790614102565b6002546000906135c484670de0b6b3a764000061400b565b6135ce9190614038565b6000546040516340c10f1960e01b8152336004820152602481018390529192506001600160a01b0316906340c10f1990604401600060405180830381600087803b15801561361b57600080fd5b505af115801561362f573d6000803e3d6000fd5b505060015460055461348c93506001600160a01b03918216925033911686613b2b565b600b6020528160005260406000208181548110612efd57600080fd5b6001600160a01b0381166000908152600d60209081526040918290208054835181840281018401909452808452606093928301828280156136d857602002820191906000526020600020905b81546001600160a01b031681526001909101906020018083116136ba575b50505050509050919050565b600080805b6001600160a01b0384166000908152600a6020526040902054811015610726576001600160a01b0384166000908152600a6020526040812080548390811061373357613733613f9a565b9060005260206000209060040201600001541115613795576001600160a01b0384166000908152600a6020526040902080548290811061377557613775613f9a565b906000526020600020906004020160000154826137929190613fc6565b91505b8061379f81613fdf565b9150506136e9565b3360009081526006602052604090205460ff166138215760405162461bcd60e51b815260206004820152603260248201527f4f776e61626c655f4469737472696275746f723a2063616c6c6572206973206e6044820152716f742066726f6d20746865206f776e65727360701b6064820152608401611537565b565b805b6001600160a01b0383166000908152600b602052604090205461384a90600190613ff8565b81101561390c576001600160a01b0383166000908152600b60205260409020613874826001613fc6565b8154811061388457613884613f9a565b9060005260206000209060040201600b6000856001600160a01b03166001600160a01b0316815260200190815260200160002082815481106138c8576138c8613f9a565b60009182526020909120825460049092020190815560018083015490820155600280830154908201556003918201549101558061390481613fdf565b915050613825565b506001600160a01b0382166000908152600b60205260409020805461393390600190613ff8565b8154811061394357613943613f9a565b60009182526020808320600490920290910182815560018101839055600281018390556003018290556001600160a01b0384168252600b90526040902080548061398f5761398f6142ab565b60008281526020812060046000199093019283020181815560018101829055600281018290556003015590555050565b805b6001600160a01b0383166000908152600a60205260409020546139e690600190613ff8565b811015613aa8576001600160a01b0383166000908152600a60205260409020613a10826001613fc6565b81548110613a2057613a20613f9a565b9060005260206000209060040201600a6000856001600160a01b03166001600160a01b031681526020019081526020016000208281548110613a6457613a64613f9a565b600091825260209091208254600490920201908155600180830154908201556002808301549082015560039182015491015580613aa081613fdf565b9150506139c1565b506001600160a01b0382166000908152600a602052604090208054613acf90600190613ff8565b81548110613adf57613adf613f9a565b60009182526020808320600490920290910182815560018101839055600281018390556003018290556001600160a01b0384168252600a90526040902080548061398f5761398f6142ab565b604080516001600160a01b0385811660248301528416604482015260648082018490528251808303909101815260849091019091526020810180516001600160e01b03166323b872dd60e01b179052613b85908590613bfe565b50505050565b60008160ff168360ff161015613bc457613ba583836142c1565b613bb39060ff16600a614235565b613bbd90856142da565b9050613bf7565b8160ff168360ff161115613bf457613bdc82846142c1565b613bea9060ff16600a614235565b613bbd908561430a565b50825b9392505050565b6000613c53826040518060400160405280602081526020017f5361666545524332303a206c6f772d6c6576656c2063616c6c206661696c6564815250856001600160a01b0316613cd09092919063ffffffff16565b80519091501561348c5780806020019051810190613c719190614338565b61348c5760405162461bcd60e51b815260206004820152602a60248201527f5361666545524332303a204552433230206f7065726174696f6e20646964206e6044820152691bdd081cdd58d8d9595960b21b6064820152608401611537565b6060612e4a848460008585600080866001600160a01b03168587604051613cf79190614379565b60006040518083038185875af1925050503d8060008114613d34576040519150601f19603f3d011682016040523d82523d6000602084013e613d39565b606091505b5091509150613d4a87838387613d55565b979650505050505050565b60608315613dc4578251600003613dbd576001600160a01b0385163b613dbd5760405162461bcd60e51b815260206004820152601d60248201527f416464726573733a2063616c6c20746f206e6f6e2d636f6e74726163740000006044820152606401611537565b5081612e4a565b612e4a8383815115613dd95781518083602001fd5b8060405162461bcd60e51b81526004016115379190614395565b80356001600160a01b0381168114613e0a57600080fd5b919050565b600060208284031215613e2157600080fd5b613bf782613df3565b60008060408385031215613e3d57600080fd5b50508035926020909101359150565b600060208284031215613e5e57600080fd5b5035919050565b602080825282518282018190526000919060409081850190868401855b82811015613ebc57815180518552868101518786015285810151868601526060908101519085015260809093019290850190600101613e82565b5091979650505050505050565b60008060408385031215613edc57600080fd5b82359150613eec60208401613df3565b90509250929050565b60008060408385031215613f0857600080fd5b613f1183613df3565b946020939093013593505050565b8015158114613f2d57600080fd5b50565b600060208284031215613f4257600080fd5b8135613bf781613f1f565b6020808252825182820181905260009190848201906040850190845b81811015613f8e5783516001600160a01b031683529284019291840191600101613f69565b50909695505050505050565b634e487b7160e01b600052603260045260246000fd5b634e487b7160e01b600052601160045260246000fd5b80820180821115613fd957613fd9613fb0565b92915050565b600060018201613ff157613ff1613fb0565b5060010190565b81810381811115613fd957613fd9613fb0565b8082028115828204841417613fd957613fd9613fb0565b634e487b7160e01b600052601260045260246000fd5b60008261404757614047614022565b500490565b6020808252601e908201527f55534443207072696365206973206e6f742061626f766520302e393520240000604082015260600190565b60006020828403121561409557600080fd5b815160ff81168114613bf757600080fd5b60208082526023908201527f596f752063616e27742070757420796f757220616464726573732061732072656040820152623332b960e91b606082015260800190565b6000602082840312156140fb57600080fd5b5051919050565b6020808252602f908201527f596f7520646f6e2774206861766520656e6f75676820737461626c65636f696e60408201526e2062616c616e636520746f2062757960881b606082015260800190565b600181815b8085111561418c57816000190482111561417257614172613fb0565b8085161561417f57918102915b93841c9390800290614156565b509250929050565b6000826141a357506001613fd9565b816141b057506000613fd9565b81600181146141c657600281146141d0576141ec565b6001915050613fd9565b60ff8411156141e1576141e1613fb0565b50506001821b613fd9565b5060208310610133831016604e8410600b841016171561420f575081810a613fd9565b6142198383614151565b806000190482111561422d5761422d613fb0565b029392505050565b6000613bf78383614194565b805169ffffffffffffffffffff81168114613e0a57600080fd5b600080600080600060a0868803121561427357600080fd5b61427c86614241565b945060208601519350604086015192506060860151915061429f60808701614241565b90509295509295909350565b634e487b7160e01b600052603160045260246000fd5b60ff8281168282160390811115613fd957613fd9613fb0565b80820260008212600160ff1b841416156142f6576142f6613fb0565b8181058314821517613fd957613fd9613fb0565b60008261431957614319614022565b600160ff1b82146000198414161561433357614333613fb0565b500590565b60006020828403121561434a57600080fd5b8151613bf781613f1f565b60005b83811015614370578181015183820152602001614358565b50506000910152565b6000825161438b818460208701614355565b9190910192915050565b60208152600082518060208401526143b4816040850160208701614355565b601f01601f1916919091016040019291505056fea26469706673582212207c20465f276b6a142056bea8bc965344817502795d00f91de63c73f74eb4af9764736f6c63430008110033",
    "linkReferences": {}
  },
  "methodIdentifiers": {
    "addOwner(address)": "7065cb48",
    "admin()": "f851a440",
    "allPurchaseRewardAmounts(address)": "cf7b5ea9",
    "allPurchaseTotalRewardAmounts(address)": "fe08c5ac",
    "allReferRewardAmounts(address)": "510bbe69",
    "allReferTotalRewardAmounts(address)": "0505cadb",
    "allRewardAmounts(address)": "68c95f09",
    "allTotalRewardAmounts(address)": "b6f6fbd9",
    "allowedAmounts(uint256)": "772f4427",
    "anableAllawanceForAmount(uint256,uint256)": "1547e29d",
    "baseRegisterAmount()": "3a8ce33c",
    "buyToken(uint256,address)": "9134709e",
    "buyTokenWhitoutRef(uint256)": "e174a9c4",
    "cbdToken()": "36f1187f",
    "changeAdmin(address)": "8f283970",
    "changeAllowAmountsActivation(bool)": "d895acb8",
    "claimPurchaseRewards()": "77218187",
    "claimReferRewards()": "1dfebd12",
    "claimRewards()": "372500ab",
    "disableAllawanceForAmount(uint256)": "352d80e0",
    "getOracleUsdcPrice()": "981a6ea3",
    "getUnclaimedRewards(address)": "69a69e29",
    "instantReferRewardHistory(address)": "6fc98615",
    "isOwner(address)": "2f54bf6e",
    "isRegistered(address)": "c3c5a547",
    "owners(address)": "022914a7",
    "priceFeed()": "741bef1a",
    "purchaseRewards(address,uint256)": "b43ec334",
    "purchaseToken()": "a95c4d62",
    "refer(address)": "1d509afd",
    "referRewards(address,uint256)": "e1a5df79",
    "referredPeople(address,uint256)": "b4cae3d9",
    "register(uint256,address)": "dbbdf083",
    "removeOwner(address)": "173825d9",
    "setBaseRegisterAmount(uint256)": "689ae9bf",
    "setCBDToken(address)": "b4e3934d",
    "setPurchaseToken(address)": "8456bd2e",
    "setTokenPrice(uint256)": "6a61e5fc",
    "tokenPrice()": "7ff9b596",
    "transferUserOwnership(address)": "7cdfecdb",
    "userPurchaseRewards(address)": "8a8c7e46",
    "userReferRewards(address)": "b3803510",
    "userReferredPeople(address)": "e7627c6e"
  },
  "id": 1
}