{
  "abi": [
    {
      "inputs": [
        {
          "internalType": "address",
          "name": "_cbdToken",
          "type": "address"
        },
        {
          "internalType": "address",
          "name": "_purchaseToken",
          "type": "address"
        },
        {
          "internalType": "uint256",
          "name": "_tokenPrice",
          "type": "uint256"
        },
        {
          "internalType": "address",
          "name": "_priceFeed",
          "type": "address"
        }
      ],
      "stateMutability": "nonpayable",
      "type": "constructor"
    },
    {
      "anonymous": false,
      "inputs": [
        {
          "indexed": true,
          "internalType": "address",
          "name": "previousOwner",
          "type": "address"
        },
        {
          "indexed": true,
          "internalType": "address",
          "name": "newOwner",
          "type": "address"
        }
      ],
      "name": "OwnershipTransferred",
      "type": "event"
    },
    {
      "inputs": [
        {
          "internalType": "address",
          "name": "_user",
          "type": "address"
        }
      ],
      "name": "allRewardAmounts",
      "outputs": [
        {
          "internalType": "uint256",
          "name": "",
          "type": "uint256"
        }
      ],
      "stateMutability": "view",
      "type": "function"
    },
    {
      "inputs": [
        {
          "internalType": "uint256",
          "name": "stableCoinAmount",
          "type": "uint256"
        },
        {
          "internalType": "address",
          "name": "_refer",
          "type": "address"
        }
      ],
      "name": "buyToken",
      "outputs": [],
      "stateMutability": "nonpayable",
      "type": "function"
    },
    {
      "inputs": [
        {
          "internalType": "uint256",
          "name": "stableCoinAmount",
          "type": "uint256"
        }
      ],
      "name": "buyTokenWhitoutRef",
      "outputs": [],
      "stateMutability": "nonpayable",
      "type": "function"
    },
    {
      "inputs": [],
      "name": "cbdToken",
      "outputs": [
        {
          "internalType": "contract CBDToken",
          "name": "",
          "type": "address"
        }
      ],
      "stateMutability": "view",
      "type": "function"
    },
    {
      "inputs": [],
      "name": "claimRewards",
      "outputs": [],
      "stateMutability": "nonpayable",
      "type": "function"
    },
    {
      "inputs": [],
      "name": "getOracleUsdcPrice",
      "outputs": [
        {
          "internalType": "uint256",
          "name": "",
          "type": "uint256"
        }
      ],
      "stateMutability": "view",
      "type": "function"
    },
    {
      "inputs": [
        {
          "internalType": "address",
          "name": "_user",
          "type": "address"
        }
      ],
      "name": "getUnclaimedRewards",
      "outputs": [
        {
          "internalType": "uint256",
          "name": "",
          "type": "uint256"
        }
      ],
      "stateMutability": "view",
      "type": "function"
    },
    {
      "inputs": [],
      "name": "owner",
      "outputs": [
        {
          "internalType": "address",
          "name": "",
          "type": "address"
        }
      ],
      "stateMutability": "view",
      "type": "function"
    },
    {
      "inputs": [],
      "name": "priceFeed",
      "outputs": [
        {
          "internalType": "contract AggregatorV3Interface",
          "name": "",
          "type": "address"
        }
      ],
      "stateMutability": "view",
      "type": "function"
    },
    {
      "inputs": [],
      "name": "purchaseToken",
      "outputs": [
        {
          "internalType": "address",
          "name": "",
          "type": "address"
        }
      ],
      "stateMutability": "view",
      "type": "function"
    },
    {
      "inputs": [
        {
          "internalType": "address",
          "name": "",
          "type": "address"
        }
      ],
      "name": "refer",
      "outputs": [
        {
          "internalType": "address",
          "name": "",
          "type": "address"
        }
      ],
      "stateMutability": "view",
      "type": "function"
    },
    {
      "inputs": [],
      "name": "renounceOwnership",
      "outputs": [],
      "stateMutability": "nonpayable",
      "type": "function"
    },
    {
      "inputs": [
        {
          "internalType": "address",
          "name": "",
          "type": "address"
        },
        {
          "internalType": "uint256",
          "name": "",
          "type": "uint256"
        }
      ],
      "name": "rewards",
      "outputs": [
        {
          "internalType": "uint256",
          "name": "rewardAmount",
          "type": "uint256"
        },
        {
          "internalType": "uint256",
          "name": "endTime",
          "type": "uint256"
        },
        {
          "internalType": "uint256",
          "name": "lastUpdateTime",
          "type": "uint256"
        }
      ],
      "stateMutability": "view",
      "type": "function"
    },
    {
      "inputs": [
        {
          "internalType": "address",
          "name": "_CBDToken",
          "type": "address"
        }
      ],
      "name": "setCBDToken",
      "outputs": [],
      "stateMutability": "nonpayable",
      "type": "function"
    },
    {
      "inputs": [
        {
          "internalType": "address",
          "name": "_purchaseToken",
          "type": "address"
        }
      ],
      "name": "setPurchaseToken",
      "outputs": [],
      "stateMutability": "nonpayable",
      "type": "function"
    },
    {
      "inputs": [
        {
          "internalType": "uint256",
          "name": "_newTokenPrice",
          "type": "uint256"
        }
      ],
      "name": "setTokenPrice",
      "outputs": [],
      "stateMutability": "nonpayable",
      "type": "function"
    },
    {
      "inputs": [],
      "name": "tokenPrice",
      "outputs": [
        {
          "internalType": "uint256",
          "name": "",
          "type": "uint256"
        }
      ],
      "stateMutability": "view",
      "type": "function"
    },
    {
      "inputs": [
        {
          "internalType": "address",
          "name": "newOwner",
          "type": "address"
        }
      ],
      "name": "transferOwnership",
      "outputs": [],
      "stateMutability": "nonpayable",
      "type": "function"
    },
    {
      "inputs": [
        {
          "internalType": "address",
          "name": "_user",
          "type": "address"
        }
      ],
      "name": "userRewards",
      "outputs": [
        {
          "components": [
            {
              "internalType": "uint256",
              "name": "rewardAmount",
              "type": "uint256"
            },
            {
              "internalType": "uint256",
              "name": "endTime",
              "type": "uint256"
            },
            {
              "internalType": "uint256",
              "name": "lastUpdateTime",
              "type": "uint256"
            }
          ],
          "internalType": "struct Purchase.UserRewards[]",
          "name": "",
          "type": "tuple[]"
        }
      ],
      "stateMutability": "view",
      "type": "function"
    }
  ],
  "bytecode": {
    "object": "0x60806040523480156200001157600080fd5b50604051620022c5380380620022c58339810160408190526200003491620000f5565b6200003f3362000088565b600180546001600160a01b039586166001600160a01b03199182161790915560028054948616948216949094179093556003919091556004805491909316911617905562000149565b600080546001600160a01b038381166001600160a01b0319831681178455604051919092169283917f8be0079c531659141344cd1fd0a4f28419497f9722a3daafe3b4186f6b6457e09190a35050565b80516001600160a01b0381168114620000f057600080fd5b919050565b600080600080608085870312156200010c57600080fd5b6200011785620000d8565b93506200012760208601620000d8565b9250604085015191506200013e60608601620000d8565b905092959194509250565b61216c80620001596000396000f3fe608060405234801561001057600080fd5b50600436106101215760003560e01c80637ff9b596116100ad578063a95c4d6211610071578063a95c4d6214610257578063b4e3934d1461026a578063b933ceac1461027d578063e174a9c4146102ab578063f2fde38b146102be57600080fd5b80637ff9b5961461020f5780638456bd2e146102185780638da5cb5b1461022b5780639134709e1461023c578063981a6ea31461024f57600080fd5b806368c95f09116100f457806368c95f09146101ad57806369a69e29146101ce5780636a61e5fc146101e1578063715018a6146101f4578063741bef1a146101fc57600080fd5b80630660f1e8146101265780631d509afd1461014f57806336f1187f14610190578063372500ab146101a3575b600080fd5b610139610134366004611c9a565b6102d1565b6040516101469190611cb5565b60405180910390f35b61017861015d366004611c9a565b6006602052600090815260409020546001600160a01b031681565b6040516001600160a01b039091168152602001610146565b600154610178906001600160a01b031681565b6101ab610364565b005b6101c06101bb366004611c9a565b6107cc565b604051908152602001610146565b6101c06101dc366004611c9a565b610896565b6101ab6101ef366004611d0e565b610aee565b6101ab610afb565b600454610178906001600160a01b031681565b6101c060035481565b6101ab610226366004611c9a565b610b0f565b6000546001600160a01b0316610178565b6101ab61024a366004611d27565b610ba3565b6101c06113a9565b600254610178906001600160a01b031681565b6101ab610278366004611c9a565b6114a2565b61029061028b366004611d53565b61152c565b60408051938452602084019290925290820152606001610146565b6101ab6102b9366004611d0e565b61156e565b6101ab6102cc366004611c9a565b611712565b6001600160a01b0381166000908152600560209081526040808320805482518185028101850190935280835260609492939192909184015b828210156103595783829060005260206000209060030201604051806060016040529081600082015481526020016001820154815260200160028201548152505081526020019060010190610309565b505050509050919050565b60005b336000908152600560205260409020548110156107585733600090815260056020526040812080548390811061039f5761039f611d7d565b9060005260206000209060030201600001541115610746573360009081526005602052604090208054829081106103d8576103d8611d7d565b90600052602060002090600302016001015442101561063f5733600090815260056020526040812080548390811061041257610412611d7d565b90600052602060002090600302016002015460056000336001600160a01b03166001600160a01b03168152602001908152602001600020838154811061045a5761045a611d7d565b9060005260206000209060030201600101546104769190611da9565b336000908152600560205260408120805492935090918490811061049c5761049c611d7d565b906000526020600020906003020160020154426104b99190611da9565b3360009081526005602052604081208054929350909184918491879081106104e3576104e3611d7d565b9060005260206000209060030201600001546104ff9190611dc2565b6105099190611def565b336000908152600560205260409020805491925082918690811061052f5761052f611d7d565b9060005260206000209060030201600001600082825461054f9190611da9565b909155505033600090815260056020526040902080544291908690811061057857610578611d7d565b60009182526020808320600260039093020191909101929092553381526005909152604090208054859081106105b0576105b0611d7d565b9060005260206000209060030201600001546000036105d3576105d33385611788565b6001546040516340c10f1960e01b8152336004820152602481018390526001600160a01b03909116906340c10f1990604401600060405180830381600087803b15801561061f57600080fd5b505af1158015610633573d6000803e3d6000fd5b50505050505050610746565b33600090815260056020526040812080548390811061066057610660611d7d565b600091825260208083206003909202909101543383526005909152604082208054919350908490811061069557610695611d7d565b600091825260208083206003909202909101929092553381526005909152604090208054429190849081106106cc576106cc611d7d565b60009182526020909120600390910201600201556001546040516340c10f1960e01b8152336004820152602481018390526001600160a01b03909116906340c10f1990604401600060405180830381600087803b15801561072c57600080fd5b505af1158015610740573d6000803e3d6000fd5b50505050505b8061075081611e03565b915050610367565b5060005b336000908152600560205260409020548110156107c95733600090815260056020526040902080548290811061079457610794611d7d565b9060005260206000209060030201600001546000036107b7576107b73382611788565b806107c181611e03565b91505061075c565b50565b600080805b6001600160a01b03841660009081526005602052604090205481101561088f576001600160a01b038416600090815260056020526040812080548390811061081b5761081b611d7d565b906000526020600020906003020160000154111561087d576001600160a01b038416600090815260056020526040902080548290811061085d5761085d611d7d565b9060005260206000209060030201600001548261087a9190611e1c565b91505b8061088781611e03565b9150506107d1565b5092915050565b600080805b6001600160a01b03841660009081526005602052604090205481101561088f576001600160a01b03841660009081526005602052604081208054839081106108e5576108e5611d7d565b9060005260206000209060030201600001541115610adc576001600160a01b038416600090815260056020526040902080548290811061092757610927611d7d565b906000526020600020906003020160010154421015610a92576001600160a01b038416600090815260056020526040812080548390811061096a5761096a611d7d565b90600052602060002090600302016002015460056000876001600160a01b03166001600160a01b0316815260200190815260200160002083815481106109b2576109b2611d7d565b9060005260206000209060030201600101546109ce9190611da9565b6001600160a01b038616600090815260056020526040812080549293509091849081106109fd576109fd611d7d565b90600052602060002090600302016002015442610a1a9190611da9565b905060008282600560008a6001600160a01b03166001600160a01b031681526020019081526020016000208681548110610a5657610a56611d7d565b906000526020600020906003020160000154610a729190611dc2565b610a7c9190611def565b9050610a888186611e1c565b9450505050610adc565b6001600160a01b0384166000908152600560205260409020805482908110610abc57610abc611d7d565b90600052602060002090600302016000015482610ad99190611e1c565b91505b80610ae681611e03565b91505061089b565b610af661190c565b600355565b610b0361190c565b610b0d6000611966565b565b610b1761190c565b6001600160a01b038116610b815760405162461bcd60e51b815260206004820152602660248201527f507572636861736520746f6b656e2063616e206e6f74206265207a65726f206160448201526564647265737360d01b60648201526084015b60405180910390fd5b600280546001600160a01b0319166001600160a01b0392909216919091179055565b6000610bad6113a9565b9050670d2f13f7789f0000811015610c075760405162461bcd60e51b815260206004820152601e60248201527f55534443207072696365206973206e6f742061626f766520302e3935202400006044820152606401610b78565b6002546040805163313ce56760e01b815290516000926001600160a01b03169163313ce5679160048083019260209291908290030181865afa158015610c51573d6000803e3d6000fd5b505050506040513d601f19601f82011682018060405250810190610c759190611e2f565b60ff169050336001600160a01b03841603610cde5760405162461bcd60e51b815260206004820152602360248201527f596f752063616e27742070757420796f757220616464726573732061732072656044820152623332b960e91b6064820152608401610b78565b6002546040516370a0823160e01b815233600482015285916001600160a01b0316906370a0823190602401602060405180830381865afa158015610d26573d6000803e3d6000fd5b505050506040513d601f19601f82011682018060405250810190610d4a9190611e52565b1015610d685760405162461bcd60e51b8152600401610b7890611e6b565b600354600090610d8086670de0b6b3a7640000611dc2565b610d8a9190611def565b9050600060035483600a610d9e9190611f9e565b610daa906103e8611dc2565b610dbc90670de0b6b3a7640000611dc2565b610dc69190611def565b6001546040516340c10f1960e01b8152336004820152602481018590529192506001600160a01b0316906340c10f1990604401600060405180830381600087803b158015610e1357600080fd5b505af1158015610e27573d6000803e3d6000fd5b5050600254610e5592506001600160a01b0316905033610e4f6000546001600160a01b031690565b896119b6565b6001600160a01b038516156113a1573360009081526006602052604080822080546001600160a01b0319166001600160a01b03898116918217909255808452828420548216808552838520548316808652939094205489949392169015801590610f2b57506001546040516370a0823160e01b81526001600160a01b03868116600483015260009216906370a0823190602401602060405180830381865afa158015610f05573d6000803e3d6000fd5b505050506040513d601f19601f82011682018060405250810190610f299190611e52565b115b1561104e576001546001600160a01b03166340c10f198587610f558a674563918244f40000611dc2565b610f5f9190611def565b6040516001600160e01b031960e085901b1681526001600160a01b0390921660048301526024820152604401600060405180830381600087803b158015610fa557600080fd5b505af1158015610fb9573d6000803e3d6000fd5b5050506001600160a01b0385166000908152600560205260409081902081516060810190925291508087610ff58a6783d6c7aab6360000611dc2565b610fff9190611def565b8152602001611012426305a39a80611e1c565b81524260209182015282546001818101855560009485529382902083516003909202019081559082015192810192909255604001516002909101555b6001600160a01b038316158015906110d257506001546040516370a0823160e01b81526001600160a01b03858116600483015260009216906370a0823190602401602060405180830381865afa1580156110ac573d6000803e3d6000fd5b505050506040513d601f19601f820116820180604052508101906110d09190611e52565b115b15611168576001600160a01b0383166000908152600560205260409081902081516060810190925290808761110f8a6768155a43676e0000611dc2565b6111199190611def565b815260200161112c426305a39a80611e1c565b81524260209182015282546001818101855560009485529382902083516003909202019081559082015192810192909255604001516002909101555b6001600160a01b038216158015906111ec57506001546040516370a0823160e01b81526001600160a01b03848116600483015260009216906370a0823190602401602060405180830381865afa1580156111c6573d6000803e3d6000fd5b505050506040513d601f19601f820116820180604052508101906111ea9190611e52565b115b15611282576001600160a01b038216600090815260056020526040908190208151606081019092529080876112298a6753444835ec580000611dc2565b6112339190611def565b8152602001611246426305a39a80611e1c565b81524260209182015282546001818101855560009485529382902083516003909202019081559082015192810192909255604001516002909101555b6001600160a01b0381161580159061130657506001546040516370a0823160e01b81526001600160a01b03838116600483015260009216906370a0823190602401602060405180830381865afa1580156112e0573d6000803e3d6000fd5b505050506040513d601f19601f820116820180604052508101906113049190611e52565b115b1561139c576001600160a01b038116600090815260056020526040908190208151606081019092529080876113438a673782dace9d900000611dc2565b61134d9190611def565b8152602001611360426305a39a80611e1c565b81524260209182015282546001818101855560009485529382902083516003909202019081559082015192810192909255604001516002909101555b505050505b505050505050565b6004805460408051633fabe5a360e21b8152905160009384936001600160a01b03169263feaf968c928183019260a0928290030181865afa1580156113f2573d6000803e3d6000fd5b505050506040513d601f19601f820116820180604052508101906114169190611fc4565b5050600480546040805163313ce56760e01b81529051949650600095506001600160a01b039091169363313ce5679350818301926020928290030181865afa158015611466573d6000803e3d6000fd5b505050506040513d601f19601f8201168201806040525081019061148a9190611e2f565b9050600061149a83836012611a16565b949350505050565b6114aa61190c565b6001600160a01b03811661150a5760405162461bcd60e51b815260206004820152602160248201527f43424420746f6b656e2063616e206e6f74206265207a65726f206164647265736044820152607360f81b6064820152608401610b78565b600180546001600160a01b0319166001600160a01b0392909216919091179055565b6005602052816000526040600020818154811061154857600080fd5b600091825260209091206003909102018054600182015460029092015490935090915083565b60006115786113a9565b9050670d2f13f7789f00008110156115d25760405162461bcd60e51b815260206004820152601e60248201527f55534443207072696365206973206e6f742061626f766520302e3935202400006044820152606401610b78565b6002546040516370a0823160e01b815233600482015283916001600160a01b0316906370a0823190602401602060405180830381865afa15801561161a573d6000803e3d6000fd5b505050506040513d601f19601f8201168201806040525081019061163e9190611e52565b101561165c5760405162461bcd60e51b8152600401610b7890611e6b565b60035460009061167484670de0b6b3a7640000611dc2565b61167e9190611def565b6001546040516340c10f1960e01b8152336004820152602481018390529192506001600160a01b0316906340c10f1990604401600060405180830381600087803b1580156116cb57600080fd5b505af11580156116df573d6000803e3d6000fd5b505060025461170d92506001600160a01b03169050336117076000546001600160a01b031690565b866119b6565b505050565b61171a61190c565b6001600160a01b03811661177f5760405162461bcd60e51b815260206004820152602660248201527f4f776e61626c653a206e6577206f776e657220697320746865207a65726f206160448201526564647265737360d01b6064820152608401610b78565b6107c981611966565b805b6001600160a01b0383166000908152600560205260409020546117af90600190611da9565b811015611867576001600160a01b03831660009081526005602052604090206117d9826001611e1c565b815481106117e9576117e9611d7d565b906000526020600020906003020160056000856001600160a01b03166001600160a01b03168152602001908152602001600020828154811061182d5761182d611d7d565b600091825260209091208254600390920201908155600180830154908201556002918201549101558061185f81611e03565b91505061178a565b506001600160a01b0382166000908152600560205260409020805461188e90600190611da9565b8154811061189e5761189e611d7d565b600091825260208083206003909202909101828155600181018390556002018290556001600160a01b038416825260059052604090208054806118e3576118e3612014565b600082815260208120600360001990930192830201818155600181018290556002015590555050565b6000546001600160a01b03163314610b0d5760405162461bcd60e51b815260206004820181905260248201527f4f776e61626c653a2063616c6c6572206973206e6f7420746865206f776e65726044820152606401610b78565b600080546001600160a01b038381166001600160a01b0319831681178455604051919092169283917f8be0079c531659141344cd1fd0a4f28419497f9722a3daafe3b4186f6b6457e09190a35050565b604080516001600160a01b0385811660248301528416604482015260648082018490528251808303909101815260849091019091526020810180516001600160e01b03166323b872dd60e01b179052611a10908590611a89565b50505050565b60008160ff168360ff161015611a4f57611a30838361202a565b611a3e9060ff16600a611f9e565b611a489085612043565b9050611a82565b8160ff168360ff161115611a7f57611a67828461202a565b611a759060ff16600a611f9e565b611a489085612073565b50825b9392505050565b6000611ade826040518060400160405280602081526020017f5361666545524332303a206c6f772d6c6576656c2063616c6c206661696c6564815250856001600160a01b0316611b5b9092919063ffffffff16565b80519091501561170d5780806020019051810190611afc91906120a1565b61170d5760405162461bcd60e51b815260206004820152602a60248201527f5361666545524332303a204552433230206f7065726174696f6e20646964206e6044820152691bdd081cdd58d8d9595960b21b6064820152608401610b78565b606061149a848460008585600080866001600160a01b03168587604051611b8291906120e7565b60006040518083038185875af1925050503d8060008114611bbf576040519150601f19603f3d011682016040523d82523d6000602084013e611bc4565b606091505b5091509150611bd587838387611be0565b979650505050505050565b60608315611c4f578251600003611c48576001600160a01b0385163b611c485760405162461bcd60e51b815260206004820152601d60248201527f416464726573733a2063616c6c20746f206e6f6e2d636f6e74726163740000006044820152606401610b78565b508161149a565b61149a8383815115611c645781518083602001fd5b8060405162461bcd60e51b8152600401610b789190612103565b80356001600160a01b0381168114611c9557600080fd5b919050565b600060208284031215611cac57600080fd5b611a8282611c7e565b602080825282518282018190526000919060409081850190868401855b82811015611d015781518051855286810151878601528501518585015260609093019290850190600101611cd2565b5091979650505050505050565b600060208284031215611d2057600080fd5b5035919050565b60008060408385031215611d3a57600080fd5b82359150611d4a60208401611c7e565b90509250929050565b60008060408385031215611d6657600080fd5b611d6f83611c7e565b946020939093013593505050565b634e487b7160e01b600052603260045260246000fd5b634e487b7160e01b600052601160045260246000fd5b81810381811115611dbc57611dbc611d93565b92915050565b8082028115828204841417611dbc57611dbc611d93565b634e487b7160e01b600052601260045260246000fd5b600082611dfe57611dfe611dd9565b500490565b600060018201611e1557611e15611d93565b5060010190565b80820180821115611dbc57611dbc611d93565b600060208284031215611e4157600080fd5b815160ff81168114611a8257600080fd5b600060208284031215611e6457600080fd5b5051919050565b6020808252602f908201527f596f7520646f6e2774206861766520656e6f75676820737461626c65636f696e60408201526e2062616c616e636520746f2062757960881b606082015260800190565b600181815b80851115611ef5578160001904821115611edb57611edb611d93565b80851615611ee857918102915b93841c9390800290611ebf565b509250929050565b600082611f0c57506001611dbc565b81611f1957506000611dbc565b8160018114611f2f5760028114611f3957611f55565b6001915050611dbc565b60ff841115611f4a57611f4a611d93565b50506001821b611dbc565b5060208310610133831016604e8410600b8410161715611f78575081810a611dbc565b611f828383611eba565b8060001904821115611f9657611f96611d93565b029392505050565b6000611a828383611efd565b805169ffffffffffffffffffff81168114611c9557600080fd5b600080600080600060a08688031215611fdc57600080fd5b611fe586611faa565b945060208601519350604086015192506060860151915061200860808701611faa565b90509295509295909350565b634e487b7160e01b600052603160045260246000fd5b60ff8281168282160390811115611dbc57611dbc611d93565b80820260008212600160ff1b8414161561205f5761205f611d93565b8181058314821517611dbc57611dbc611d93565b60008261208257612082611dd9565b600160ff1b82146000198414161561209c5761209c611d93565b500590565b6000602082840312156120b357600080fd5b81518015158114611a8257600080fd5b60005b838110156120de5781810151838201526020016120c6565b50506000910152565b600082516120f98184602087016120c3565b9190910192915050565b60208152600082518060208401526121228160408501602087016120c3565b601f01601f1916919091016040019291505056fea2646970667358221220578d2ace59ec33d2addb55ba2dec788d74a5f2db5cc98d1de09c2f90ca70bc5764736f6c63430008110033",
    "linkReferences": {}
  },
  "methodIdentifiers": {
    "allRewardAmounts(address)": "68c95f09",
    "buyToken(uint256,address)": "9134709e",
    "buyTokenWhitoutRef(uint256)": "e174a9c4",
    "cbdToken()": "36f1187f",
    "claimRewards()": "372500ab",
    "getOracleUsdcPrice()": "981a6ea3",
    "getUnclaimedRewards(address)": "69a69e29",
    "owner()": "8da5cb5b",
    "priceFeed()": "741bef1a",
    "purchaseToken()": "a95c4d62",
    "refer(address)": "1d509afd",
    "renounceOwnership()": "715018a6",
    "rewards(address,uint256)": "b933ceac",
    "setCBDToken(address)": "b4e3934d",
    "setPurchaseToken(address)": "8456bd2e",
    "setTokenPrice(uint256)": "6a61e5fc",
    "tokenPrice()": "7ff9b596",
    "transferOwnership(address)": "f2fde38b",
    "userRewards(address)": "0660f1e8"
  },
  "id": 1
}