{
  "abi": [
    {
      "inputs": [
        {
          "internalType": "address",
          "name": "_cbdToken",
          "type": "address"
        },
        {
          "internalType": "address",
          "name": "_purchaseToken",
          "type": "address"
        },
        {
          "internalType": "uint256",
          "name": "_tokenPrice",
          "type": "uint256"
        },
        {
          "internalType": "address",
          "name": "_priceFeed",
          "type": "address"
        }
      ],
      "stateMutability": "nonpayable",
      "type": "constructor"
    },
    {
      "inputs": [
        {
          "internalType": "address",
          "name": "_newOwner",
          "type": "address"
        }
      ],
      "name": "addOwner",
      "outputs": [],
      "stateMutability": "nonpayable",
      "type": "function"
    },
    {
      "inputs": [],
      "name": "admin",
      "outputs": [
        {
          "internalType": "address",
          "name": "",
          "type": "address"
        }
      ],
      "stateMutability": "view",
      "type": "function"
    },
    {
      "inputs": [
        {
          "internalType": "address",
          "name": "_user",
          "type": "address"
        }
      ],
      "name": "allPurchaseRewardAmounts",
      "outputs": [
        {
          "internalType": "uint256",
          "name": "",
          "type": "uint256"
        }
      ],
      "stateMutability": "view",
      "type": "function"
    },
    {
      "inputs": [
        {
          "internalType": "address",
          "name": "_user",
          "type": "address"
        }
      ],
      "name": "allPurchaseTotalRewardAmounts",
      "outputs": [
        {
          "internalType": "uint256",
          "name": "",
          "type": "uint256"
        }
      ],
      "stateMutability": "view",
      "type": "function"
    },
    {
      "inputs": [
        {
          "internalType": "address",
          "name": "_user",
          "type": "address"
        }
      ],
      "name": "allReferRewardAmounts",
      "outputs": [
        {
          "internalType": "uint256",
          "name": "",
          "type": "uint256"
        }
      ],
      "stateMutability": "view",
      "type": "function"
    },
    {
      "inputs": [
        {
          "internalType": "address",
          "name": "_user",
          "type": "address"
        }
      ],
      "name": "allReferTotalRewardAmounts",
      "outputs": [
        {
          "internalType": "uint256",
          "name": "",
          "type": "uint256"
        }
      ],
      "stateMutability": "view",
      "type": "function"
    },
    {
      "inputs": [
        {
          "internalType": "address",
          "name": "_user",
          "type": "address"
        }
      ],
      "name": "allRewardAmounts",
      "outputs": [
        {
          "internalType": "uint256",
          "name": "",
          "type": "uint256"
        }
      ],
      "stateMutability": "view",
      "type": "function"
    },
    {
      "inputs": [
        {
          "internalType": "address",
          "name": "_user",
          "type": "address"
        }
      ],
      "name": "allTotalRewardAmounts",
      "outputs": [
        {
          "internalType": "uint256",
          "name": "",
          "type": "uint256"
        }
      ],
      "stateMutability": "view",
      "type": "function"
    },
    {
      "inputs": [
        {
          "internalType": "uint256",
          "name": "",
          "type": "uint256"
        }
      ],
      "name": "allowedAmounts",
      "outputs": [
        {
          "internalType": "bool",
          "name": "isAllowed",
          "type": "bool"
        },
        {
          "internalType": "uint256",
          "name": "totalReward",
          "type": "uint256"
        }
      ],
      "stateMutability": "view",
      "type": "function"
    },
    {
      "inputs": [
        {
          "internalType": "uint256",
          "name": "_amount",
          "type": "uint256"
        },
        {
          "internalType": "uint256",
          "name": "_totalRewardByAmount",
          "type": "uint256"
        }
      ],
      "name": "anableAllawanceForAmount",
      "outputs": [],
      "stateMutability": "nonpayable",
      "type": "function"
    },
    {
      "inputs": [],
      "name": "baseRegisterAmount",
      "outputs": [
        {
          "internalType": "uint256",
          "name": "",
          "type": "uint256"
        }
      ],
      "stateMutability": "view",
      "type": "function"
    },
    {
      "inputs": [
        {
          "internalType": "uint256",
          "name": "stableCoinAmount",
          "type": "uint256"
        },
        {
          "internalType": "address",
          "name": "_refer",
          "type": "address"
        }
      ],
      "name": "buyToken",
      "outputs": [],
      "stateMutability": "nonpayable",
      "type": "function"
    },
    {
      "inputs": [
        {
          "internalType": "uint256",
          "name": "stableCoinAmount",
          "type": "uint256"
        }
      ],
      "name": "buyTokenWhitoutRef",
      "outputs": [],
      "stateMutability": "nonpayable",
      "type": "function"
    },
    {
      "inputs": [],
      "name": "cbdToken",
      "outputs": [
        {
          "internalType": "contract CBDToken",
          "name": "",
          "type": "address"
        }
      ],
      "stateMutability": "view",
      "type": "function"
    },
    {
      "inputs": [
        {
          "internalType": "address",
          "name": "_newAdmin",
          "type": "address"
        }
      ],
      "name": "changeAdmin",
      "outputs": [],
      "stateMutability": "nonpayable",
      "type": "function"
    },
    {
      "inputs": [
        {
          "internalType": "bool",
          "name": "_status",
          "type": "bool"
        }
      ],
      "name": "changeAllowAmountsActivation",
      "outputs": [],
      "stateMutability": "nonpayable",
      "type": "function"
    },
    {
      "inputs": [],
      "name": "claimPurchaseRewards",
      "outputs": [],
      "stateMutability": "nonpayable",
      "type": "function"
    },
    {
      "inputs": [],
      "name": "claimReferRewards",
      "outputs": [],
      "stateMutability": "nonpayable",
      "type": "function"
    },
    {
      "inputs": [],
      "name": "claimRewards",
      "outputs": [],
      "stateMutability": "nonpayable",
      "type": "function"
    },
    {
      "inputs": [
        {
          "internalType": "uint256",
          "name": "_amount",
          "type": "uint256"
        }
      ],
      "name": "disableAllawanceForAmount",
      "outputs": [],
      "stateMutability": "nonpayable",
      "type": "function"
    },
    {
      "inputs": [],
      "name": "getOracleUsdcPrice",
      "outputs": [
        {
          "internalType": "uint256",
          "name": "",
          "type": "uint256"
        }
      ],
      "stateMutability": "view",
      "type": "function"
    },
    {
      "inputs": [
        {
          "internalType": "address",
          "name": "_user",
          "type": "address"
        }
      ],
      "name": "getUnclaimedRewards",
      "outputs": [
        {
          "internalType": "uint256",
          "name": "",
          "type": "uint256"
        }
      ],
      "stateMutability": "view",
      "type": "function"
    },
    {
      "inputs": [
        {
          "internalType": "address",
          "name": "",
          "type": "address"
        }
      ],
      "name": "instantReferRewardHistory",
      "outputs": [
        {
          "internalType": "uint256",
          "name": "",
          "type": "uint256"
        }
      ],
      "stateMutability": "view",
      "type": "function"
    },
    {
      "inputs": [
        {
          "internalType": "address",
          "name": "_user",
          "type": "address"
        }
      ],
      "name": "isOwner",
      "outputs": [
        {
          "internalType": "bool",
          "name": "",
          "type": "bool"
        }
      ],
      "stateMutability": "view",
      "type": "function"
    },
    {
      "inputs": [
        {
          "internalType": "address",
          "name": "",
          "type": "address"
        }
      ],
      "name": "isRegistered",
      "outputs": [
        {
          "internalType": "bool",
          "name": "",
          "type": "bool"
        }
      ],
      "stateMutability": "view",
      "type": "function"
    },
    {
      "inputs": [
        {
          "internalType": "address",
          "name": "",
          "type": "address"
        }
      ],
      "name": "owners",
      "outputs": [
        {
          "internalType": "bool",
          "name": "",
          "type": "bool"
        }
      ],
      "stateMutability": "view",
      "type": "function"
    },
    {
      "inputs": [],
      "name": "priceFeed",
      "outputs": [
        {
          "internalType": "contract AggregatorV3Interface",
          "name": "",
          "type": "address"
        }
      ],
      "stateMutability": "view",
      "type": "function"
    },
    {
      "inputs": [
        {
          "internalType": "address",
          "name": "",
          "type": "address"
        },
        {
          "internalType": "uint256",
          "name": "",
          "type": "uint256"
        }
      ],
      "name": "purchaseRewards",
      "outputs": [
        {
          "internalType": "uint256",
          "name": "totalRewardAmount",
          "type": "uint256"
        },
        {
          "internalType": "uint256",
          "name": "rewardAmount",
          "type": "uint256"
        },
        {
          "internalType": "uint256",
          "name": "endTime",
          "type": "uint256"
        },
        {
          "internalType": "uint256",
          "name": "lastUpdateTime",
          "type": "uint256"
        }
      ],
      "stateMutability": "view",
      "type": "function"
    },
    {
      "inputs": [],
      "name": "purchaseToken",
      "outputs": [
        {
          "internalType": "address",
          "name": "",
          "type": "address"
        }
      ],
      "stateMutability": "view",
      "type": "function"
    },
    {
      "inputs": [
        {
          "internalType": "address",
          "name": "",
          "type": "address"
        }
      ],
      "name": "refer",
      "outputs": [
        {
          "internalType": "address",
          "name": "",
          "type": "address"
        }
      ],
      "stateMutability": "view",
      "type": "function"
    },
    {
      "inputs": [
        {
          "internalType": "address",
          "name": "",
          "type": "address"
        },
        {
          "internalType": "uint256",
          "name": "",
          "type": "uint256"
        }
      ],
      "name": "referRewards",
      "outputs": [
        {
          "internalType": "uint256",
          "name": "totalRewardAmount",
          "type": "uint256"
        },
        {
          "internalType": "uint256",
          "name": "rewardAmount",
          "type": "uint256"
        },
        {
          "internalType": "uint256",
          "name": "endTime",
          "type": "uint256"
        },
        {
          "internalType": "uint256",
          "name": "lastUpdateTime",
          "type": "uint256"
        }
      ],
      "stateMutability": "view",
      "type": "function"
    },
    {
      "inputs": [
        {
          "internalType": "uint256",
          "name": "stableCoinAmount",
          "type": "uint256"
        },
        {
          "internalType": "address",
          "name": "_refer",
          "type": "address"
        }
      ],
      "name": "register",
      "outputs": [],
      "stateMutability": "nonpayable",
      "type": "function"
    },
    {
      "inputs": [
        {
          "internalType": "address",
          "name": "_newOwner",
          "type": "address"
        }
      ],
      "name": "removeOwner",
      "outputs": [],
      "stateMutability": "nonpayable",
      "type": "function"
    },
    {
      "inputs": [
        {
          "internalType": "uint256",
          "name": "_baseRegisterAmount",
          "type": "uint256"
        }
      ],
      "name": "setBaseRegisterAmount",
      "outputs": [],
      "stateMutability": "nonpayable",
      "type": "function"
    },
    {
      "inputs": [
        {
          "internalType": "address",
          "name": "_CBDToken",
          "type": "address"
        }
      ],
      "name": "setCBDToken",
      "outputs": [],
      "stateMutability": "nonpayable",
      "type": "function"
    },
    {
      "inputs": [
        {
          "internalType": "address",
          "name": "_purchaseToken",
          "type": "address"
        }
      ],
      "name": "setPurchaseToken",
      "outputs": [],
      "stateMutability": "nonpayable",
      "type": "function"
    },
    {
      "inputs": [
        {
          "internalType": "uint256",
          "name": "_newTokenPrice",
          "type": "uint256"
        }
      ],
      "name": "setTokenPrice",
      "outputs": [],
      "stateMutability": "nonpayable",
      "type": "function"
    },
    {
      "inputs": [],
      "name": "tokenPrice",
      "outputs": [
        {
          "internalType": "uint256",
          "name": "",
          "type": "uint256"
        }
      ],
      "stateMutability": "view",
      "type": "function"
    },
    {
      "inputs": [
        {
          "internalType": "address",
          "name": "_newOwner",
          "type": "address"
        }
      ],
      "name": "transferUserOwnership",
      "outputs": [],
      "stateMutability": "nonpayable",
      "type": "function"
    },
    {
      "inputs": [
        {
          "internalType": "address",
          "name": "_user",
          "type": "address"
        }
      ],
      "name": "userPurchaseRewards",
      "outputs": [
        {
          "components": [
            {
              "internalType": "uint256",
              "name": "totalRewardAmount",
              "type": "uint256"
            },
            {
              "internalType": "uint256",
              "name": "rewardAmount",
              "type": "uint256"
            },
            {
              "internalType": "uint256",
              "name": "endTime",
              "type": "uint256"
            },
            {
              "internalType": "uint256",
              "name": "lastUpdateTime",
              "type": "uint256"
            }
          ],
          "internalType": "struct Purchase.UserRewards[]",
          "name": "",
          "type": "tuple[]"
        }
      ],
      "stateMutability": "view",
      "type": "function"
    },
    {
      "inputs": [
        {
          "internalType": "address",
          "name": "_user",
          "type": "address"
        }
      ],
      "name": "userReferRewards",
      "outputs": [
        {
          "components": [
            {
              "internalType": "uint256",
              "name": "totalRewardAmount",
              "type": "uint256"
            },
            {
              "internalType": "uint256",
              "name": "rewardAmount",
              "type": "uint256"
            },
            {
              "internalType": "uint256",
              "name": "endTime",
              "type": "uint256"
            },
            {
              "internalType": "uint256",
              "name": "lastUpdateTime",
              "type": "uint256"
            }
          ],
          "internalType": "struct Purchase.UserRewards[]",
          "name": "",
          "type": "tuple[]"
        }
      ],
      "stateMutability": "view",
      "type": "function"
    }
  ],
  "bytecode": {
    "object": "0x60806040523480156200001157600080fd5b506040516200471c3803806200471c8339810160408190526200003491620002f5565b600080546001600160a01b038087166001600160a01b0319928316178355600180548783169084168117909155600286905560048054928616929093169190911782556040805163313ce56760e01b81529051919263313ce5679282820192602092908290030181865afa158015620000b1573d6000803e3d6000fd5b505050506040513d601f19601f82011682018060405250810190620000d7919062000349565b60ff169050620000e981600a6200048a565b620000f690603262000498565b6003553360008181526006602052604090208054600160ff199182168117909255600580546001600160a01b03191690931790925560088054909216179055620001746200014682600a6200048a565b620001539060fa62000498565b6200016083600a6200048a565b6200016e906101f462000498565b6200022d565b620001ae6200018582600a6200048a565b62000193906101f462000498565b620001a083600a6200048a565b6200016e906105dc62000498565b620001e8620001bf82600a6200048a565b620001cd906103e862000498565b620001da83600a6200048a565b6200016e90610bb862000498565b62000222620001f982600a6200048a565b62000207906107d062000498565b6200021483600a6200048a565b6200016e9061177062000498565b5050505050620004b2565b6200023762000257565b600091825260096020526040909120805460ff1916600190811782550155565b3360009081526006602052604090205460ff16620002d65760405162461bcd60e51b815260206004820152603260248201527f4f776e61626c655f4469737472696275746f723a2063616c6c6572206973206e6044820152716f742066726f6d20746865206f776e65727360701b606482015260840160405180910390fd5b565b80516001600160a01b0381168114620002f057600080fd5b919050565b600080600080608085870312156200030c57600080fd5b6200031785620002d8565b93506200032760208601620002d8565b9250604085015191506200033e60608601620002d8565b905092959194509250565b6000602082840312156200035c57600080fd5b815160ff811681146200036e57600080fd5b9392505050565b634e487b7160e01b600052601160045260246000fd5b600181815b80851115620003cc578160001904821115620003b057620003b062000375565b80851615620003be57918102915b93841c939080029062000390565b509250929050565b600082620003e55750600162000484565b81620003f45750600062000484565b81600181146200040d5760028114620004185762000438565b600191505062000484565b60ff8411156200042c576200042c62000375565b50506001821b62000484565b5060208310610133831016604e8410600b84101617156200045d575081810a62000484565b6200046983836200038b565b806000190482111562000480576200048062000375565b0290505b92915050565b60006200036e8383620003d4565b808202811582820484141762000484576200048462000375565b61425a80620004c26000396000f3fe608060405234801561001057600080fd5b50600436106102535760003560e01c8063772f442711610146578063b43ec334116100c3578063d895acb811610087578063d895acb8146105a8578063dbbdf083146105bb578063e174a9c4146105ce578063e1a5df79146105e1578063f851a440146105f4578063fe08c5ac1461060757600080fd5b8063b43ec33414610519578063b4e3934d1461054c578063b6f6fbd91461055f578063c3c5a54714610572578063cf7b5ea91461059557600080fd5b80638f2839701161010a5780638f283970146104c55780639134709e146104d8578063981a6ea3146104eb578063a95c4d62146104f3578063b38035101461050657600080fd5b8063772f4427146104325780637cdfecdb146104765780637ff9b596146104895780638456bd2e146104925780638a8c7e46146104a557600080fd5b80633a8ce33c116101d45780636a61e5fc116101985780636a61e5fc146103d15780636fc98615146103e45780637065cb4814610404578063741bef1a14610417578063772181871461042a57600080fd5b80633a8ce33c1461037c578063510bbe6914610385578063689ae9bf1461039857806368c95f09146103ab57806369a69e29146103be57600080fd5b80631dfebd121161021b5780631dfebd121461031a5780632f54bf6e14610322578063352d80e01461034e57806336f1187f14610361578063372500ab1461037457600080fd5b8063022914a7146102585780630505cadb146102905780631547e29d146102b1578063173825d9146102c65780631d509afd146102d9575b600080fd5b61027b610266366004613cb8565b60066020526000908152604090205460ff1681565b60405190151581526020015b60405180910390f35b6102a361029e366004613cb8565b61061a565b604051908152602001610287565b6102c46102bf366004613cd3565b6106e4565b005b6102c46102d4366004613cb8565b61070c565b6103026102e7366004613cb8565b600c602052600090815260409020546001600160a01b031681565b6040516001600160a01b039091168152602001610287565b6102c4610735565b61027b610330366004613cb8565b6001600160a01b031660009081526006602052604090205460ff1690565b6102c461035c366004613cf5565b610b7f565b600054610302906001600160a01b031681565b6102c4610ba3565b6102a360035481565b6102a3610393366004613cb8565b6113cb565b6102c46103a6366004613cf5565b61148e565b6102a36103b9366004613cb8565b6114fc565b6102a36103cc366004613cb8565b611681565b6102c46103df366004613cf5565b611b30565b6102a36103f2366004613cb8565b600d6020526000908152604090205481565b6102c4610412366004613cb8565b611b3d565b600454610302906001600160a01b031681565b6102c4611b69565b61045f610440366004613cf5565b6009602052600090815260409020805460019091015460ff9091169082565b604080519215158352602083019190915201610287565b6102c4610484366004613cb8565b611faf565b6102a360025481565b6102c46104a0366004613cb8565b611fee565b6104b86104b3366004613cb8565b61207d565b6040516102879190613d0e565b6102c46104d3366004613cb8565b61211a565b6102c46104e6366004613d72565b612144565b6102a3612cb0565b600154610302906001600160a01b031681565b6104b8610514366004613cb8565b612da9565b61052c610527366004613d9e565b612e38565b604080519485526020850193909352918301526060820152608001610287565b6102c461055a366004613cb8565b612e7e565b6102a361056d366004613cb8565b612f08565b61027b610580366004613cb8565b60076020526000908152604090205460ff1681565b6102a36105a3366004613cb8565b61308d565b6102c46105b6366004613dd9565b613150565b6102c46105c9366004613d72565b61316b565b6102c46105dc366004613cf5565b6133b0565b61052c6105ef366004613d9e565b613571565b600554610302906001600160a01b031681565b6102a3610615366004613cb8565b61358d565b600080805b6001600160a01b0384166000908152600b60205260409020548110156106dd576001600160a01b0384166000908152600b6020526040812080548390811061066957610669613df6565b90600052602060002090600402016000015411156106cb576001600160a01b0384166000908152600b602052604090208054829081106106ab576106ab613df6565b906000526020600020906004020160000154826106c89190613e22565b91505b806106d581613e3b565b91505061061f565b5092915050565b6106ec613650565b600091825260096020526040909120805460ff1916600190811782550155565b610714613650565b6001600160a01b03166000908152600660205260409020805460ff19169055565b6000805b336000908152600b6020526040902054811015610aa657336000908152600b6020526040812080548390811061077157610771613df6565b9060005260206000209060040201600101541115610a9457336000908152600b602052604090208054829081106107aa576107aa613df6565b9060005260206000209060040201600201544210156109b957336000908152600b602052604081208054839081106107e4576107e4613df6565b906000526020600020906004020160030154600b6000336001600160a01b03166001600160a01b03168152602001908152602001600020838154811061082c5761082c613df6565b9060005260206000209060040201600201546108489190613e54565b336000908152600b60205260408120805492935090918490811061086e5761086e613df6565b9060005260206000209060040201600301544261088b9190613e54565b336000908152600b602052604081208054929350909184918491879081106108b5576108b5613df6565b9060005260206000209060040201600101546108d19190613e67565b6108db9190613e94565b336000908152600b60205260409020805491925082918690811061090157610901613df6565b906000526020600020906004020160010160008282546109219190613e54565b9091555050336000908152600b6020526040902080544291908690811061094a5761094a613df6565b6000918252602080832060036004909302019190910192909255338152600b9091526040902080548590811061098257610982613df6565b9060005260206000209060040201600101546000036109a5576109a533856136cc565b6109af8186613e22565b9450505050610a94565b336000908152600b602052604081208054839081106109da576109da613df6565b90600052602060002090600402016001015490506000600b6000336001600160a01b03166001600160a01b031681526020019081526020016000208381548110610a2657610a26613df6565b90600052602060002090600402016001018190555042600b6000336001600160a01b03166001600160a01b031681526020019081526020016000208381548110610a7257610a72613df6565b6000918252602090912060036004909202010155610a908184613e22565b9250505b80610a9e81613e3b565b915050610739565b506000546040516340c10f1960e01b8152336004820152602481018390526001600160a01b03909116906340c10f1990604401600060405180830381600087803b158015610af357600080fd5b505af1158015610b07573d6000803e3d6000fd5b5050505060005b336000908152600b6020526040902054811015610b7b57336000908152600b60205260409020805482908110610b4657610b46613df6565b906000526020600020906004020160010154600003610b6957610b6933826136cc565b80610b7381613e3b565b915050610b0e565b5050565b610b87613650565b6000908152600960205260408120805460ff1916815560010155565b6000805b336000908152600a6020526040902054811015610f1457336000908152600a60205260408120805483908110610bdf57610bdf613df6565b9060005260206000209060040201600101541115610f0257336000908152600a60205260409020805482908110610c1857610c18613df6565b906000526020600020906004020160020154421015610e2757336000908152600a60205260408120805483908110610c5257610c52613df6565b906000526020600020906004020160030154600a6000336001600160a01b03166001600160a01b031681526020019081526020016000208381548110610c9a57610c9a613df6565b906000526020600020906004020160020154610cb69190613e54565b336000908152600a602052604081208054929350909184908110610cdc57610cdc613df6565b90600052602060002090600402016003015442610cf99190613e54565b336000908152600a60205260408120805492935090918491849187908110610d2357610d23613df6565b906000526020600020906004020160010154610d3f9190613e67565b610d499190613e94565b336000908152600a602052604090208054919250829186908110610d6f57610d6f613df6565b90600052602060002090600402016001016000828254610d8f9190613e54565b9091555050336000908152600a60205260409020805442919086908110610db857610db8613df6565b6000918252602080832060036004909302019190910192909255338152600a90915260409020805485908110610df057610df0613df6565b906000526020600020906004020160010154600003610e1357610e133385613868565b610e1d8186613e22565b9450505050610f02565b336000908152600a60205260408120805483908110610e4857610e48613df6565b90600052602060002090600402016001015490506000600a6000336001600160a01b03166001600160a01b031681526020019081526020016000208381548110610e9457610e94613df6565b90600052602060002090600402016001018190555042600a6000336001600160a01b03166001600160a01b031681526020019081526020016000208381548110610ee057610ee0613df6565b6000918252602090912060036004909202010155610efe8184613e22565b9250505b80610f0c81613e3b565b915050610ba7565b5060005b336000908152600b602052604090205481101561128557336000908152600b60205260408120805483908110610f5057610f50613df6565b906000526020600020906004020160010154111561127357336000908152600b60205260409020805482908110610f8957610f89613df6565b90600052602060002090600402016002015442101561119857336000908152600b60205260408120805483908110610fc357610fc3613df6565b906000526020600020906004020160030154600b6000336001600160a01b03166001600160a01b03168152602001908152602001600020838154811061100b5761100b613df6565b9060005260206000209060040201600201546110279190613e54565b336000908152600b60205260408120805492935090918490811061104d5761104d613df6565b9060005260206000209060040201600301544261106a9190613e54565b336000908152600b6020526040812080549293509091849184918790811061109457611094613df6565b9060005260206000209060040201600101546110b09190613e67565b6110ba9190613e94565b336000908152600b6020526040902080549192508291869081106110e0576110e0613df6565b906000526020600020906004020160010160008282546111009190613e54565b9091555050336000908152600b6020526040902080544291908690811061112957611129613df6565b6000918252602080832060036004909302019190910192909255338152600b9091526040902080548590811061116157611161613df6565b9060005260206000209060040201600101546000036111845761118433856136cc565b61118e8186613e22565b9450505050611273565b336000908152600b602052604081208054839081106111b9576111b9613df6565b90600052602060002090600402016001015490506000600b6000336001600160a01b03166001600160a01b03168152602001908152602001600020838154811061120557611205613df6565b90600052602060002090600402016001018190555042600b6000336001600160a01b03166001600160a01b03168152602001908152602001600020838154811061125157611251613df6565b600091825260209091206003600490920201015561126f8184613e22565b9250505b8061127d81613e3b565b915050610f18565b506000546040516340c10f1960e01b8152336004820152602481018390526001600160a01b03909116906340c10f1990604401600060405180830381600087803b1580156112d257600080fd5b505af11580156112e6573d6000803e3d6000fd5b5050505060005b336000908152600a602052604090205481101561135a57336000908152600a6020526040902080548290811061132557611325613df6565b906000526020600020906004020160010154600003611348576113483382613868565b8061135281613e3b565b9150506112ed565b5060005b336000908152600b6020526040902054811015610b7b57336000908152600b6020526040902080548290811061139657611396613df6565b9060005260206000209060040201600101546000036113b9576113b933826136cc565b806113c381613e3b565b91505061135e565b600080805b6001600160a01b0384166000908152600b60205260409020548110156106dd576001600160a01b0384166000908152600b6020526040812080548390811061141a5761141a613df6565b906000526020600020906004020160010154111561147c576001600160a01b0384166000908152600b6020526040902080548290811061145c5761145c613df6565b906000526020600020906004020160010154826114799190613e22565b91505b8061148681613e3b565b9150506113d0565b611496613650565b806000036114f75760405162461bcd60e51b8152602060048201526024808201527f4261736520726567697374657220616d6f756e742063616e206e6f74206265206044820152637a65726f60e01b60648201526084015b60405180910390fd5b600355565b600080805b6001600160a01b0384166000908152600a60205260409020548110156115bf576001600160a01b0384166000908152600a6020526040812080548390811061154b5761154b613df6565b90600052602060002090600402016001015411156115ad576001600160a01b0384166000908152600a6020526040902080548290811061158d5761158d613df6565b906000526020600020906004020160010154826115aa9190613e22565b91505b806115b781613e3b565b915050611501565b5060005b6001600160a01b0384166000908152600b60205260409020548110156106dd576001600160a01b0384166000908152600b6020526040812080548390811061160d5761160d613df6565b906000526020600020906004020160010154111561166f576001600160a01b0384166000908152600b6020526040902080548290811061164f5761164f613df6565b9060005260206000209060040201600101548261166c9190613e22565b91505b8061167981613e3b565b9150506115c3565b600080805b6001600160a01b0384166000908152600a60205260409020548110156118d9576001600160a01b0384166000908152600a602052604081208054839081106116d0576116d0613df6565b90600052602060002090600402016001015411156118c7576001600160a01b0384166000908152600a6020526040902080548290811061171257611712613df6565b90600052602060002090600402016002015442101561187d576001600160a01b0384166000908152600a6020526040812080548390811061175557611755613df6565b906000526020600020906004020160030154600a6000876001600160a01b03166001600160a01b03168152602001908152602001600020838154811061179d5761179d613df6565b9060005260206000209060040201600201546117b99190613e54565b6001600160a01b0386166000908152600a6020526040812080549293509091849081106117e8576117e8613df6565b906000526020600020906004020160030154426118059190613e54565b905060008282600a60008a6001600160a01b03166001600160a01b03168152602001908152602001600020868154811061184157611841613df6565b90600052602060002090600402016001015461185d9190613e67565b6118679190613e94565b90506118738186613e22565b94505050506118c7565b6001600160a01b0384166000908152600a602052604090208054829081106118a7576118a7613df6565b906000526020600020906004020160010154826118c49190613e22565b91505b806118d181613e3b565b915050611686565b5060005b6001600160a01b0384166000908152600b60205260409020548110156106dd576001600160a01b0384166000908152600b6020526040812080548390811061192757611927613df6565b9060005260206000209060040201600101541115611b1e576001600160a01b0384166000908152600b6020526040902080548290811061196957611969613df6565b906000526020600020906004020160020154421015611ad4576001600160a01b0384166000908152600b602052604081208054839081106119ac576119ac613df6565b906000526020600020906004020160030154600b6000876001600160a01b03166001600160a01b0316815260200190815260200160002083815481106119f4576119f4613df6565b906000526020600020906004020160020154611a109190613e54565b6001600160a01b0386166000908152600b602052604081208054929350909184908110611a3f57611a3f613df6565b90600052602060002090600402016003015442611a5c9190613e54565b905060008282600b60008a6001600160a01b03166001600160a01b031681526020019081526020016000208681548110611a9857611a98613df6565b906000526020600020906004020160010154611ab49190613e67565b611abe9190613e94565b9050611aca8186613e22565b9450505050611b1e565b6001600160a01b0384166000908152600b60205260409020805482908110611afe57611afe613df6565b90600052602060002090600402016001015482611b1b9190613e22565b91505b80611b2881613e3b565b9150506118dd565b611b38613650565b600255565b611b45613650565b6001600160a01b03166000908152600660205260409020805460ff19166001179055565b6000805b336000908152600a6020526040902054811015611eda57336000908152600a60205260408120805483908110611ba557611ba5613df6565b9060005260206000209060040201600101541115611ec857336000908152600a60205260409020805482908110611bde57611bde613df6565b906000526020600020906004020160020154421015611ded57336000908152600a60205260408120805483908110611c1857611c18613df6565b906000526020600020906004020160030154600a6000336001600160a01b03166001600160a01b031681526020019081526020016000208381548110611c6057611c60613df6565b906000526020600020906004020160020154611c7c9190613e54565b336000908152600a602052604081208054929350909184908110611ca257611ca2613df6565b90600052602060002090600402016003015442611cbf9190613e54565b336000908152600a60205260408120805492935090918491849187908110611ce957611ce9613df6565b906000526020600020906004020160010154611d059190613e67565b611d0f9190613e94565b336000908152600a602052604090208054919250829186908110611d3557611d35613df6565b90600052602060002090600402016001016000828254611d559190613e54565b9091555050336000908152600a60205260409020805442919086908110611d7e57611d7e613df6565b6000918252602080832060036004909302019190910192909255338152600a90915260409020805485908110611db657611db6613df6565b906000526020600020906004020160010154600003611dd957611dd93385613868565b611de38186613e22565b9450505050611ec8565b336000908152600a60205260408120805483908110611e0e57611e0e613df6565b90600052602060002090600402016001015490506000600a6000336001600160a01b03166001600160a01b031681526020019081526020016000208381548110611e5a57611e5a613df6565b90600052602060002090600402016001018190555042600a6000336001600160a01b03166001600160a01b031681526020019081526020016000208381548110611ea657611ea6613df6565b6000918252602090912060036004909202010155611ec48184613e22565b9250505b80611ed281613e3b565b915050611b6d565b506000546040516340c10f1960e01b8152336004820152602481018390526001600160a01b03909116906340c10f1990604401600060405180830381600087803b158015611f2757600080fd5b505af1158015611f3b573d6000803e3d6000fd5b5050505060005b336000908152600a6020526040902054811015610b7b57336000908152600a60205260409020805482908110611f7a57611f7a613df6565b906000526020600020906004020160010154600003611f9d57611f9d3382613868565b80611fa781613e3b565b915050611f42565b611fb7613650565b33600090815260066020526040808220805460ff199081169091556001600160a01b03939093168252902080549091166001179055565b611ff6613650565b6001600160a01b03811661205b5760405162461bcd60e51b815260206004820152602660248201527f507572636861736520746f6b656e2063616e206e6f74206265207a65726f206160448201526564647265737360d01b60648201526084016114ee565b600180546001600160a01b0319166001600160a01b0392909216919091179055565b6001600160a01b0381166000908152600a60209081526040808320805482518185028101850190935280835260609492939192909184015b8282101561210f5783829060005260206000209060040201604051806080016040529081600082015481526020016001820154815260200160028201548152602001600382015481525050815260200190600101906120b5565b505050509050919050565b612122613650565b600580546001600160a01b0319166001600160a01b0392909216919091179055565b3360009081526007602052604090205460ff1615156001146121a15760405162461bcd60e51b8152602060048201526016602482015275165bdd48185c99481b9bdd081c9959da5cdd195c995960521b60448201526064016114ee565b6001600160a01b0381161561221d576001600160a01b03811660009081526007602052604090205460ff16151560011461221d5760405162461bcd60e51b815260206004820152601c60248201527f596f7572207265666572206973206e6f7420726567697374657265640000000060448201526064016114ee565b6000612227612cb0565b9050670d2f13f7789f00008110156122515760405162461bcd60e51b81526004016114ee90613ea8565b6001546040805163313ce56760e01b815290516000926001600160a01b03169163313ce5679160048083019260209291908290030181865afa15801561229b573d6000803e3d6000fd5b505050506040513d601f19601f820116820180604052508101906122bf9190613edf565b60ff169050336001600160a01b038416036122ec5760405162461bcd60e51b81526004016114ee90613f02565b6001546040516370a0823160e01b815233600482015285916001600160a01b0316906370a0823190602401602060405180830381865afa158015612334573d6000803e3d6000fd5b505050506040513d601f19601f820116820180604052508101906123589190613f45565b10156123765760405162461bcd60e51b81526004016114ee90613f5e565b60025460009061238e86670de0b6b3a7640000613e67565b6123989190613e94565b9050600060025483600a6123ac9190614091565b6123b8906103e8613e67565b6123ca90670de0b6b3a7640000613e67565b6123d49190613e94565b60085490915060ff1615156001036125dd5760008681526009602052604090205460ff166124535760405162461bcd60e51b815260206004820152602660248201527f5468697320737461626c6520636f696e20616d6f756e74206973206e6f7420616044820152651b1b1bddd95960d21b60648201526084016114ee565b60025460008781526009602052604081206001015490919061247d90670de0b6b3a7640000613e67565b6124879190613e94565b6000549091506001600160a01b03166340c10f193360646124a985600a613e67565b6124b39190613e94565b6040516001600160e01b031960e085901b1681526001600160a01b0390921660048301526024820152604401600060405180830381600087803b1580156124f957600080fd5b505af115801561250d573d6000803e3d6000fd5b505060015460055461253093506001600160a01b0391821692503391168a6139d4565b336000908152600a6020526040908190208151608081019092529080606461255985605a613e67565b6125639190613e94565b8152602001606461257585605a613e67565b61257f9190613e94565b8152602001612592426305a39a80613e22565b81524260209182015282546001818101855560009485529382902083516004909202019081559082015192810192909255604081015160028301556060015160039091015550612660565b6000546040516340c10f1960e01b8152336004820152602481018490526001600160a01b03909116906340c10f1990604401600060405180830381600087803b15801561262957600080fd5b505af115801561263d573d6000803e3d6000fd5b505060015460055461266093506001600160a01b039182169250339116896139d4565b6001600160a01b03851615612ca857336000908152600c602052604080822080546001600160a01b0319166001600160a01b038981169182179092558084528284205482168085528385205483168086529390942054899493921690158015906127365750600080546040516370a0823160e01b81526001600160a01b038781166004830152909116906370a0823190602401602060405180830381865afa158015612710573d6000803e3d6000fd5b505050506040513d601f19601f820116820180604052508101906127349190613f45565b115b156128d1576000546001600160a01b03166340c10f1985876127608a674563918244f40000613e67565b61276a9190613e94565b6040516001600160e01b031960e085901b1681526001600160a01b0390921660048301526024820152604401600060405180830381600087803b1580156127b057600080fd5b505af11580156127c4573d6000803e3d6000fd5b505050508486674563918244f400006127dd9190613e67565b6127e79190613e94565b6001600160a01b0385166000908152600d60205260408120805490919061280f908490613e22565b90915550506001600160a01b0384166000908152600b60205260409081902081516080810190925290808761284c8a6783d6c7aab6360000613e67565b6128569190613e94565b81526020018761286e8a6783d6c7aab6360000613e67565b6128789190613e94565b815260200161288b426305a39a80613e22565b8152426020918201528254600181810185556000948552938290208351600490920201908155908201519281019290925560408101516002830155606001516003909101555b6001600160a01b038316158015906129555750600080546040516370a0823160e01b81526001600160a01b038681166004830152909116906370a0823190602401602060405180830381865afa15801561292f573d6000803e3d6000fd5b505050506040513d601f19601f820116820180604052508101906129539190613f45565b115b15612a17576001600160a01b0383166000908152600b6020526040908190208151608081019092529080876129928a6768155a43676e0000613e67565b61299c9190613e94565b8152602001876129b48a6768155a43676e0000613e67565b6129be9190613e94565b81526020016129d1426305a39a80613e22565b8152426020918201528254600181810185556000948552938290208351600490920201908155908201519281019290925560408101516002830155606001516003909101555b6001600160a01b03821615801590612a9b5750600080546040516370a0823160e01b81526001600160a01b038581166004830152909116906370a0823190602401602060405180830381865afa158015612a75573d6000803e3d6000fd5b505050506040513d601f19601f82011682018060405250810190612a999190613f45565b115b15612b5d576001600160a01b0382166000908152600b602052604090819020815160808101909252908087612ad88a6753444835ec580000613e67565b612ae29190613e94565b815260200187612afa8a6753444835ec580000613e67565b612b049190613e94565b8152602001612b17426305a39a80613e22565b8152426020918201528254600181810185556000948552938290208351600490920201908155908201519281019290925560408101516002830155606001516003909101555b6001600160a01b03811615801590612be15750600080546040516370a0823160e01b81526001600160a01b038481166004830152909116906370a0823190602401602060405180830381865afa158015612bbb573d6000803e3d6000fd5b505050506040513d601f19601f82011682018060405250810190612bdf9190613f45565b115b15612ca3576001600160a01b0381166000908152600b602052604090819020815160808101909252908087612c1e8a673782dace9d900000613e67565b612c289190613e94565b815260200187612c408a673782dace9d900000613e67565b612c4a9190613e94565b8152602001612c5d426305a39a80613e22565b8152426020918201528254600181810185556000948552938290208351600490920201908155908201519281019290925560408101516002830155606001516003909101555b505050505b505050505050565b6004805460408051633fabe5a360e21b8152905160009384936001600160a01b03169263feaf968c928183019260a0928290030181865afa158015612cf9573d6000803e3d6000fd5b505050506040513d601f19601f82011682018060405250810190612d1d91906140b7565b5050600480546040805163313ce56760e01b81529051949650600095506001600160a01b039091169363313ce5679350818301926020928290030181865afa158015612d6d573d6000803e3d6000fd5b505050506040513d601f19601f82011682018060405250810190612d919190613edf565b90506000612da183836012613a34565b949350505050565b6001600160a01b0381166000908152600b6020908152604080832080548251818502810185019093528083526060949293919290918401821561210f5783829060005260206000209060040201604051806080016040529081600082015481526020016001820154815260200160028201548152602001600382015481525050815260200190600101906120b5565b600a6020528160005260406000208181548110612e5457600080fd5b60009182526020909120600490910201805460018201546002830154600390930154919450925084565b612e86613650565b6001600160a01b038116612ee65760405162461bcd60e51b815260206004820152602160248201527f43424420746f6b656e2063616e206e6f74206265207a65726f206164647265736044820152607360f81b60648201526084016114ee565b600080546001600160a01b0319166001600160a01b0392909216919091179055565b600080805b6001600160a01b0384166000908152600a6020526040902054811015612fcb576001600160a01b0384166000908152600a60205260408120805483908110612f5757612f57613df6565b9060005260206000209060040201600001541115612fb9576001600160a01b0384166000908152600a60205260409020805482908110612f9957612f99613df6565b90600052602060002090600402016000015482612fb69190613e22565b91505b80612fc381613e3b565b915050612f0d565b5060005b6001600160a01b0384166000908152600b60205260409020548110156106dd576001600160a01b0384166000908152600b6020526040812080548390811061301957613019613df6565b906000526020600020906004020160000154111561307b576001600160a01b0384166000908152600b6020526040902080548290811061305b5761305b613df6565b906000526020600020906004020160000154826130789190613e22565b91505b8061308581613e3b565b915050612fcf565b600080805b6001600160a01b0384166000908152600a60205260409020548110156106dd576001600160a01b0384166000908152600a602052604081208054839081106130dc576130dc613df6565b906000526020600020906004020160010154111561313e576001600160a01b0384166000908152600a6020526040902080548290811061311e5761311e613df6565b9060005260206000209060040201600101548261313b9190613e22565b91505b8061314881613e3b565b915050613092565b613158613650565b6008805460ff1916911515919091179055565b6001600160a01b038116156131e7576001600160a01b03811660009081526007602052604090205460ff1615156001146131e75760405162461bcd60e51b815260206004820152601c60248201527f596f7572207265666572206973206e6f7420726567697374657265640000000060448201526064016114ee565b6003548210156132545760405162461bcd60e51b815260206004820152603260248201527f596f757220616d6f756e74206973206c6f776572207468616e207468652062616044820152711cd9481c9959da5cdd195c88185b5bdd5b9d60721b60648201526084016114ee565b600061325e612cb0565b9050670d2f13f7789f00008110156132885760405162461bcd60e51b81526004016114ee90613ea8565b336001600160a01b038316036132b05760405162461bcd60e51b81526004016114ee90613f02565b6001546040516370a0823160e01b815233600482015284916001600160a01b0316906370a0823190602401602060405180830381865afa1580156132f8573d6000803e3d6000fd5b505050506040513d601f19601f8201168201806040525081019061331c9190613f45565b101561333a5760405162461bcd60e51b81526004016114ee90613f5e565b600154600554613359916001600160a01b0390811691339116866139d4565b336000908152600760205260409020805460ff191660011790556001600160a01b038216156133ab57336000908152600c6020526040902080546001600160a01b0319166001600160a01b0384161790555b505050565b3360009081526007602052604090205460ff16151560011461340d5760405162461bcd60e51b8152602060048201526016602482015275165bdd48185c99481b9bdd081c9959da5cdd195c995960521b60448201526064016114ee565b6000613417612cb0565b9050670d2f13f7789f00008110156134415760405162461bcd60e51b81526004016114ee90613ea8565b6001546040516370a0823160e01b815233600482015283916001600160a01b0316906370a0823190602401602060405180830381865afa158015613489573d6000803e3d6000fd5b505050506040513d601f19601f820116820180604052508101906134ad9190613f45565b10156134cb5760405162461bcd60e51b81526004016114ee90613f5e565b6002546000906134e384670de0b6b3a7640000613e67565b6134ed9190613e94565b6000546040516340c10f1960e01b8152336004820152602481018390529192506001600160a01b0316906340c10f1990604401600060405180830381600087803b15801561353a57600080fd5b505af115801561354e573d6000803e3d6000fd5b50506001546005546133ab93506001600160a01b039182169250339116866139d4565b600b6020528160005260406000208181548110612e5457600080fd5b600080805b6001600160a01b0384166000908152600a60205260409020548110156106dd576001600160a01b0384166000908152600a602052604081208054839081106135dc576135dc613df6565b906000526020600020906004020160000154111561363e576001600160a01b0384166000908152600a6020526040902080548290811061361e5761361e613df6565b9060005260206000209060040201600001548261363b9190613e22565b91505b8061364881613e3b565b915050613592565b3360009081526006602052604090205460ff166136ca5760405162461bcd60e51b815260206004820152603260248201527f4f776e61626c655f4469737472696275746f723a2063616c6c6572206973206e6044820152716f742066726f6d20746865206f776e65727360701b60648201526084016114ee565b565b805b6001600160a01b0383166000908152600b60205260409020546136f390600190613e54565b8110156137b5576001600160a01b0383166000908152600b6020526040902061371d826001613e22565b8154811061372d5761372d613df6565b9060005260206000209060040201600b6000856001600160a01b03166001600160a01b03168152602001908152602001600020828154811061377157613771613df6565b6000918252602090912082546004909202019081556001808301549082015560028083015490820155600391820154910155806137ad81613e3b565b9150506136ce565b506001600160a01b0382166000908152600b6020526040902080546137dc90600190613e54565b815481106137ec576137ec613df6565b60009182526020808320600490920290910182815560018101839055600281018390556003018290556001600160a01b0384168252600b90526040902080548061383857613838614107565b60008281526020812060046000199093019283020181815560018101829055600281018290556003015590555050565b805b6001600160a01b0383166000908152600a602052604090205461388f90600190613e54565b811015613951576001600160a01b0383166000908152600a602052604090206138b9826001613e22565b815481106138c9576138c9613df6565b9060005260206000209060040201600a6000856001600160a01b03166001600160a01b03168152602001908152602001600020828154811061390d5761390d613df6565b60009182526020909120825460049092020190815560018083015490820155600280830154908201556003918201549101558061394981613e3b565b91505061386a565b506001600160a01b0382166000908152600a60205260409020805461397890600190613e54565b8154811061398857613988613df6565b60009182526020808320600490920290910182815560018101839055600281018390556003018290556001600160a01b0384168252600a90526040902080548061383857613838614107565b604080516001600160a01b0385811660248301528416604482015260648082018490528251808303909101815260849091019091526020810180516001600160e01b03166323b872dd60e01b179052613a2e908590613aa7565b50505050565b60008160ff168360ff161015613a6d57613a4e838361411d565b613a5c9060ff16600a614091565b613a669085614136565b9050613aa0565b8160ff168360ff161115613a9d57613a85828461411d565b613a939060ff16600a614091565b613a669085614166565b50825b9392505050565b6000613afc826040518060400160405280602081526020017f5361666545524332303a206c6f772d6c6576656c2063616c6c206661696c6564815250856001600160a01b0316613b799092919063ffffffff16565b8051909150156133ab5780806020019051810190613b1a9190614194565b6133ab5760405162461bcd60e51b815260206004820152602a60248201527f5361666545524332303a204552433230206f7065726174696f6e20646964206e6044820152691bdd081cdd58d8d9595960b21b60648201526084016114ee565b6060612da1848460008585600080866001600160a01b03168587604051613ba091906141d5565b60006040518083038185875af1925050503d8060008114613bdd576040519150601f19603f3d011682016040523d82523d6000602084013e613be2565b606091505b5091509150613bf387838387613bfe565b979650505050505050565b60608315613c6d578251600003613c66576001600160a01b0385163b613c665760405162461bcd60e51b815260206004820152601d60248201527f416464726573733a2063616c6c20746f206e6f6e2d636f6e747261637400000060448201526064016114ee565b5081612da1565b612da18383815115613c825781518083602001fd5b8060405162461bcd60e51b81526004016114ee91906141f1565b80356001600160a01b0381168114613cb357600080fd5b919050565b600060208284031215613cca57600080fd5b613aa082613c9c565b60008060408385031215613ce657600080fd5b50508035926020909101359150565b600060208284031215613d0757600080fd5b5035919050565b602080825282518282018190526000919060409081850190868401855b82811015613d6557815180518552868101518786015285810151868601526060908101519085015260809093019290850190600101613d2b565b5091979650505050505050565b60008060408385031215613d8557600080fd5b82359150613d9560208401613c9c565b90509250929050565b60008060408385031215613db157600080fd5b613dba83613c9c565b946020939093013593505050565b8015158114613dd657600080fd5b50565b600060208284031215613deb57600080fd5b8135613aa081613dc8565b634e487b7160e01b600052603260045260246000fd5b634e487b7160e01b600052601160045260246000fd5b80820180821115613e3557613e35613e0c565b92915050565b600060018201613e4d57613e4d613e0c565b5060010190565b81810381811115613e3557613e35613e0c565b8082028115828204841417613e3557613e35613e0c565b634e487b7160e01b600052601260045260246000fd5b600082613ea357613ea3613e7e565b500490565b6020808252601e908201527f55534443207072696365206973206e6f742061626f766520302e393520240000604082015260600190565b600060208284031215613ef157600080fd5b815160ff81168114613aa057600080fd5b60208082526023908201527f596f752063616e27742070757420796f757220616464726573732061732072656040820152623332b960e91b606082015260800190565b600060208284031215613f5757600080fd5b5051919050565b6020808252602f908201527f596f7520646f6e2774206861766520656e6f75676820737461626c65636f696e60408201526e2062616c616e636520746f2062757960881b606082015260800190565b600181815b80851115613fe8578160001904821115613fce57613fce613e0c565b80851615613fdb57918102915b93841c9390800290613fb2565b509250929050565b600082613fff57506001613e35565b8161400c57506000613e35565b8160018114614022576002811461402c57614048565b6001915050613e35565b60ff84111561403d5761403d613e0c565b50506001821b613e35565b5060208310610133831016604e8410600b841016171561406b575081810a613e35565b6140758383613fad565b806000190482111561408957614089613e0c565b029392505050565b6000613aa08383613ff0565b805169ffffffffffffffffffff81168114613cb357600080fd5b600080600080600060a086880312156140cf57600080fd5b6140d88661409d565b94506020860151935060408601519250606086015191506140fb6080870161409d565b90509295509295909350565b634e487b7160e01b600052603160045260246000fd5b60ff8281168282160390811115613e3557613e35613e0c565b80820260008212600160ff1b8414161561415257614152613e0c565b8181058314821517613e3557613e35613e0c565b60008261417557614175613e7e565b600160ff1b82146000198414161561418f5761418f613e0c565b500590565b6000602082840312156141a657600080fd5b8151613aa081613dc8565b60005b838110156141cc5781810151838201526020016141b4565b50506000910152565b600082516141e78184602087016141b1565b9190910192915050565b60208152600082518060208401526142108160408501602087016141b1565b601f01601f1916919091016040019291505056fea26469706673582212204cc8f9cf3967c15b486e154445daedc5135dc05eb23cac65bfa44f165f73166364736f6c63430008110033",
    "linkReferences": {}
  },
  "methodIdentifiers": {
    "addOwner(address)": "7065cb48",
    "admin()": "f851a440",
    "allPurchaseRewardAmounts(address)": "cf7b5ea9",
    "allPurchaseTotalRewardAmounts(address)": "fe08c5ac",
    "allReferRewardAmounts(address)": "510bbe69",
    "allReferTotalRewardAmounts(address)": "0505cadb",
    "allRewardAmounts(address)": "68c95f09",
    "allTotalRewardAmounts(address)": "b6f6fbd9",
    "allowedAmounts(uint256)": "772f4427",
    "anableAllawanceForAmount(uint256,uint256)": "1547e29d",
    "baseRegisterAmount()": "3a8ce33c",
    "buyToken(uint256,address)": "9134709e",
    "buyTokenWhitoutRef(uint256)": "e174a9c4",
    "cbdToken()": "36f1187f",
    "changeAdmin(address)": "8f283970",
    "changeAllowAmountsActivation(bool)": "d895acb8",
    "claimPurchaseRewards()": "77218187",
    "claimReferRewards()": "1dfebd12",
    "claimRewards()": "372500ab",
    "disableAllawanceForAmount(uint256)": "352d80e0",
    "getOracleUsdcPrice()": "981a6ea3",
    "getUnclaimedRewards(address)": "69a69e29",
    "instantReferRewardHistory(address)": "6fc98615",
    "isOwner(address)": "2f54bf6e",
    "isRegistered(address)": "c3c5a547",
    "owners(address)": "022914a7",
    "priceFeed()": "741bef1a",
    "purchaseRewards(address,uint256)": "b43ec334",
    "purchaseToken()": "a95c4d62",
    "refer(address)": "1d509afd",
    "referRewards(address,uint256)": "e1a5df79",
    "register(uint256,address)": "dbbdf083",
    "removeOwner(address)": "173825d9",
    "setBaseRegisterAmount(uint256)": "689ae9bf",
    "setCBDToken(address)": "b4e3934d",
    "setPurchaseToken(address)": "8456bd2e",
    "setTokenPrice(uint256)": "6a61e5fc",
    "tokenPrice()": "7ff9b596",
    "transferUserOwnership(address)": "7cdfecdb",
    "userPurchaseRewards(address)": "8a8c7e46",
    "userReferRewards(address)": "b3803510"
  },
  "id": 1
}