{
  "abi": [
    {
      "inputs": [
        {
          "internalType": "address",
          "name": "_cbdToken",
          "type": "address"
        },
        {
          "internalType": "address",
          "name": "_purchaseToken",
          "type": "address"
        },
        {
          "internalType": "uint256",
          "name": "_tokenPrice",
          "type": "uint256"
        },
        {
          "internalType": "address",
          "name": "_priceFeed",
          "type": "address"
        }
      ],
      "stateMutability": "nonpayable",
      "type": "constructor"
    },
    {
      "anonymous": false,
      "inputs": [
        {
          "indexed": false,
          "internalType": "address",
          "name": "_newOwner",
          "type": "address"
        }
      ],
      "name": "AddOwner",
      "type": "event"
    },
    {
      "anonymous": false,
      "inputs": [
        {
          "indexed": false,
          "internalType": "address",
          "name": "_user",
          "type": "address"
        },
        {
          "indexed": false,
          "internalType": "uint256",
          "name": "stableCoinAmount",
          "type": "uint256"
        },
        {
          "indexed": false,
          "internalType": "address",
          "name": "_refer1",
          "type": "address"
        },
        {
          "indexed": false,
          "internalType": "address",
          "name": "_refer2",
          "type": "address"
        },
        {
          "indexed": false,
          "internalType": "address",
          "name": "_refer3",
          "type": "address"
        },
        {
          "indexed": false,
          "internalType": "address",
          "name": "_refer4",
          "type": "address"
        }
      ],
      "name": "BuyToken",
      "type": "event"
    },
    {
      "anonymous": false,
      "inputs": [
        {
          "indexed": false,
          "internalType": "address",
          "name": "_user",
          "type": "address"
        },
        {
          "indexed": false,
          "internalType": "uint256",
          "name": "stableCoinAmount",
          "type": "uint256"
        }
      ],
      "name": "BuyTokenWithoutRef",
      "type": "event"
    },
    {
      "anonymous": false,
      "inputs": [
        {
          "indexed": false,
          "internalType": "address",
          "name": "_newAdmin",
          "type": "address"
        }
      ],
      "name": "ChangeAdmin",
      "type": "event"
    },
    {
      "anonymous": false,
      "inputs": [
        {
          "indexed": false,
          "internalType": "bool",
          "name": "_status",
          "type": "bool"
        }
      ],
      "name": "ChangeAllowAmountsActivation",
      "type": "event"
    },
    {
      "anonymous": false,
      "inputs": [
        {
          "indexed": false,
          "internalType": "address",
          "name": "_user",
          "type": "address"
        }
      ],
      "name": "ClaimPurchaseRewards",
      "type": "event"
    },
    {
      "anonymous": false,
      "inputs": [
        {
          "indexed": false,
          "internalType": "address",
          "name": "_user",
          "type": "address"
        }
      ],
      "name": "ClaimReferRewards",
      "type": "event"
    },
    {
      "anonymous": false,
      "inputs": [
        {
          "indexed": false,
          "internalType": "address",
          "name": "_user",
          "type": "address"
        }
      ],
      "name": "ClaimRewards",
      "type": "event"
    },
    {
      "anonymous": false,
      "inputs": [
        {
          "indexed": false,
          "internalType": "uint256",
          "name": "_amount",
          "type": "uint256"
        }
      ],
      "name": "DisableAllawanceForAmount",
      "type": "event"
    },
    {
      "anonymous": false,
      "inputs": [
        {
          "indexed": false,
          "internalType": "uint256",
          "name": "_amount",
          "type": "uint256"
        },
        {
          "indexed": false,
          "internalType": "uint256",
          "name": "_totalRewardByAmount",
          "type": "uint256"
        }
      ],
      "name": "EnableAllawanceForAmount",
      "type": "event"
    },
    {
      "anonymous": false,
      "inputs": [
        {
          "indexed": false,
          "internalType": "address",
          "name": "_user",
          "type": "address"
        },
        {
          "indexed": false,
          "internalType": "uint256",
          "name": "_stableCointAmount",
          "type": "uint256"
        },
        {
          "indexed": false,
          "internalType": "address",
          "name": "_refer",
          "type": "address"
        }
      ],
      "name": "Register",
      "type": "event"
    },
    {
      "anonymous": false,
      "inputs": [
        {
          "indexed": false,
          "internalType": "address",
          "name": "_removedOwner",
          "type": "address"
        }
      ],
      "name": "RemoveOwner",
      "type": "event"
    },
    {
      "anonymous": false,
      "inputs": [
        {
          "indexed": false,
          "internalType": "uint256",
          "name": "_baseRegisterAmount",
          "type": "uint256"
        }
      ],
      "name": "SetBaseRegisterAmount",
      "type": "event"
    },
    {
      "anonymous": false,
      "inputs": [
        {
          "indexed": false,
          "internalType": "address",
          "name": "_CBDToken",
          "type": "address"
        }
      ],
      "name": "SetCBDToken",
      "type": "event"
    },
    {
      "anonymous": false,
      "inputs": [
        {
          "indexed": false,
          "internalType": "address",
          "name": "_newToken",
          "type": "address"
        }
      ],
      "name": "SetPurchaseToken",
      "type": "event"
    },
    {
      "anonymous": false,
      "inputs": [
        {
          "indexed": false,
          "internalType": "uint256",
          "name": "_newTokenPrice",
          "type": "uint256"
        }
      ],
      "name": "SetTokenPrice",
      "type": "event"
    },
    {
      "anonymous": false,
      "inputs": [
        {
          "indexed": false,
          "internalType": "address",
          "name": "_from",
          "type": "address"
        },
        {
          "indexed": false,
          "internalType": "address",
          "name": "_to",
          "type": "address"
        }
      ],
      "name": "TransferUserOwnership",
      "type": "event"
    },
    {
      "inputs": [
        {
          "internalType": "address",
          "name": "_newOwner",
          "type": "address"
        }
      ],
      "name": "addOwner",
      "outputs": [],
      "stateMutability": "nonpayable",
      "type": "function"
    },
    {
      "inputs": [],
      "name": "admin",
      "outputs": [
        {
          "internalType": "address",
          "name": "",
          "type": "address"
        }
      ],
      "stateMutability": "view",
      "type": "function"
    },
    {
      "inputs": [
        {
          "internalType": "address",
          "name": "_user",
          "type": "address"
        }
      ],
      "name": "allCb2RewardAmounts",
      "outputs": [
        {
          "internalType": "uint256",
          "name": "",
          "type": "uint256"
        }
      ],
      "stateMutability": "view",
      "type": "function"
    },
    {
      "inputs": [
        {
          "internalType": "address",
          "name": "_user",
          "type": "address"
        }
      ],
      "name": "allPurchaseRewardAmounts",
      "outputs": [
        {
          "internalType": "uint256",
          "name": "",
          "type": "uint256"
        }
      ],
      "stateMutability": "view",
      "type": "function"
    },
    {
      "inputs": [
        {
          "internalType": "address",
          "name": "_user",
          "type": "address"
        }
      ],
      "name": "allPurchaseTotalRewardAmounts",
      "outputs": [
        {
          "internalType": "uint256",
          "name": "",
          "type": "uint256"
        }
      ],
      "stateMutability": "view",
      "type": "function"
    },
    {
      "inputs": [
        {
          "internalType": "address",
          "name": "_user",
          "type": "address"
        }
      ],
      "name": "allReferRewardAmounts",
      "outputs": [
        {
          "internalType": "uint256",
          "name": "",
          "type": "uint256"
        }
      ],
      "stateMutability": "view",
      "type": "function"
    },
    {
      "inputs": [
        {
          "internalType": "address",
          "name": "_user",
          "type": "address"
        }
      ],
      "name": "allReferTotalRewardAmounts",
      "outputs": [
        {
          "internalType": "uint256",
          "name": "",
          "type": "uint256"
        }
      ],
      "stateMutability": "view",
      "type": "function"
    },
    {
      "inputs": [
        {
          "internalType": "address",
          "name": "_user",
          "type": "address"
        }
      ],
      "name": "allRewardAmounts",
      "outputs": [
        {
          "internalType": "uint256",
          "name": "",
          "type": "uint256"
        }
      ],
      "stateMutability": "view",
      "type": "function"
    },
    {
      "inputs": [
        {
          "internalType": "address",
          "name": "_user",
          "type": "address"
        }
      ],
      "name": "allTotalRewardAmounts",
      "outputs": [
        {
          "internalType": "uint256",
          "name": "",
          "type": "uint256"
        }
      ],
      "stateMutability": "view",
      "type": "function"
    },
    {
      "inputs": [
        {
          "internalType": "uint256",
          "name": "",
          "type": "uint256"
        }
      ],
      "name": "allowedAmounts",
      "outputs": [
        {
          "internalType": "bool",
          "name": "isAllowed",
          "type": "bool"
        },
        {
          "internalType": "uint256",
          "name": "totalReward",
          "type": "uint256"
        }
      ],
      "stateMutability": "view",
      "type": "function"
    },
    {
      "inputs": [],
      "name": "baseRegisterAmount",
      "outputs": [
        {
          "internalType": "uint256",
          "name": "",
          "type": "uint256"
        }
      ],
      "stateMutability": "view",
      "type": "function"
    },
    {
      "inputs": [
        {
          "internalType": "address",
          "name": "",
          "type": "address"
        }
      ],
      "name": "boughtInvestingHistory",
      "outputs": [
        {
          "internalType": "uint256",
          "name": "",
          "type": "uint256"
        }
      ],
      "stateMutability": "view",
      "type": "function"
    },
    {
      "inputs": [
        {
          "internalType": "address",
          "name": "",
          "type": "address"
        }
      ],
      "name": "boughtMembershipHistory",
      "outputs": [
        {
          "internalType": "uint256",
          "name": "",
          "type": "uint256"
        }
      ],
      "stateMutability": "view",
      "type": "function"
    },
    {
      "inputs": [
        {
          "internalType": "uint256",
          "name": "stableCoinAmount",
          "type": "uint256"
        },
        {
          "internalType": "address",
          "name": "_refer",
          "type": "address"
        }
      ],
      "name": "buyToken",
      "outputs": [],
      "stateMutability": "nonpayable",
      "type": "function"
    },
    {
      "inputs": [
        {
          "internalType": "uint256",
          "name": "stableCoinAmount",
          "type": "uint256"
        }
      ],
      "name": "buyTokenWithoutRef",
      "outputs": [],
      "stateMutability": "nonpayable",
      "type": "function"
    },
    {
      "inputs": [
        {
          "internalType": "address",
          "name": "",
          "type": "address"
        },
        {
          "internalType": "uint256",
          "name": "",
          "type": "uint256"
        }
      ],
      "name": "cbd2Rewards",
      "outputs": [
        {
          "internalType": "uint256",
          "name": "amount",
          "type": "uint256"
        },
        {
          "internalType": "uint256",
          "name": "startTime",
          "type": "uint256"
        },
        {
          "internalType": "uint256",
          "name": "endTime",
          "type": "uint256"
        }
      ],
      "stateMutability": "view",
      "type": "function"
    },
    {
      "inputs": [],
      "name": "cbdToken",
      "outputs": [
        {
          "internalType": "contract CBDToken",
          "name": "",
          "type": "address"
        }
      ],
      "stateMutability": "view",
      "type": "function"
    },
    {
      "inputs": [
        {
          "internalType": "address",
          "name": "_newAdmin",
          "type": "address"
        }
      ],
      "name": "changeAdmin",
      "outputs": [],
      "stateMutability": "nonpayable",
      "type": "function"
    },
    {
      "inputs": [
        {
          "internalType": "bool",
          "name": "_status",
          "type": "bool"
        }
      ],
      "name": "changeAllowAmountsActivation",
      "outputs": [],
      "stateMutability": "nonpayable",
      "type": "function"
    },
    {
      "inputs": [],
      "name": "claimPurchaseRewards",
      "outputs": [],
      "stateMutability": "nonpayable",
      "type": "function"
    },
    {
      "inputs": [],
      "name": "claimReferRewards",
      "outputs": [],
      "stateMutability": "nonpayable",
      "type": "function"
    },
    {
      "inputs": [],
      "name": "claimRewards",
      "outputs": [],
      "stateMutability": "nonpayable",
      "type": "function"
    },
    {
      "inputs": [
        {
          "internalType": "address",
          "name": "",
          "type": "address"
        }
      ],
      "name": "dailyReferRewardHistory",
      "outputs": [
        {
          "internalType": "uint256",
          "name": "",
          "type": "uint256"
        }
      ],
      "stateMutability": "view",
      "type": "function"
    },
    {
      "inputs": [
        {
          "internalType": "uint256",
          "name": "_amount",
          "type": "uint256"
        }
      ],
      "name": "disableAllawanceForAmount",
      "outputs": [],
      "stateMutability": "nonpayable",
      "type": "function"
    },
    {
      "inputs": [
        {
          "internalType": "uint256",
          "name": "_amount",
          "type": "uint256"
        },
        {
          "internalType": "uint256",
          "name": "_totalRewardByAmount",
          "type": "uint256"
        }
      ],
      "name": "enableAllawanceForAmount",
      "outputs": [],
      "stateMutability": "nonpayable",
      "type": "function"
    },
    {
      "inputs": [
        {
          "internalType": "address",
          "name": "_user",
          "type": "address"
        }
      ],
      "name": "getCb2RewardsUntillNow",
      "outputs": [
        {
          "internalType": "uint256",
          "name": "",
          "type": "uint256"
        }
      ],
      "stateMutability": "view",
      "type": "function"
    },
    {
      "inputs": [],
      "name": "getOracleUsdcPrice",
      "outputs": [
        {
          "internalType": "uint256",
          "name": "",
          "type": "uint256"
        }
      ],
      "stateMutability": "view",
      "type": "function"
    },
    {
      "inputs": [
        {
          "internalType": "address",
          "name": "_user",
          "type": "address"
        }
      ],
      "name": "getUnclaimedRewards",
      "outputs": [
        {
          "internalType": "uint256",
          "name": "",
          "type": "uint256"
        }
      ],
      "stateMutability": "view",
      "type": "function"
    },
    {
      "inputs": [
        {
          "internalType": "address",
          "name": "",
          "type": "address"
        }
      ],
      "name": "instantReferRewardHistory",
      "outputs": [
        {
          "internalType": "uint256",
          "name": "",
          "type": "uint256"
        }
      ],
      "stateMutability": "view",
      "type": "function"
    },
    {
      "inputs": [
        {
          "internalType": "address",
          "name": "_user",
          "type": "address"
        }
      ],
      "name": "isOwner",
      "outputs": [
        {
          "internalType": "bool",
          "name": "",
          "type": "bool"
        }
      ],
      "stateMutability": "view",
      "type": "function"
    },
    {
      "inputs": [
        {
          "internalType": "address",
          "name": "",
          "type": "address"
        }
      ],
      "name": "isRegistered",
      "outputs": [
        {
          "internalType": "bool",
          "name": "",
          "type": "bool"
        }
      ],
      "stateMutability": "view",
      "type": "function"
    },
    {
      "inputs": [
        {
          "internalType": "address",
          "name": "",
          "type": "address"
        }
      ],
      "name": "owners",
      "outputs": [
        {
          "internalType": "bool",
          "name": "",
          "type": "bool"
        }
      ],
      "stateMutability": "view",
      "type": "function"
    },
    {
      "inputs": [],
      "name": "priceFeed",
      "outputs": [
        {
          "internalType": "contract AggregatorV3Interface",
          "name": "",
          "type": "address"
        }
      ],
      "stateMutability": "view",
      "type": "function"
    },
    {
      "inputs": [
        {
          "internalType": "address",
          "name": "",
          "type": "address"
        },
        {
          "internalType": "uint256",
          "name": "",
          "type": "uint256"
        }
      ],
      "name": "purchaseRewards",
      "outputs": [
        {
          "internalType": "uint256",
          "name": "totalRewardAmount",
          "type": "uint256"
        },
        {
          "internalType": "uint256",
          "name": "rewardAmount",
          "type": "uint256"
        },
        {
          "internalType": "uint256",
          "name": "endTime",
          "type": "uint256"
        },
        {
          "internalType": "uint256",
          "name": "lastUpdateTime",
          "type": "uint256"
        }
      ],
      "stateMutability": "view",
      "type": "function"
    },
    {
      "inputs": [],
      "name": "purchaseToken",
      "outputs": [
        {
          "internalType": "address",
          "name": "",
          "type": "address"
        }
      ],
      "stateMutability": "view",
      "type": "function"
    },
    {
      "inputs": [
        {
          "internalType": "address",
          "name": "",
          "type": "address"
        }
      ],
      "name": "refer",
      "outputs": [
        {
          "internalType": "address",
          "name": "",
          "type": "address"
        }
      ],
      "stateMutability": "view",
      "type": "function"
    },
    {
      "inputs": [
        {
          "internalType": "address",
          "name": "",
          "type": "address"
        },
        {
          "internalType": "uint256",
          "name": "",
          "type": "uint256"
        }
      ],
      "name": "referRewards",
      "outputs": [
        {
          "internalType": "uint256",
          "name": "totalRewardAmount",
          "type": "uint256"
        },
        {
          "internalType": "uint256",
          "name": "rewardAmount",
          "type": "uint256"
        },
        {
          "internalType": "uint256",
          "name": "endTime",
          "type": "uint256"
        },
        {
          "internalType": "uint256",
          "name": "lastUpdateTime",
          "type": "uint256"
        }
      ],
      "stateMutability": "view",
      "type": "function"
    },
    {
      "inputs": [
        {
          "internalType": "address",
          "name": "",
          "type": "address"
        },
        {
          "internalType": "uint256",
          "name": "",
          "type": "uint256"
        }
      ],
      "name": "referredPeople",
      "outputs": [
        {
          "internalType": "address",
          "name": "",
          "type": "address"
        }
      ],
      "stateMutability": "view",
      "type": "function"
    },
    {
      "inputs": [
        {
          "internalType": "uint256",
          "name": "stableCoinAmount",
          "type": "uint256"
        },
        {
          "internalType": "address",
          "name": "_refer",
          "type": "address"
        }
      ],
      "name": "register",
      "outputs": [],
      "stateMutability": "nonpayable",
      "type": "function"
    },
    {
      "inputs": [
        {
          "internalType": "address",
          "name": "_newOwner",
          "type": "address"
        }
      ],
      "name": "removeOwner",
      "outputs": [],
      "stateMutability": "nonpayable",
      "type": "function"
    },
    {
      "inputs": [
        {
          "internalType": "uint256",
          "name": "_baseRegisterAmount",
          "type": "uint256"
        }
      ],
      "name": "setBaseRegisterAmount",
      "outputs": [],
      "stateMutability": "nonpayable",
      "type": "function"
    },
    {
      "inputs": [
        {
          "internalType": "address",
          "name": "_CBDToken",
          "type": "address"
        }
      ],
      "name": "setCBDToken",
      "outputs": [],
      "stateMutability": "nonpayable",
      "type": "function"
    },
    {
      "inputs": [
        {
          "internalType": "address",
          "name": "_purchaseToken",
          "type": "address"
        }
      ],
      "name": "setPurchaseToken",
      "outputs": [],
      "stateMutability": "nonpayable",
      "type": "function"
    },
    {
      "inputs": [
        {
          "internalType": "uint256",
          "name": "_newTokenPrice",
          "type": "uint256"
        }
      ],
      "name": "setTokenPrice",
      "outputs": [],
      "stateMutability": "nonpayable",
      "type": "function"
    },
    {
      "inputs": [],
      "name": "tokenPrice",
      "outputs": [
        {
          "internalType": "uint256",
          "name": "",
          "type": "uint256"
        }
      ],
      "stateMutability": "view",
      "type": "function"
    },
    {
      "inputs": [
        {
          "internalType": "address",
          "name": "_newOwner",
          "type": "address"
        }
      ],
      "name": "transferUserOwnership",
      "outputs": [],
      "stateMutability": "nonpayable",
      "type": "function"
    },
    {
      "inputs": [
        {
          "internalType": "address",
          "name": "_user",
          "type": "address"
        }
      ],
      "name": "userCbd2Rewards",
      "outputs": [
        {
          "components": [
            {
              "internalType": "uint256",
              "name": "amount",
              "type": "uint256"
            },
            {
              "internalType": "uint256",
              "name": "startTime",
              "type": "uint256"
            },
            {
              "internalType": "uint256",
              "name": "endTime",
              "type": "uint256"
            }
          ],
          "internalType": "struct Purchase.Cbd2Rewards[]",
          "name": "",
          "type": "tuple[]"
        }
      ],
      "stateMutability": "view",
      "type": "function"
    },
    {
      "inputs": [
        {
          "internalType": "address",
          "name": "_user",
          "type": "address"
        }
      ],
      "name": "userPurchaseRewards",
      "outputs": [
        {
          "components": [
            {
              "internalType": "uint256",
              "name": "totalRewardAmount",
              "type": "uint256"
            },
            {
              "internalType": "uint256",
              "name": "rewardAmount",
              "type": "uint256"
            },
            {
              "internalType": "uint256",
              "name": "endTime",
              "type": "uint256"
            },
            {
              "internalType": "uint256",
              "name": "lastUpdateTime",
              "type": "uint256"
            }
          ],
          "internalType": "struct Purchase.UserRewards[]",
          "name": "",
          "type": "tuple[]"
        }
      ],
      "stateMutability": "view",
      "type": "function"
    },
    {
      "inputs": [
        {
          "internalType": "address",
          "name": "_user",
          "type": "address"
        }
      ],
      "name": "userReferRewards",
      "outputs": [
        {
          "components": [
            {
              "internalType": "uint256",
              "name": "totalRewardAmount",
              "type": "uint256"
            },
            {
              "internalType": "uint256",
              "name": "rewardAmount",
              "type": "uint256"
            },
            {
              "internalType": "uint256",
              "name": "endTime",
              "type": "uint256"
            },
            {
              "internalType": "uint256",
              "name": "lastUpdateTime",
              "type": "uint256"
            }
          ],
          "internalType": "struct Purchase.UserRewards[]",
          "name": "",
          "type": "tuple[]"
        }
      ],
      "stateMutability": "view",
      "type": "function"
    },
    {
      "inputs": [
        {
          "internalType": "address",
          "name": "_user",
          "type": "address"
        }
      ],
      "name": "userReferredPeople",
      "outputs": [
        {
          "internalType": "address[]",
          "name": "",
          "type": "address[]"
        }
      ],
      "stateMutability": "view",
      "type": "function"
    }
  ],
  "bytecode": {
    "object": "0x60806040523480156200001157600080fd5b506040516200552d3803806200552d833981016040819052620000349162000332565b600080546001600160a01b038087166001600160a01b0319928316178355600180548783169084168117909155600286905560048054928616929093169190911782556040805163313ce56760e01b81529051919263313ce5679282820192602092908290030181865afa158015620000b1573d6000803e3d6000fd5b505050506040513d601f19601f82011682018060405250810190620000d7919062000386565b60ff169050620000e981600a620004c7565b620000f6906032620004d5565b6003553360008181526006602052604090208054600160ff199182168117909255600580546001600160a01b03191690931790925560088054909216179055620001746200014682600a620004c7565b620001539060fa620004d5565b6200016083600a620004c7565b6200016e906101f4620004d5565b6200022d565b620001ae6200018582600a620004c7565b62000193906101f4620004d5565b620001a083600a620004c7565b6200016e906105dc620004d5565b620001e8620001bf82600a620004c7565b620001cd906103e8620004d5565b620001da83600a620004c7565b6200016e90610bb8620004d5565b62000222620001f982600a620004c7565b62000207906107d0620004d5565b6200021483600a620004c7565b6200016e90611770620004d5565b5050505050620004ef565b6200023762000294565b600082815260096020908152604091829020805460ff1916600190811782550183905581518481529081018390527f1f8b0ad6fac0387550366900e24725d7b7f22265969ffbb8b2a9701c7cc7967e910160405180910390a15050565b3360009081526006602052604090205460ff16620003135760405162461bcd60e51b815260206004820152603260248201527f4f776e61626c655f4469737472696275746f723a2063616c6c6572206973206e6044820152716f742066726f6d20746865206f776e65727360701b606482015260840160405180910390fd5b565b80516001600160a01b03811681146200032d57600080fd5b919050565b600080600080608085870312156200034957600080fd5b620003548562000315565b9350620003646020860162000315565b9250604085015191506200037b6060860162000315565b905092959194509250565b6000602082840312156200039957600080fd5b815160ff81168114620003ab57600080fd5b9392505050565b634e487b7160e01b600052601160045260246000fd5b600181815b8085111562000409578160001904821115620003ed57620003ed620003b2565b80851615620003fb57918102915b93841c9390800290620003cd565b509250929050565b6000826200042257506001620004c1565b816200043157506000620004c1565b81600181146200044a5760028114620004555762000475565b6001915050620004c1565b60ff841115620004695762000469620003b2565b50506001821b620004c1565b5060208310610133831016604e8410600b84101617156200049a575081810a620004c1565b620004a68383620003c8565b8060001904821115620004bd57620004bd620003b2565b0290505b92915050565b6000620003ab838362000411565b8082028115828204841417620004c157620004c1620003b2565b61502e80620004ff6000396000f3fe608060405234801561001057600080fd5b50600436106102d65760003560e01c80637cdfecdb11610182578063b3803510116100e9578063cf7b5ea9116100a2578063e1a5df791161007c578063e1a5df791461074b578063e7627c6e1461075e578063f851a4401461077e578063fe08c5ac1461079157600080fd5b8063cf7b5ea914610712578063d895acb814610725578063dbbdf0831461073857600080fd5b8063b380351014610670578063b43ec33414610683578063b4cae3d9146106b6578063b4e3934d146106c9578063b6f6fbd9146106dc578063c3c5a547146106ef57600080fd5b80638f2839701161013b5780638f283970146105fc5780639134709e1461060f578063981a6ea3146106225780639a451e551461062a5780639c8403f91461064a578063a95c4d621461065d57600080fd5b80637cdfecdb1461056d5780637ff9b59614610580578063820c4d01146105895780638456bd2e146105a9578063880f6de0146105bc5780638a8c7e46146105dc57600080fd5b80633a8ce33c116102415780636fc98615116101fa578063741bef1a116101d4578063741bef1a146104fb578063772181871461050e578063772f44271461051657806379c9edd11461055a57600080fd5b80636fc98615146104a85780637065cb48146104c857806372bc202c146104db57600080fd5b80633a8ce33c14610440578063510bbe6914610449578063689ae9bf1461045c57806368c95f091461046f57806369a69e29146104825780636a61e5fc1461049557600080fd5b80632f54bf6e116102935780632f54bf6e146103a55780632f9be21d146103d1578063325667cc146103e4578063352d80e01461041257806336f1187f14610425578063372500ab1461043857600080fd5b8063022914a7146102db5780630505cadb14610313578063173825d9146103345780631d509afd146103495780631dfebd121461038a5780632ce8b84c14610392575b600080fd5b6102fe6102e93660046149aa565b60066020526000908152604090205460ff1681565b60405190151581526020015b60405180910390f35b6103266103213660046149aa565b6107a4565b60405190815260200161030a565b6103476103423660046149aa565b61086e565b005b6103726103573660046149aa565b600c602052600090815260409020546001600160a01b031681565b6040516001600160a01b03909116815260200161030a565b6103476108ce565b6103476103a03660046149c5565b610d4c565b6102fe6103b33660046149aa565b6001600160a01b031660009081526006602052604090205460ff1690565b6103266103df3660046149aa565b610db1565b6103f76103f23660046149e7565b610e74565b6040805193845260208401929092529082015260600161030a565b610347610420366004614a11565b610eb6565b600054610372906001600160a01b031681565b610347610f0c565b61032660035481565b6103266104573660046149aa565b611768565b61034761046a366004614a11565b61182b565b61032661047d3660046149aa565b6118c9565b6103266104903660046149aa565b611a4e565b6103476104a3366004614a11565b611efd565b6103266104b63660046149aa565b600e6020526000908152604090205481565b6103476104d63660046149aa565b611f3a565b6103266104e93660046149aa565b60116020526000908152604090205481565b600454610372906001600160a01b031681565b610347611f96565b610543610524366004614a11565b6009602052600090815260409020805460019091015460ff9091169082565b60408051921515835260208301919091520161030a565b6103266105683660046149aa565b612410565b61034761057b3660046149aa565b612668565b61032660025481565b61059c6105973660046149aa565b6126dc565b60405161030a9190614a2a565b6103476105b73660046149aa565b61276f565b6103266105ca3660046149aa565b60106020526000908152604090205481565b6105ef6105ea3660046149aa565b61282a565b60405161030a9190614a83565b61034761060a3660046149aa565b6128bc565b61034761061d366004614ada565b612912565b6103266137a4565b6103266106383660046149aa565b600f6020526000908152604090205481565b610347610658366004614a11565b61389d565b600154610372906001600160a01b031681565b6105ef61067e3660046149aa565b613ac1565b6106966106913660046149e7565b613b50565b60408051948552602085019390935291830152606082015260800161030a565b6103726106c43660046149e7565b613b96565b6103476106d73660046149aa565b613bce565b6103266106ea3660046149aa565b613c84565b6102fe6106fd3660046149aa565b60076020526000908152604090205460ff1681565b6103266107203660046149aa565b613e09565b610347610733366004614b17565b613ecc565b610347610746366004614ada565b613f15565b6106966107593660046149e7565b6141e8565b61077161076c3660046149aa565b614204565b60405161030a9190614b34565b600554610372906001600160a01b031681565b61032661079f3660046149aa565b61427a565b600080805b6001600160a01b0384166000908152600b6020526040902054811015610867576001600160a01b0384166000908152600b602052604081208054839081106107f3576107f3614b81565b9060005260206000209060040201600001541115610855576001600160a01b0384166000908152600b6020526040902080548290811061083557610835614b81565b906000526020600020906004020160000154826108529190614bad565b91505b8061085f81614bc6565b9150506107a9565b5092915050565b61087661433d565b6001600160a01b038116600081815260066020908152604091829020805460ff1916905590519182527fac6e8398676cf37429d530b81144d7079e99f4fe9d28b0d88c4a749ceccbe8cd91015b60405180910390a150565b6000805b336000908152600b6020526040902054811015610c3f57336000908152600b6020526040812080548390811061090a5761090a614b81565b9060005260206000209060040201600101541115610c2d57336000908152600b6020526040902080548290811061094357610943614b81565b906000526020600020906004020160020154421015610b5257336000908152600b6020526040812080548390811061097d5761097d614b81565b906000526020600020906004020160030154600b6000336001600160a01b03166001600160a01b0316815260200190815260200160002083815481106109c5576109c5614b81565b9060005260206000209060040201600201546109e19190614bdf565b336000908152600b602052604081208054929350909184908110610a0757610a07614b81565b90600052602060002090600402016003015442610a249190614bdf565b336000908152600b60205260408120805492935090918491849187908110610a4e57610a4e614b81565b906000526020600020906004020160010154610a6a9190614bf2565b610a749190614c1f565b336000908152600b602052604090208054919250829186908110610a9a57610a9a614b81565b90600052602060002090600402016001016000828254610aba9190614bdf565b9091555050336000908152600b60205260409020805442919086908110610ae357610ae3614b81565b6000918252602080832060036004909302019190910192909255338152600b90915260409020805485908110610b1b57610b1b614b81565b906000526020600020906004020160010154600003610b3e57610b3e33856143b9565b610b488186614bad565b9450505050610c2d565b336000908152600b60205260408120805483908110610b7357610b73614b81565b90600052602060002090600402016001015490506000600b6000336001600160a01b03166001600160a01b031681526020019081526020016000208381548110610bbf57610bbf614b81565b90600052602060002090600402016001018190555042600b6000336001600160a01b03166001600160a01b031681526020019081526020016000208381548110610c0b57610c0b614b81565b6000918252602090912060036004909202010155610c298184614bad565b9250505b80610c3781614bc6565b9150506108d2565b506000546040516340c10f1960e01b8152336004820152602481018390526001600160a01b03909116906340c10f1990604401600060405180830381600087803b158015610c8c57600080fd5b505af1158015610ca0573d6000803e3d6000fd5b50506040513381527fb5fb6419d0977b4ad527df0e5cf44ae43675653e6b9e1e33f9a7fd9ea97df4bf9250602001905060405180910390a160005b336000908152600b6020526040902054811015610d4857336000908152600b60205260409020805482908110610d1357610d13614b81565b906000526020600020906004020160010154600003610d3657610d3633826143b9565b80610d4081614bc6565b915050610cdb565b5050565b610d5461433d565b600082815260096020908152604091829020805460ff1916600190811782550183905581518481529081018390527f1f8b0ad6fac0387550366900e24725d7b7f22265969ffbb8b2a9701c7cc7967e910160405180910390a15050565b600080805b6001600160a01b038416600090815260126020526040902054811015610867576001600160a01b0384166000908152601260205260408120805483908110610e0057610e00614b81565b9060005260206000209060030201600001541115610e62576001600160a01b0384166000908152601260205260409020805482908110610e4257610e42614b81565b90600052602060002090600302016000015482610e5f9190614bad565b91505b80610e6c81614bc6565b915050610db6565b60126020528160005260406000208181548110610e9057600080fd5b600091825260209091206003909102018054600182015460029092015490935090915083565b610ebe61433d565b600081815260096020526040808220805460ff1916815560010191909155517ff4bc1d99f4e2ab51e1b9a9c7b00e7170f09025e26fac59b53894811392e3fc86906108c39083815260200190565b6000805b336000908152600a602052604090205481101561127d57336000908152600a60205260408120805483908110610f4857610f48614b81565b906000526020600020906004020160010154111561126b57336000908152600a60205260409020805482908110610f8157610f81614b81565b90600052602060002090600402016002015442101561119057336000908152600a60205260408120805483908110610fbb57610fbb614b81565b906000526020600020906004020160030154600a6000336001600160a01b03166001600160a01b03168152602001908152602001600020838154811061100357611003614b81565b90600052602060002090600402016002015461101f9190614bdf565b336000908152600a60205260408120805492935090918490811061104557611045614b81565b906000526020600020906004020160030154426110629190614bdf565b336000908152600a6020526040812080549293509091849184918790811061108c5761108c614b81565b9060005260206000209060040201600101546110a89190614bf2565b6110b29190614c1f565b336000908152600a6020526040902080549192508291869081106110d8576110d8614b81565b906000526020600020906004020160010160008282546110f89190614bdf565b9091555050336000908152600a6020526040902080544291908690811061112157611121614b81565b6000918252602080832060036004909302019190910192909255338152600a9091526040902080548590811061115957611159614b81565b90600052602060002090600402016001015460000361117c5761117c3385614555565b6111868186614bad565b945050505061126b565b336000908152600a602052604081208054839081106111b1576111b1614b81565b90600052602060002090600402016001015490506000600a6000336001600160a01b03166001600160a01b0316815260200190815260200160002083815481106111fd576111fd614b81565b90600052602060002090600402016001018190555042600a6000336001600160a01b03166001600160a01b03168152602001908152602001600020838154811061124957611249614b81565b60009182526020909120600360049092020101556112678184614bad565b9250505b8061127581614bc6565b915050610f10565b5060005b336000908152600b60205260409020548110156115ee57336000908152600b602052604081208054839081106112b9576112b9614b81565b90600052602060002090600402016001015411156115dc57336000908152600b602052604090208054829081106112f2576112f2614b81565b90600052602060002090600402016002015442101561150157336000908152600b6020526040812080548390811061132c5761132c614b81565b906000526020600020906004020160030154600b6000336001600160a01b03166001600160a01b03168152602001908152602001600020838154811061137457611374614b81565b9060005260206000209060040201600201546113909190614bdf565b336000908152600b6020526040812080549293509091849081106113b6576113b6614b81565b906000526020600020906004020160030154426113d39190614bdf565b336000908152600b602052604081208054929350909184918491879081106113fd576113fd614b81565b9060005260206000209060040201600101546114199190614bf2565b6114239190614c1f565b336000908152600b60205260409020805491925082918690811061144957611449614b81565b906000526020600020906004020160010160008282546114699190614bdf565b9091555050336000908152600b6020526040902080544291908690811061149257611492614b81565b6000918252602080832060036004909302019190910192909255338152600b909152604090208054859081106114ca576114ca614b81565b9060005260206000209060040201600101546000036114ed576114ed33856143b9565b6114f78186614bad565b94505050506115dc565b336000908152600b6020526040812080548390811061152257611522614b81565b90600052602060002090600402016001015490506000600b6000336001600160a01b03166001600160a01b03168152602001908152602001600020838154811061156e5761156e614b81565b90600052602060002090600402016001018190555042600b6000336001600160a01b03166001600160a01b0316815260200190815260200160002083815481106115ba576115ba614b81565b60009182526020909120600360049092020101556115d88184614bad565b9250505b806115e681614bc6565b915050611281565b506000546040516340c10f1960e01b8152336004820152602481018390526001600160a01b03909116906340c10f1990604401600060405180830381600087803b15801561163b57600080fd5b505af115801561164f573d6000803e3d6000fd5b50506040513381527f0178be5ff07ff0255343266c94130c9a7c518cf8ba70cbf6198cfb3572ab9d3f9250602001905060405180910390a160005b336000908152600a60205260409020548110156116f757336000908152600a602052604090208054829081106116c2576116c2614b81565b9060005260206000209060040201600101546000036116e5576116e53382614555565b806116ef81614bc6565b91505061168a565b5060005b336000908152600b6020526040902054811015610d4857336000908152600b6020526040902080548290811061173357611733614b81565b9060005260206000209060040201600101546000036117565761175633826143b9565b8061176081614bc6565b9150506116fb565b600080805b6001600160a01b0384166000908152600b6020526040902054811015610867576001600160a01b0384166000908152600b602052604081208054839081106117b7576117b7614b81565b9060005260206000209060040201600101541115611819576001600160a01b0384166000908152600b602052604090208054829081106117f9576117f9614b81565b906000526020600020906004020160010154826118169190614bad565b91505b8061182381614bc6565b91505061176d565b61183361433d565b806000036118945760405162461bcd60e51b8152602060048201526024808201527f4261736520726567697374657220616d6f756e742063616e206e6f74206265206044820152637a65726f60e01b60648201526084015b60405180910390fd5b60038190556040518181527f11f05904484a7b170fb5d1434668f3cf4f6491079f180c0b25db5eb15f74d3fa906020016108c3565b600080805b6001600160a01b0384166000908152600a602052604090205481101561198c576001600160a01b0384166000908152600a6020526040812080548390811061191857611918614b81565b906000526020600020906004020160010154111561197a576001600160a01b0384166000908152600a6020526040902080548290811061195a5761195a614b81565b906000526020600020906004020160010154826119779190614bad565b91505b8061198481614bc6565b9150506118ce565b5060005b6001600160a01b0384166000908152600b6020526040902054811015610867576001600160a01b0384166000908152600b602052604081208054839081106119da576119da614b81565b9060005260206000209060040201600101541115611a3c576001600160a01b0384166000908152600b60205260409020805482908110611a1c57611a1c614b81565b90600052602060002090600402016001015482611a399190614bad565b91505b80611a4681614bc6565b915050611990565b600080805b6001600160a01b0384166000908152600a6020526040902054811015611ca6576001600160a01b0384166000908152600a60205260408120805483908110611a9d57611a9d614b81565b9060005260206000209060040201600101541115611c94576001600160a01b0384166000908152600a60205260409020805482908110611adf57611adf614b81565b906000526020600020906004020160020154421015611c4a576001600160a01b0384166000908152600a60205260408120805483908110611b2257611b22614b81565b906000526020600020906004020160030154600a6000876001600160a01b03166001600160a01b031681526020019081526020016000208381548110611b6a57611b6a614b81565b906000526020600020906004020160020154611b869190614bdf565b6001600160a01b0386166000908152600a602052604081208054929350909184908110611bb557611bb5614b81565b90600052602060002090600402016003015442611bd29190614bdf565b905060008282600a60008a6001600160a01b03166001600160a01b031681526020019081526020016000208681548110611c0e57611c0e614b81565b906000526020600020906004020160010154611c2a9190614bf2565b611c349190614c1f565b9050611c408186614bad565b9450505050611c94565b6001600160a01b0384166000908152600a60205260409020805482908110611c7457611c74614b81565b90600052602060002090600402016001015482611c919190614bad565b91505b80611c9e81614bc6565b915050611a53565b5060005b6001600160a01b0384166000908152600b6020526040902054811015610867576001600160a01b0384166000908152600b60205260408120805483908110611cf457611cf4614b81565b9060005260206000209060040201600101541115611eeb576001600160a01b0384166000908152600b60205260409020805482908110611d3657611d36614b81565b906000526020600020906004020160020154421015611ea1576001600160a01b0384166000908152600b60205260408120805483908110611d7957611d79614b81565b906000526020600020906004020160030154600b6000876001600160a01b03166001600160a01b031681526020019081526020016000208381548110611dc157611dc1614b81565b906000526020600020906004020160020154611ddd9190614bdf565b6001600160a01b0386166000908152600b602052604081208054929350909184908110611e0c57611e0c614b81565b90600052602060002090600402016003015442611e299190614bdf565b905060008282600b60008a6001600160a01b03166001600160a01b031681526020019081526020016000208681548110611e6557611e65614b81565b906000526020600020906004020160010154611e819190614bf2565b611e8b9190614c1f565b9050611e978186614bad565b9450505050611eeb565b6001600160a01b0384166000908152600b60205260409020805482908110611ecb57611ecb614b81565b90600052602060002090600402016001015482611ee89190614bad565b91505b80611ef581614bc6565b915050611caa565b611f0561433d565b60028190556040518181527f84391573dc31ee16afb3c5a2d6d906918acde4227b720393ca2e6a3cbf893222906020016108c3565b611f4261433d565b6001600160a01b038116600081815260066020908152604091829020805460ff1916600117905590519182527fac1e9ef41b54c676ccf449d83ae6f2624bcdce8f5b93a6b48ce95874c332693d91016108c3565b6000805b336000908152600a602052604090205481101561230757336000908152600a60205260408120805483908110611fd257611fd2614b81565b90600052602060002090600402016001015411156122f557336000908152600a6020526040902080548290811061200b5761200b614b81565b90600052602060002090600402016002015442101561221a57336000908152600a6020526040812080548390811061204557612045614b81565b906000526020600020906004020160030154600a6000336001600160a01b03166001600160a01b03168152602001908152602001600020838154811061208d5761208d614b81565b9060005260206000209060040201600201546120a99190614bdf565b336000908152600a6020526040812080549293509091849081106120cf576120cf614b81565b906000526020600020906004020160030154426120ec9190614bdf565b336000908152600a6020526040812080549293509091849184918790811061211657612116614b81565b9060005260206000209060040201600101546121329190614bf2565b61213c9190614c1f565b336000908152600a60205260409020805491925082918690811061216257612162614b81565b906000526020600020906004020160010160008282546121829190614bdf565b9091555050336000908152600a602052604090208054429190869081106121ab576121ab614b81565b6000918252602080832060036004909302019190910192909255338152600a909152604090208054859081106121e3576121e3614b81565b906000526020600020906004020160010154600003612206576122063385614555565b6122108186614bad565b94505050506122f5565b336000908152600a6020526040812080548390811061223b5761223b614b81565b90600052602060002090600402016001015490506000600a6000336001600160a01b03166001600160a01b03168152602001908152602001600020838154811061228757612287614b81565b90600052602060002090600402016001018190555042600a6000336001600160a01b03166001600160a01b0316815260200190815260200160002083815481106122d3576122d3614b81565b60009182526020909120600360049092020101556122f18184614bad565b9250505b806122ff81614bc6565b915050611f9a565b506000546040516340c10f1960e01b8152336004820152602481018390526001600160a01b03909116906340c10f1990604401600060405180830381600087803b15801561235457600080fd5b505af1158015612368573d6000803e3d6000fd5b50506040513381527ff5662a5de499ea82c40a80deb8b07e44d046b67c0b240edc062edaac21c1b5cc9250602001905060405180910390a160005b336000908152600a6020526040902054811015610d4857336000908152600a602052604090208054829081106123db576123db614b81565b9060005260206000209060040201600101546000036123fe576123fe3382614555565b8061240881614bc6565b9150506123a3565b600080805b6001600160a01b038416600090815260126020526040902054811015610867576001600160a01b038416600090815260126020526040812080548390811061245f5761245f614b81565b9060005260206000209060030201600001541115612656576001600160a01b03841660009081526012602052604090208054829081106124a1576124a1614b81565b90600052602060002090600302016002015442101561260c576001600160a01b03841660009081526012602052604081208054839081106124e4576124e4614b81565b90600052602060002090600302016001015460126000876001600160a01b03166001600160a01b03168152602001908152602001600020838154811061252c5761252c614b81565b9060005260206000209060030201600201546125489190614bdf565b6001600160a01b0386166000908152601260205260408120805492935090918490811061257757612577614b81565b906000526020600020906003020160010154426125949190614bdf565b905060008282601260008a6001600160a01b03166001600160a01b0316815260200190815260200160002086815481106125d0576125d0614b81565b9060005260206000209060030201600001546125ec9190614bf2565b6125f69190614c1f565b90506126028186614bad565b9450505050612656565b6001600160a01b038416600090815260126020526040902080548290811061263657612636614b81565b906000526020600020906003020160000154826126539190614bad565b91505b8061266081614bc6565b915050612415565b61267061433d565b336000818152600660209081526040808320805460ff199081169091556001600160a01b03861680855293829020805490911660011790558051938452908301919091527fd8b006b498b102815f881275b666755e1fe6537f2d525345fa188c7a7555de2b91016108c3565b6001600160a01b0381166000908152601260209081526040808320805482518185028101850190935280835260609492939192909184015b828210156127645783829060005260206000209060030201604051806060016040529081600082015481526020016001820154815260200160028201548152505081526020019060010190612714565b505050509050919050565b61277761433d565b6001600160a01b0381166127dc5760405162461bcd60e51b815260206004820152602660248201527f507572636861736520746f6b656e2063616e206e6f74206265207a65726f206160448201526564647265737360d01b606482015260840161188b565b600180546001600160a01b0319166001600160a01b0383169081179091556040519081527fa09d2b599a137d9f8add36ec63d46bcb9fbbaa0ee7bf2df441045ef83f145f7a906020016108c3565b6001600160a01b0381166000908152600a60209081526040808320805482518185028101850190935280835260609492939192909184015b82821015612764578382906000526020600020906004020160405180608001604052908160008201548152602001600182015481526020016002820154815260200160038201548152505081526020019060010190612862565b6128c461433d565b600580546001600160a01b0319166001600160a01b0383169081179091556040519081527f927cc064d7b7fa546fa7706bc01845d27d06f15af3ae90a672cc44735928e961906020016108c3565b3360009081526007602052604090205460ff16151560011461296f5760405162461bcd60e51b8152602060048201526016602482015275165bdd48185c99481b9bdd081c9959da5cdd195c995960521b604482015260640161188b565b6001600160a01b038116156129eb576001600160a01b03811660009081526007602052604090205460ff1615156001146129eb5760405162461bcd60e51b815260206004820152601c60248201527f596f7572207265666572206973206e6f74207265676973746572656400000000604482015260640161188b565b60006129f56137a4565b9050670d2f13f7789f0000811015612a1f5760405162461bcd60e51b815260040161188b90614c33565b6001546040805163313ce56760e01b815290516000926001600160a01b03169163313ce5679160048083019260209291908290030181865afa158015612a69573d6000803e3d6000fd5b505050506040513d601f19601f82011682018060405250810190612a8d9190614c6a565b60ff169050336001600160a01b03841603612aba5760405162461bcd60e51b815260040161188b90614c8d565b6001546040516370a0823160e01b815233600482015285916001600160a01b0316906370a0823190602401602060405180830381865afa158015612b02573d6000803e3d6000fd5b505050506040513d601f19601f82011682018060405250810190612b269190614cd0565b1015612b445760405162461bcd60e51b815260040161188b90614ce9565b600254600090612b5c86670de0b6b3a7640000614bf2565b612b669190614c1f565b9050600060025483600a612b7a9190614e1c565b612b86906103e8614bf2565b612b9890670de0b6b3a7640000614bf2565b612ba29190614c1f565b60085490915060ff161515600103612ea15760008681526009602052604090205460ff16612c215760405162461bcd60e51b815260206004820152602660248201527f5468697320737461626c6520636f696e20616d6f756e74206973206e6f7420616044820152651b1b1bddd95960d21b606482015260840161188b565b600254600087815260096020526040812060010154909190612c4b90670de0b6b3a7640000614bf2565b612c559190614c1f565b6000549091506001600160a01b03166340c10f19336064612c7785600a614bf2565b612c819190614c1f565b6040516001600160e01b031960e085901b1681526001600160a01b0390921660048301526024820152604401600060405180830381600087803b158015612cc757600080fd5b505af1158015612cdb573d6000803e3d6000fd5b5050600154600554612cfe93506001600160a01b0391821692503391168a6146c1565b336000908152600a60205260409081902081516080810190925290806064612d2785605a614bf2565b612d319190614c1f565b81526020016064612d4385605a614bf2565b612d4d9190614c1f565b8152602001612d60426305a39a80614bad565b815242602091820152825460018082018555600094855282852084516004909302019182558383015182820155604080850151600284015560609485015160039093019290925533855260128352938190208151938401808352945463313ce56760e01b9095529051909383926001600160a01b039091169163313ce56791606480860192908187030181865afa158015612dff573d6000803e3d6000fd5b505050506040513d601f19601f82011682018060405250810190612e239190614c6a565b612e2e90600a614e28565b612e408b670de0b6b3a7640000614bf2565b612e4a9190614c1f565b8152602001428152602001426305a39a80612e659190614bad565b90528154600181810184556000938452602093849020835160039093020191825592820151928101929092556040015160029091015550612f24565b6000546040516340c10f1960e01b8152336004820152602481018490526001600160a01b03909116906340c10f1990604401600060405180830381600087803b158015612eed57600080fd5b505af1158015612f01573d6000803e3d6000fd5b5050600154600554612f2493506001600160a01b039182169250339116896146c1565b6001600160a01b0385161561373557336000908152600c60205260409020546001600160a01b0316612fa4576001600160a01b0385166000818152600d602090815260408083208054600181018255908452828420018054336001600160a01b03199182168117909255908452600c909252909120805490911690911790555b336000908152600c6020526040808220546001600160a01b0390811680845282842054821680855283852054831680865293909420549093929116831580159061305a5750600080546040516370a0823160e01b81526001600160a01b038781166004830152909116906370a0823190602401602060405180830381865afa158015613034573d6000803e3d6000fd5b505050506040513d601f19601f820116820180604052508101906130589190614cd0565b115b1561323f576000546001600160a01b03166340c10f1985876130848a674563918244f40000614bf2565b61308e9190614c1f565b6040516001600160e01b031960e085901b1681526001600160a01b0390921660048301526024820152604401600060405180830381600087803b1580156130d457600080fd5b505af11580156130e8573d6000803e3d6000fd5b505050508486674563918244f400006131019190614bf2565b61310b9190614c1f565b6001600160a01b0385166000908152600e602052604081208054909190613133908490614bad565b90915550506001600160a01b0384166000908152600b6020526040908190208151608081019092529080876131708a6783d6c7aab6360000614bf2565b61317a9190614c1f565b8152602001876131928a6783d6c7aab6360000614bf2565b61319c9190614c1f565b81526020016131af426305a39a80614bad565b81524260209182015282546001818101855560009485529382902083516004909202019081559082015192810192909255604081015160028301556060015160039091015584613207876783d6c7aab6360000614bf2565b6132119190614c1f565b6001600160a01b0385166000908152600f602052604081208054909190613239908490614bad565b90915550505b6001600160a01b038316158015906132c35750600080546040516370a0823160e01b81526001600160a01b038681166004830152909116906370a0823190602401602060405180830381865afa15801561329d573d6000803e3d6000fd5b505050506040513d601f19601f820116820180604052508101906132c19190614cd0565b115b156133cf576001600160a01b0383166000908152600b6020526040908190208151608081019092529080876133008a6768155a43676e0000614bf2565b61330a9190614c1f565b8152602001876133228a6768155a43676e0000614bf2565b61332c9190614c1f565b815260200161333f426305a39a80614bad565b81524260209182015282546001818101855560009485529382902083516004909202019081559082015192810192909255604081015160028301556060015160039091015584613397876768155a43676e0000614bf2565b6133a19190614c1f565b6001600160a01b0384166000908152600f6020526040812080549091906133c9908490614bad565b90915550505b6001600160a01b038216158015906134535750600080546040516370a0823160e01b81526001600160a01b038581166004830152909116906370a0823190602401602060405180830381865afa15801561342d573d6000803e3d6000fd5b505050506040513d601f19601f820116820180604052508101906134519190614cd0565b115b1561355f576001600160a01b0382166000908152600b6020526040908190208151608081019092529080876134908a6753444835ec580000614bf2565b61349a9190614c1f565b8152602001876134b28a6753444835ec580000614bf2565b6134bc9190614c1f565b81526020016134cf426305a39a80614bad565b81524260209182015282546001818101855560009485529382902083516004909202019081559082015192810192909255604081015160028301556060015160039091015584613527876753444835ec580000614bf2565b6135319190614c1f565b6001600160a01b0383166000908152600f602052604081208054909190613559908490614bad565b90915550505b6001600160a01b038116158015906135e35750600080546040516370a0823160e01b81526001600160a01b038481166004830152909116906370a0823190602401602060405180830381865afa1580156135bd573d6000803e3d6000fd5b505050506040513d601f19601f820116820180604052508101906135e19190614cd0565b115b156136ef576001600160a01b0381166000908152600b6020526040908190208151608081019092529080876136208a673782dace9d900000614bf2565b61362a9190614c1f565b8152602001876136428a673782dace9d900000614bf2565b61364c9190614c1f565b815260200161365f426305a39a80614bad565b815242602091820152825460018181018555600094855293829020835160049092020190815590820151928101929092556040810151600283015560600151600390910155846136b787673782dace9d900000614bf2565b6136c19190614c1f565b6001600160a01b0382166000908152600f6020526040812080549091906136e9908490614bad565b90915550505b7fb48f5778922f96129b3068958aa7754665638c6368002891957fcffea0bd99fa338b8686868660405161372896959493929190614e37565b60405180910390a1505050505b3360009081526010602052604081208054889290613754908490614bad565b90915550506040517fb48f5778922f96129b3068958aa7754665638c6368002891957fcffea0bd99fa906137949033908990899060009081908190614e37565b60405180910390a1505050505050565b6004805460408051633fabe5a360e21b8152905160009384936001600160a01b03169263feaf968c928183019260a0928290030181865afa1580156137ed573d6000803e3d6000fd5b505050506040513d601f19601f820116820180604052508101906138119190614e8b565b5050600480546040805163313ce56760e01b81529051949650600095506001600160a01b039091169363313ce5679350818301926020928290030181865afa158015613861573d6000803e3d6000fd5b505050506040513d601f19601f820116820180604052508101906138859190614c6a565b9050600061389583836012614721565b949350505050565b3360009081526007602052604090205460ff1615156001146138fa5760405162461bcd60e51b8152602060048201526016602482015275165bdd48185c99481b9bdd081c9959da5cdd195c995960521b604482015260640161188b565b60006139046137a4565b9050670d2f13f7789f000081101561392e5760405162461bcd60e51b815260040161188b90614c33565b6001546040516370a0823160e01b815233600482015283916001600160a01b0316906370a0823190602401602060405180830381865afa158015613976573d6000803e3d6000fd5b505050506040513d601f19601f8201168201806040525081019061399a9190614cd0565b10156139b85760405162461bcd60e51b815260040161188b90614ce9565b6002546000906139d084670de0b6b3a7640000614bf2565b6139da9190614c1f565b6000546040516340c10f1960e01b8152336004820152602481018390529192506001600160a01b0316906340c10f1990604401600060405180830381600087803b158015613a2757600080fd5b505af1158015613a3b573d6000803e3d6000fd5b5050600154600554613a5e93506001600160a01b039182169250339116866146c1565b3360009081526011602052604081208054859290613a7d908490614bad565b909155505060408051338152602081018590527fa1a25e5b22d5b65a50b0363ab6e3c83f3ca3f97ac3a42f9fed4d10a1492383cb91015b60405180910390a1505050565b6001600160a01b0381166000908152600b60209081526040808320805482518185028101850190935280835260609492939192909184018215612764578382906000526020600020906004020160405180608001604052908160008201548152602001600182015481526020016002820154815260200160038201548152505081526020019060010190612862565b600a6020528160005260406000208181548110613b6c57600080fd5b60009182526020909120600490910201805460018201546002830154600390930154919450925084565b600d6020528160005260406000208181548110613bb257600080fd5b6000918252602090912001546001600160a01b03169150829050565b613bd661433d565b6001600160a01b038116613c365760405162461bcd60e51b815260206004820152602160248201527f43424420746f6b656e2063616e206e6f74206265207a65726f206164647265736044820152607360f81b606482015260840161188b565b600080546001600160a01b0319166001600160a01b0383169081179091556040519081527fb4e9335047ece734d8df46682becb82af30e3d483215ac5c5d36e42bc43b983b906020016108c3565b600080805b6001600160a01b0384166000908152600a6020526040902054811015613d47576001600160a01b0384166000908152600a60205260408120805483908110613cd357613cd3614b81565b9060005260206000209060040201600001541115613d35576001600160a01b0384166000908152600a60205260409020805482908110613d1557613d15614b81565b90600052602060002090600402016000015482613d329190614bad565b91505b80613d3f81614bc6565b915050613c89565b5060005b6001600160a01b0384166000908152600b6020526040902054811015610867576001600160a01b0384166000908152600b60205260408120805483908110613d9557613d95614b81565b9060005260206000209060040201600001541115613df7576001600160a01b0384166000908152600b60205260409020805482908110613dd757613dd7614b81565b90600052602060002090600402016000015482613df49190614bad565b91505b80613e0181614bc6565b915050613d4b565b600080805b6001600160a01b0384166000908152600a6020526040902054811015610867576001600160a01b0384166000908152600a60205260408120805483908110613e5857613e58614b81565b9060005260206000209060040201600101541115613eba576001600160a01b0384166000908152600a60205260409020805482908110613e9a57613e9a614b81565b90600052602060002090600402016001015482613eb79190614bad565b91505b80613ec481614bc6565b915050613e0e565b613ed461433d565b6008805460ff19168215159081179091556040519081527f6395b83481d72b8e0617c37eac07f066fa267efaf6dd3c30f8167ae9acbd4ff5906020016108c3565b6001600160a01b03811615613f91576001600160a01b03811660009081526007602052604090205460ff161515600114613f915760405162461bcd60e51b815260206004820152601c60248201527f596f7572207265666572206973206e6f74207265676973746572656400000000604482015260640161188b565b600354821015613ffe5760405162461bcd60e51b815260206004820152603260248201527f596f757220616d6f756e74206973206c6f776572207468616e207468652062616044820152711cd9481c9959da5cdd195c88185b5bdd5b9d60721b606482015260840161188b565b60006140086137a4565b9050670d2f13f7789f00008110156140325760405162461bcd60e51b815260040161188b90614c33565b336001600160a01b0383160361405a5760405162461bcd60e51b815260040161188b90614c8d565b6001546040516370a0823160e01b815233600482015284916001600160a01b0316906370a0823190602401602060405180830381865afa1580156140a2573d6000803e3d6000fd5b505050506040513d601f19601f820116820180604052508101906140c69190614cd0565b10156140e45760405162461bcd60e51b815260040161188b90614ce9565b600154600554614103916001600160a01b0390811691339116866146c1565b336000908152600760209081526040808320805460ff19166001179055600c9091529020546001600160a01b031615801561414657506001600160a01b03821615155b1561419f576001600160a01b0382166000818152600d602090815260408083208054600181018255908452828420018054336001600160a01b03199182168117909255908452600c909252909120805490911690911790555b60408051338152602081018590526001600160a01b038416918101919091527ff2e19a901b0748d8b08e428d0468896a039ac751ec4fec49b44b7b9c28097e4590606001613ab4565b600b6020528160005260406000208181548110613b6c57600080fd5b6001600160a01b0381166000908152600d602090815260409182902080548351818402810184019094528084526060939283018282801561426e57602002820191906000526020600020905b81546001600160a01b03168152600190910190602001808311614250575b50505050509050919050565b600080805b6001600160a01b0384166000908152600a6020526040902054811015610867576001600160a01b0384166000908152600a602052604081208054839081106142c9576142c9614b81565b906000526020600020906004020160000154111561432b576001600160a01b0384166000908152600a6020526040902080548290811061430b5761430b614b81565b906000526020600020906004020160000154826143289190614bad565b91505b8061433581614bc6565b91505061427f565b3360009081526006602052604090205460ff166143b75760405162461bcd60e51b815260206004820152603260248201527f4f776e61626c655f4469737472696275746f723a2063616c6c6572206973206e6044820152716f742066726f6d20746865206f776e65727360701b606482015260840161188b565b565b805b6001600160a01b0383166000908152600b60205260409020546143e090600190614bdf565b8110156144a2576001600160a01b0383166000908152600b6020526040902061440a826001614bad565b8154811061441a5761441a614b81565b9060005260206000209060040201600b6000856001600160a01b03166001600160a01b03168152602001908152602001600020828154811061445e5761445e614b81565b60009182526020909120825460049092020190815560018083015490820155600280830154908201556003918201549101558061449a81614bc6565b9150506143bb565b506001600160a01b0382166000908152600b6020526040902080546144c990600190614bdf565b815481106144d9576144d9614b81565b60009182526020808320600490920290910182815560018101839055600281018390556003018290556001600160a01b0384168252600b90526040902080548061452557614525614edb565b60008281526020812060046000199093019283020181815560018101829055600281018290556003015590555050565b805b6001600160a01b0383166000908152600a602052604090205461457c90600190614bdf565b81101561463e576001600160a01b0383166000908152600a602052604090206145a6826001614bad565b815481106145b6576145b6614b81565b9060005260206000209060040201600a6000856001600160a01b03166001600160a01b0316815260200190815260200160002082815481106145fa576145fa614b81565b60009182526020909120825460049092020190815560018083015490820155600280830154908201556003918201549101558061463681614bc6565b915050614557565b506001600160a01b0382166000908152600a60205260409020805461466590600190614bdf565b8154811061467557614675614b81565b60009182526020808320600490920290910182815560018101839055600281018390556003018290556001600160a01b0384168252600a90526040902080548061452557614525614edb565b604080516001600160a01b0385811660248301528416604482015260648082018490528251808303909101815260849091019091526020810180516001600160e01b03166323b872dd60e01b17905261471b908590614794565b50505050565b60008160ff168360ff16101561475a5761473b8383614ef1565b6147499060ff16600a614e1c565b6147539085614f0a565b905061478d565b8160ff168360ff16111561478a576147728284614ef1565b6147809060ff16600a614e1c565b6147539085614f3a565b50825b9392505050565b60006147e9826040518060400160405280602081526020017f5361666545524332303a206c6f772d6c6576656c2063616c6c206661696c6564815250856001600160a01b031661486b9092919063ffffffff16565b80519091501561486657808060200190518101906148079190614f68565b6148665760405162461bcd60e51b815260206004820152602a60248201527f5361666545524332303a204552433230206f7065726174696f6e20646964206e6044820152691bdd081cdd58d8d9595960b21b606482015260840161188b565b505050565b6060613895848460008585600080866001600160a01b031685876040516148929190614fa9565b60006040518083038185875af1925050503d80600081146148cf576040519150601f19603f3d011682016040523d82523d6000602084013e6148d4565b606091505b50915091506148e5878383876148f0565b979650505050505050565b6060831561495f578251600003614958576001600160a01b0385163b6149585760405162461bcd60e51b815260206004820152601d60248201527f416464726573733a2063616c6c20746f206e6f6e2d636f6e7472616374000000604482015260640161188b565b5081613895565b61389583838151156149745781518083602001fd5b8060405162461bcd60e51b815260040161188b9190614fc5565b80356001600160a01b03811681146149a557600080fd5b919050565b6000602082840312156149bc57600080fd5b61478d8261498e565b600080604083850312156149d857600080fd5b50508035926020909101359150565b600080604083850312156149fa57600080fd5b614a038361498e565b946020939093013593505050565b600060208284031215614a2357600080fd5b5035919050565b602080825282518282018190526000919060409081850190868401855b82811015614a765781518051855286810151878601528501518585015260609093019290850190600101614a47565b5091979650505050505050565b602080825282518282018190526000919060409081850190868401855b82811015614a7657815180518552868101518786015285810151868601526060908101519085015260809093019290850190600101614aa0565b60008060408385031215614aed57600080fd5b82359150614afd6020840161498e565b90509250929050565b8015158114614b1457600080fd5b50565b600060208284031215614b2957600080fd5b813561478d81614b06565b6020808252825182820181905260009190848201906040850190845b81811015614b755783516001600160a01b031683529284019291840191600101614b50565b50909695505050505050565b634e487b7160e01b600052603260045260246000fd5b634e487b7160e01b600052601160045260246000fd5b80820180821115614bc057614bc0614b97565b92915050565b600060018201614bd857614bd8614b97565b5060010190565b81810381811115614bc057614bc0614b97565b8082028115828204841417614bc057614bc0614b97565b634e487b7160e01b600052601260045260246000fd5b600082614c2e57614c2e614c09565b500490565b6020808252601e908201527f55534443207072696365206973206e6f742061626f766520302e393520240000604082015260600190565b600060208284031215614c7c57600080fd5b815160ff8116811461478d57600080fd5b60208082526023908201527f596f752063616e27742070757420796f757220616464726573732061732072656040820152623332b960e91b606082015260800190565b600060208284031215614ce257600080fd5b5051919050565b6020808252602f908201527f596f7520646f6e2774206861766520656e6f75676820737461626c65636f696e60408201526e2062616c616e636520746f2062757960881b606082015260800190565b600181815b80851115614d73578160001904821115614d5957614d59614b97565b80851615614d6657918102915b93841c9390800290614d3d565b509250929050565b600082614d8a57506001614bc0565b81614d9757506000614bc0565b8160018114614dad5760028114614db757614dd3565b6001915050614bc0565b60ff841115614dc857614dc8614b97565b50506001821b614bc0565b5060208310610133831016604e8410600b8410161715614df6575081810a614bc0565b614e008383614d38565b8060001904821115614e1457614e14614b97565b029392505050565b600061478d8383614d7b565b600061478d60ff841683614d7b565b6001600160a01b0396871681526020810195909552928516604085015290841660608401528316608083015290911660a082015260c00190565b805169ffffffffffffffffffff811681146149a557600080fd5b600080600080600060a08688031215614ea357600080fd5b614eac86614e71565b9450602086015193506040860151925060608601519150614ecf60808701614e71565b90509295509295909350565b634e487b7160e01b600052603160045260246000fd5b60ff8281168282160390811115614bc057614bc0614b97565b80820260008212600160ff1b84141615614f2657614f26614b97565b8181058314821517614bc057614bc0614b97565b600082614f4957614f49614c09565b600160ff1b821460001984141615614f6357614f63614b97565b500590565b600060208284031215614f7a57600080fd5b815161478d81614b06565b60005b83811015614fa0578181015183820152602001614f88565b50506000910152565b60008251614fbb818460208701614f85565b9190910192915050565b6020815260008251806020840152614fe4816040850160208701614f85565b601f01601f1916919091016040019291505056fea26469706673582212207def6354444b4a1bf16231eef9c8adfaee4342b57faa6cc2096d90f782f3d69164736f6c63430008110033",
    "linkReferences": {}
  },
  "methodIdentifiers": {
    "addOwner(address)": "7065cb48",
    "admin()": "f851a440",
    "allCb2RewardAmounts(address)": "2f9be21d",
    "allPurchaseRewardAmounts(address)": "cf7b5ea9",
    "allPurchaseTotalRewardAmounts(address)": "fe08c5ac",
    "allReferRewardAmounts(address)": "510bbe69",
    "allReferTotalRewardAmounts(address)": "0505cadb",
    "allRewardAmounts(address)": "68c95f09",
    "allTotalRewardAmounts(address)": "b6f6fbd9",
    "allowedAmounts(uint256)": "772f4427",
    "baseRegisterAmount()": "3a8ce33c",
    "boughtInvestingHistory(address)": "72bc202c",
    "boughtMembershipHistory(address)": "880f6de0",
    "buyToken(uint256,address)": "9134709e",
    "buyTokenWithoutRef(uint256)": "9c8403f9",
    "cbd2Rewards(address,uint256)": "325667cc",
    "cbdToken()": "36f1187f",
    "changeAdmin(address)": "8f283970",
    "changeAllowAmountsActivation(bool)": "d895acb8",
    "claimPurchaseRewards()": "77218187",
    "claimReferRewards()": "1dfebd12",
    "claimRewards()": "372500ab",
    "dailyReferRewardHistory(address)": "9a451e55",
    "disableAllawanceForAmount(uint256)": "352d80e0",
    "enableAllawanceForAmount(uint256,uint256)": "2ce8b84c",
    "getCb2RewardsUntillNow(address)": "79c9edd1",
    "getOracleUsdcPrice()": "981a6ea3",
    "getUnclaimedRewards(address)": "69a69e29",
    "instantReferRewardHistory(address)": "6fc98615",
    "isOwner(address)": "2f54bf6e",
    "isRegistered(address)": "c3c5a547",
    "owners(address)": "022914a7",
    "priceFeed()": "741bef1a",
    "purchaseRewards(address,uint256)": "b43ec334",
    "purchaseToken()": "a95c4d62",
    "refer(address)": "1d509afd",
    "referRewards(address,uint256)": "e1a5df79",
    "referredPeople(address,uint256)": "b4cae3d9",
    "register(uint256,address)": "dbbdf083",
    "removeOwner(address)": "173825d9",
    "setBaseRegisterAmount(uint256)": "689ae9bf",
    "setCBDToken(address)": "b4e3934d",
    "setPurchaseToken(address)": "8456bd2e",
    "setTokenPrice(uint256)": "6a61e5fc",
    "tokenPrice()": "7ff9b596",
    "transferUserOwnership(address)": "7cdfecdb",
    "userCbd2Rewards(address)": "820c4d01",
    "userPurchaseRewards(address)": "8a8c7e46",
    "userReferRewards(address)": "b3803510",
    "userReferredPeople(address)": "e7627c6e"
  },
  "id": 1
}