{
  "abi": [
    {
      "inputs": [
        {
          "internalType": "address",
          "name": "_cbdToken",
          "type": "address"
        },
        {
          "internalType": "address",
          "name": "_purchaseToken",
          "type": "address"
        },
        {
          "internalType": "uint256",
          "name": "_tokenPrice",
          "type": "uint256"
        },
        {
          "internalType": "address",
          "name": "_priceFeed",
          "type": "address"
        }
      ],
      "stateMutability": "nonpayable",
      "type": "constructor"
    },
    {
      "anonymous": false,
      "inputs": [
        {
          "indexed": true,
          "internalType": "address",
          "name": "previousOwner",
          "type": "address"
        },
        {
          "indexed": true,
          "internalType": "address",
          "name": "newOwner",
          "type": "address"
        }
      ],
      "name": "OwnershipTransferred",
      "type": "event"
    },
    {
      "inputs": [
        {
          "internalType": "address",
          "name": "_user",
          "type": "address"
        }
      ],
      "name": "allRewardAmounts",
      "outputs": [
        {
          "internalType": "uint256",
          "name": "",
          "type": "uint256"
        }
      ],
      "stateMutability": "view",
      "type": "function"
    },
    {
      "inputs": [],
      "name": "baseRegisterAmount",
      "outputs": [
        {
          "internalType": "uint256",
          "name": "",
          "type": "uint256"
        }
      ],
      "stateMutability": "view",
      "type": "function"
    },
    {
      "inputs": [
        {
          "internalType": "uint256",
          "name": "stableCoinAmount",
          "type": "uint256"
        },
        {
          "internalType": "address",
          "name": "_refer",
          "type": "address"
        }
      ],
      "name": "buyToken",
      "outputs": [],
      "stateMutability": "nonpayable",
      "type": "function"
    },
    {
      "inputs": [
        {
          "internalType": "uint256",
          "name": "stableCoinAmount",
          "type": "uint256"
        }
      ],
      "name": "buyTokenWhitoutRef",
      "outputs": [],
      "stateMutability": "nonpayable",
      "type": "function"
    },
    {
      "inputs": [],
      "name": "cbdToken",
      "outputs": [
        {
          "internalType": "contract CBDToken",
          "name": "",
          "type": "address"
        }
      ],
      "stateMutability": "view",
      "type": "function"
    },
    {
      "inputs": [],
      "name": "claimRewards",
      "outputs": [],
      "stateMutability": "nonpayable",
      "type": "function"
    },
    {
      "inputs": [],
      "name": "getOracleUsdcPrice",
      "outputs": [
        {
          "internalType": "uint256",
          "name": "",
          "type": "uint256"
        }
      ],
      "stateMutability": "view",
      "type": "function"
    },
    {
      "inputs": [
        {
          "internalType": "address",
          "name": "_user",
          "type": "address"
        }
      ],
      "name": "getUnclaimedRewards",
      "outputs": [
        {
          "internalType": "uint256",
          "name": "",
          "type": "uint256"
        }
      ],
      "stateMutability": "view",
      "type": "function"
    },
    {
      "inputs": [
        {
          "internalType": "address",
          "name": "",
          "type": "address"
        }
      ],
      "name": "isRegistered",
      "outputs": [
        {
          "internalType": "bool",
          "name": "",
          "type": "bool"
        }
      ],
      "stateMutability": "view",
      "type": "function"
    },
    {
      "inputs": [],
      "name": "owner",
      "outputs": [
        {
          "internalType": "address",
          "name": "",
          "type": "address"
        }
      ],
      "stateMutability": "view",
      "type": "function"
    },
    {
      "inputs": [],
      "name": "priceFeed",
      "outputs": [
        {
          "internalType": "contract AggregatorV3Interface",
          "name": "",
          "type": "address"
        }
      ],
      "stateMutability": "view",
      "type": "function"
    },
    {
      "inputs": [],
      "name": "purchaseToken",
      "outputs": [
        {
          "internalType": "address",
          "name": "",
          "type": "address"
        }
      ],
      "stateMutability": "view",
      "type": "function"
    },
    {
      "inputs": [
        {
          "internalType": "address",
          "name": "",
          "type": "address"
        }
      ],
      "name": "refer",
      "outputs": [
        {
          "internalType": "address",
          "name": "",
          "type": "address"
        }
      ],
      "stateMutability": "view",
      "type": "function"
    },
    {
      "inputs": [
        {
          "internalType": "uint256",
          "name": "stableCoinAmount",
          "type": "uint256"
        },
        {
          "internalType": "address",
          "name": "_refer",
          "type": "address"
        }
      ],
      "name": "register",
      "outputs": [],
      "stateMutability": "nonpayable",
      "type": "function"
    },
    {
      "inputs": [],
      "name": "renounceOwnership",
      "outputs": [],
      "stateMutability": "nonpayable",
      "type": "function"
    },
    {
      "inputs": [
        {
          "internalType": "address",
          "name": "",
          "type": "address"
        },
        {
          "internalType": "uint256",
          "name": "",
          "type": "uint256"
        }
      ],
      "name": "rewards",
      "outputs": [
        {
          "internalType": "uint256",
          "name": "rewardAmount",
          "type": "uint256"
        },
        {
          "internalType": "uint256",
          "name": "endTime",
          "type": "uint256"
        },
        {
          "internalType": "uint256",
          "name": "lastUpdateTime",
          "type": "uint256"
        }
      ],
      "stateMutability": "view",
      "type": "function"
    },
    {
      "inputs": [
        {
          "internalType": "uint256",
          "name": "_baseRegisterAmount",
          "type": "uint256"
        }
      ],
      "name": "setBaseRegisterAmount",
      "outputs": [],
      "stateMutability": "nonpayable",
      "type": "function"
    },
    {
      "inputs": [
        {
          "internalType": "address",
          "name": "_CBDToken",
          "type": "address"
        }
      ],
      "name": "setCBDToken",
      "outputs": [],
      "stateMutability": "nonpayable",
      "type": "function"
    },
    {
      "inputs": [
        {
          "internalType": "address",
          "name": "_purchaseToken",
          "type": "address"
        }
      ],
      "name": "setPurchaseToken",
      "outputs": [],
      "stateMutability": "nonpayable",
      "type": "function"
    },
    {
      "inputs": [
        {
          "internalType": "uint256",
          "name": "_newTokenPrice",
          "type": "uint256"
        }
      ],
      "name": "setTokenPrice",
      "outputs": [],
      "stateMutability": "nonpayable",
      "type": "function"
    },
    {
      "inputs": [],
      "name": "tokenPrice",
      "outputs": [
        {
          "internalType": "uint256",
          "name": "",
          "type": "uint256"
        }
      ],
      "stateMutability": "view",
      "type": "function"
    },
    {
      "inputs": [
        {
          "internalType": "address",
          "name": "newOwner",
          "type": "address"
        }
      ],
      "name": "transferOwnership",
      "outputs": [],
      "stateMutability": "nonpayable",
      "type": "function"
    },
    {
      "inputs": [
        {
          "internalType": "address",
          "name": "_user",
          "type": "address"
        }
      ],
      "name": "userRewards",
      "outputs": [
        {
          "components": [
            {
              "internalType": "uint256",
              "name": "rewardAmount",
              "type": "uint256"
            },
            {
              "internalType": "uint256",
              "name": "endTime",
              "type": "uint256"
            },
            {
              "internalType": "uint256",
              "name": "lastUpdateTime",
              "type": "uint256"
            }
          ],
          "internalType": "struct Purchase.UserRewards[]",
          "name": "",
          "type": "tuple[]"
        }
      ],
      "stateMutability": "view",
      "type": "function"
    }
  ],
  "bytecode": {
    "object": "0x608060405260326004553480156200001657600080fd5b5060405162002e1f38038062002e1f8339810160408190526200003991620000fa565b62000044336200008d565b600180546001600160a01b039586166001600160a01b0319918216179091556002805494861694821694909417909355600391909155600580549190931691161790556200014e565b600080546001600160a01b038381166001600160a01b0319831681178455604051919092169283917f8be0079c531659141344cd1fd0a4f28419497f9722a3daafe3b4186f6b6457e09190a35050565b80516001600160a01b0381168114620000f557600080fd5b919050565b600080600080608085870312156200011157600080fd5b6200011c85620000dd565b93506200012c60208601620000dd565b9250604085015191506200014360608601620000dd565b905092959194509250565b612cc1806200015e6000396000f3fe608060405234801561001057600080fd5b506004361061014d5760003560e01c80637ff9b596116100c3578063b4e3934d1161007c578063b4e3934d146102b2578063b933ceac146102c5578063c3c5a547146102f3578063dbbdf08314610326578063e174a9c414610339578063f2fde38b1461034c57600080fd5b80637ff9b596146102575780638456bd2e146102605780638da5cb5b146102735780639134709e14610284578063981a6ea314610297578063a95c4d621461029f57600080fd5b8063689ae9bf11610115578063689ae9bf146101f057806368c95f091461020357806369a69e29146102165780636a61e5fc14610229578063715018a61461023c578063741bef1a1461024457600080fd5b80630660f1e8146101525780631d509afd1461017b57806336f1187f146101bc578063372500ab146101cf5780633a8ce33c146101d9575b600080fd5b610165610160366004612766565b61035f565b6040516101729190612781565b60405180910390f35b6101a4610189366004612766565b6008602052600090815260409020546001600160a01b031681565b6040516001600160a01b039091168152602001610172565b6001546101a4906001600160a01b031681565b6101d76103f2565b005b6101e260045481565b604051908152602001610172565b6101d76101fe3660046127da565b61085a565b6101e2610211366004612766565b6108c8565b6101e2610224366004612766565b610992565b6101d76102373660046127da565b610bea565b6101d7610bf7565b6005546101a4906001600160a01b031681565b6101e260035481565b6101d761026e366004612766565b610c0b565b6000546001600160a01b03166101a4565b6101d76102923660046127f3565b610c9a565b6101e261150d565b6002546101a4906001600160a01b031681565b6101d76102c0366004612766565b61161e565b6102d86102d336600461281f565b6116a8565b60408051938452602084019290925290820152606001610172565b610316610301366004612766565b60066020526000908152604090205460ff1681565b6040519015158152602001610172565b6101d76103343660046127f3565b6116ea565b6101d76103473660046127da565b61200d565b6101d761035a366004612766565b6121de565b6001600160a01b0381166000908152600760209081526040808320805482518185028101850190935280835260609492939192909184015b828210156103e75783829060005260206000209060030201604051806060016040529081600082015481526020016001820154815260200160028201548152505081526020019060010190610397565b505050509050919050565b60005b336000908152600760205260409020548110156107e65733600090815260076020526040812080548390811061042d5761042d612849565b90600052602060002090600302016000015411156107d45733600090815260076020526040902080548290811061046657610466612849565b9060005260206000209060030201600101544210156106cd573360009081526007602052604081208054839081106104a0576104a0612849565b90600052602060002090600302016002015460076000336001600160a01b03166001600160a01b0316815260200190815260200160002083815481106104e8576104e8612849565b9060005260206000209060030201600101546105049190612875565b336000908152600760205260408120805492935090918490811061052a5761052a612849565b906000526020600020906003020160020154426105479190612875565b33600090815260076020526040812080549293509091849184918790811061057157610571612849565b90600052602060002090600302016000015461058d919061288e565b61059791906128bb565b33600090815260076020526040902080549192508291869081106105bd576105bd612849565b906000526020600020906003020160000160008282546105dd9190612875565b909155505033600090815260076020526040902080544291908690811061060657610606612849565b600091825260208083206002600390930201919091019290925533815260079091526040902080548590811061063e5761063e612849565b906000526020600020906003020160000154600003610661576106613385612254565b6001546040516340c10f1960e01b8152336004820152602481018390526001600160a01b03909116906340c10f1990604401600060405180830381600087803b1580156106ad57600080fd5b505af11580156106c1573d6000803e3d6000fd5b505050505050506107d4565b3360009081526007602052604081208054839081106106ee576106ee612849565b600091825260208083206003909202909101543383526007909152604082208054919350908490811061072357610723612849565b6000918252602080832060039092029091019290925533815260079091526040902080544291908490811061075a5761075a612849565b60009182526020909120600390910201600201556001546040516340c10f1960e01b8152336004820152602481018390526001600160a01b03909116906340c10f1990604401600060405180830381600087803b1580156107ba57600080fd5b505af11580156107ce573d6000803e3d6000fd5b50505050505b806107de816128cf565b9150506103f5565b5060005b336000908152600760205260409020548110156108575733600090815260076020526040902080548290811061082257610822612849565b906000526020600020906003020160000154600003610845576108453382612254565b8061084f816128cf565b9150506107ea565b50565b6108626123d8565b806000036108c35760405162461bcd60e51b8152602060048201526024808201527f4261736520726567697374657220616d6f756e742063616e206e6f74206265206044820152637a65726f60e01b60648201526084015b60405180910390fd5b600455565b600080805b6001600160a01b03841660009081526007602052604090205481101561098b576001600160a01b038416600090815260076020526040812080548390811061091757610917612849565b9060005260206000209060030201600001541115610979576001600160a01b038416600090815260076020526040902080548290811061095957610959612849565b9060005260206000209060030201600001548261097691906128e8565b91505b80610983816128cf565b9150506108cd565b5092915050565b600080805b6001600160a01b03841660009081526007602052604090205481101561098b576001600160a01b03841660009081526007602052604081208054839081106109e1576109e1612849565b9060005260206000209060030201600001541115610bd8576001600160a01b0384166000908152600760205260409020805482908110610a2357610a23612849565b906000526020600020906003020160010154421015610b8e576001600160a01b0384166000908152600760205260408120805483908110610a6657610a66612849565b90600052602060002090600302016002015460076000876001600160a01b03166001600160a01b031681526020019081526020016000208381548110610aae57610aae612849565b906000526020600020906003020160010154610aca9190612875565b6001600160a01b03861660009081526007602052604081208054929350909184908110610af957610af9612849565b90600052602060002090600302016002015442610b169190612875565b905060008282600760008a6001600160a01b03166001600160a01b031681526020019081526020016000208681548110610b5257610b52612849565b906000526020600020906003020160000154610b6e919061288e565b610b7891906128bb565b9050610b8481866128e8565b9450505050610bd8565b6001600160a01b0384166000908152600760205260409020805482908110610bb857610bb8612849565b90600052602060002090600302016000015482610bd591906128e8565b91505b80610be2816128cf565b915050610997565b610bf26123d8565b600355565b610bff6123d8565b610c096000612432565b565b610c136123d8565b6001600160a01b038116610c785760405162461bcd60e51b815260206004820152602660248201527f507572636861736520746f6b656e2063616e206e6f74206265207a65726f206160448201526564647265737360d01b60648201526084016108ba565b600280546001600160a01b0319166001600160a01b0392909216919091179055565b3360009081526006602052604090205460ff161515600114610cf75760405162461bcd60e51b8152602060048201526016602482015275165bdd48185c99481b9bdd081c9959da5cdd195c995960521b60448201526064016108ba565b6001600160a01b03811615610d73576001600160a01b03811660009081526006602052604090205460ff161515600114610d735760405162461bcd60e51b815260206004820152601c60248201527f596f7572207265666572206973206e6f7420726567697374657265640000000060448201526064016108ba565b6000610d7d61150d565b9050670d2f13f7789f0000811015610da75760405162461bcd60e51b81526004016108ba906128fb565b6002546040805163313ce56760e01b815290516000926001600160a01b03169163313ce5679160048083019260209291908290030181865afa158015610df1573d6000803e3d6000fd5b505050506040513d601f19601f82011682018060405250810190610e159190612932565b60ff169050336001600160a01b03841603610e425760405162461bcd60e51b81526004016108ba90612955565b6002546040516370a0823160e01b815233600482015285916001600160a01b0316906370a0823190602401602060405180830381865afa158015610e8a573d6000803e3d6000fd5b505050506040513d601f19601f82011682018060405250810190610eae9190612998565b1015610ecc5760405162461bcd60e51b81526004016108ba906129b1565b600354600090610ee486670de0b6b3a764000061288e565b610eee91906128bb565b9050600060035483600a610f029190612ae4565b610f0e906103e861288e565b610f2090670de0b6b3a764000061288e565b610f2a91906128bb565b6001546040516340c10f1960e01b8152336004820152602481018590529192506001600160a01b0316906340c10f1990604401600060405180830381600087803b158015610f7757600080fd5b505af1158015610f8b573d6000803e3d6000fd5b5050600254610fb992506001600160a01b0316905033610fb36000546001600160a01b031690565b89612482565b6001600160a01b03851615611505573360009081526008602052604080822080546001600160a01b0319166001600160a01b0389811691821790925580845282842054821680855283852054831680865293909420548994939216901580159061108f57506001546040516370a0823160e01b81526001600160a01b03868116600483015260009216906370a0823190602401602060405180830381865afa158015611069573d6000803e3d6000fd5b505050506040513d601f19601f8201168201806040525081019061108d9190612998565b115b156111b2576001546001600160a01b03166340c10f1985876110b98a674563918244f4000061288e565b6110c391906128bb565b6040516001600160e01b031960e085901b1681526001600160a01b0390921660048301526024820152604401600060405180830381600087803b15801561110957600080fd5b505af115801561111d573d6000803e3d6000fd5b5050506001600160a01b03851660009081526007602052604090819020815160608101909252915080876111598a6783d6c7aab636000061288e565b61116391906128bb565b8152602001611176426305a39a806128e8565b81524260209182015282546001818101855560009485529382902083516003909202019081559082015192810192909255604001516002909101555b6001600160a01b0383161580159061123657506001546040516370a0823160e01b81526001600160a01b03858116600483015260009216906370a0823190602401602060405180830381865afa158015611210573d6000803e3d6000fd5b505050506040513d601f19601f820116820180604052508101906112349190612998565b115b156112cc576001600160a01b038316600090815260076020526040908190208151606081019092529080876112738a6768155a43676e000061288e565b61127d91906128bb565b8152602001611290426305a39a806128e8565b81524260209182015282546001818101855560009485529382902083516003909202019081559082015192810192909255604001516002909101555b6001600160a01b0382161580159061135057506001546040516370a0823160e01b81526001600160a01b03848116600483015260009216906370a0823190602401602060405180830381865afa15801561132a573d6000803e3d6000fd5b505050506040513d601f19601f8201168201806040525081019061134e9190612998565b115b156113e6576001600160a01b0382166000908152600760205260409081902081516060810190925290808761138d8a6753444835ec58000061288e565b61139791906128bb565b81526020016113aa426305a39a806128e8565b81524260209182015282546001818101855560009485529382902083516003909202019081559082015192810192909255604001516002909101555b6001600160a01b0381161580159061146a57506001546040516370a0823160e01b81526001600160a01b03838116600483015260009216906370a0823190602401602060405180830381865afa158015611444573d6000803e3d6000fd5b505050506040513d601f19601f820116820180604052508101906114689190612998565b115b15611500576001600160a01b038116600090815260076020526040908190208151606081019092529080876114a78a673782dace9d90000061288e565b6114b191906128bb565b81526020016114c4426305a39a806128e8565b81524260209182015282546001818101855560009485529382902083516003909202019081559082015192810192909255604001516002909101555b505050505b505050505050565b600080600560009054906101000a90046001600160a01b03166001600160a01b031663feaf968c6040518163ffffffff1660e01b815260040160a060405180830381865afa158015611563573d6000803e3d6000fd5b505050506040513d601f19601f820116820180604052508101906115879190612b0a565b5050509150506000600560009054906101000a90046001600160a01b03166001600160a01b031663313ce5676040518163ffffffff1660e01b8152600401602060405180830381865afa1580156115e2573d6000803e3d6000fd5b505050506040513d601f19601f820116820180604052508101906116069190612932565b90506000611616838360126124e2565b949350505050565b6116266123d8565b6001600160a01b0381166116865760405162461bcd60e51b815260206004820152602160248201527f43424420746f6b656e2063616e206e6f74206265207a65726f206164647265736044820152607360f81b60648201526084016108ba565b600180546001600160a01b0319166001600160a01b0392909216919091179055565b600760205281600052604060002081815481106116c457600080fd5b600091825260209091206003909102018054600182015460029092015490935090915083565b6001600160a01b03811615611766576001600160a01b03811660009081526006602052604090205460ff1615156001146117665760405162461bcd60e51b815260206004820152601c60248201527f596f7572207265666572206973206e6f7420726567697374657265640000000060448201526064016108ba565b600260009054906101000a90046001600160a01b03166001600160a01b031663313ce5676040518163ffffffff1660e01b8152600401602060405180830381865afa1580156117b9573d6000803e3d6000fd5b505050506040513d601f19601f820116820180604052508101906117dd9190612932565b6117e890600a612b5a565b6004546117f5919061288e565b82101561185f5760405162461bcd60e51b815260206004820152603260248201527f596f757220616d6f756e74206973206c6f776572207468616e207468652062616044820152711cd9481c9959da5cdd195c88185b5bdd5b9d60721b60648201526084016108ba565b600061186961150d565b9050670d2f13f7789f00008110156118935760405162461bcd60e51b81526004016108ba906128fb565b6002546040805163313ce56760e01b815290516000926001600160a01b03169163313ce5679160048083019260209291908290030181865afa1580156118dd573d6000803e3d6000fd5b505050506040513d601f19601f820116820180604052508101906119019190612932565b60ff169050336001600160a01b0384160361192e5760405162461bcd60e51b81526004016108ba90612955565b6002546040516370a0823160e01b815233600482015285916001600160a01b0316906370a0823190602401602060405180830381865afa158015611976573d6000803e3d6000fd5b505050506040513d601f19601f8201168201806040525081019061199a9190612998565b10156119b85760405162461bcd60e51b81526004016108ba906129b1565b6003546000906119d086670de0b6b3a764000061288e565b6119da91906128bb565b9050600060035483600a6119ee9190612ae4565b6119fa906103e861288e565b611a0c90670de0b6b3a764000061288e565b611a1691906128bb565b6001546040516340c10f1960e01b8152336004820152602481018590529192506001600160a01b0316906340c10f1990604401600060405180830381600087803b158015611a6357600080fd5b505af1158015611a77573d6000803e3d6000fd5b5050600254611a9f92506001600160a01b0316905033610fb36000546001600160a01b031690565b6001600160a01b03851615611feb573360009081526008602052604080822080546001600160a01b0319166001600160a01b03898116918217909255808452828420548216808552838520548316808652939094205489949392169015801590611b7557506001546040516370a0823160e01b81526001600160a01b03868116600483015260009216906370a0823190602401602060405180830381865afa158015611b4f573d6000803e3d6000fd5b505050506040513d601f19601f82011682018060405250810190611b739190612998565b115b15611c98576001546001600160a01b03166340c10f198587611b9f8a674563918244f4000061288e565b611ba991906128bb565b6040516001600160e01b031960e085901b1681526001600160a01b0390921660048301526024820152604401600060405180830381600087803b158015611bef57600080fd5b505af1158015611c03573d6000803e3d6000fd5b5050506001600160a01b0385166000908152600760205260409081902081516060810190925291508087611c3f8a6783d6c7aab636000061288e565b611c4991906128bb565b8152602001611c5c426305a39a806128e8565b81524260209182015282546001818101855560009485529382902083516003909202019081559082015192810192909255604001516002909101555b6001600160a01b03831615801590611d1c57506001546040516370a0823160e01b81526001600160a01b03858116600483015260009216906370a0823190602401602060405180830381865afa158015611cf6573d6000803e3d6000fd5b505050506040513d601f19601f82011682018060405250810190611d1a9190612998565b115b15611db2576001600160a01b03831660009081526007602052604090819020815160608101909252908087611d598a6768155a43676e000061288e565b611d6391906128bb565b8152602001611d76426305a39a806128e8565b81524260209182015282546001818101855560009485529382902083516003909202019081559082015192810192909255604001516002909101555b6001600160a01b03821615801590611e3657506001546040516370a0823160e01b81526001600160a01b03848116600483015260009216906370a0823190602401602060405180830381865afa158015611e10573d6000803e3d6000fd5b505050506040513d601f19601f82011682018060405250810190611e349190612998565b115b15611ecc576001600160a01b03821660009081526007602052604090819020815160608101909252908087611e738a6753444835ec58000061288e565b611e7d91906128bb565b8152602001611e90426305a39a806128e8565b81524260209182015282546001818101855560009485529382902083516003909202019081559082015192810192909255604001516002909101555b6001600160a01b03811615801590611f5057506001546040516370a0823160e01b81526001600160a01b03838116600483015260009216906370a0823190602401602060405180830381865afa158015611f2a573d6000803e3d6000fd5b505050506040513d601f19601f82011682018060405250810190611f4e9190612998565b115b15611fe6576001600160a01b03811660009081526007602052604090819020815160608101909252908087611f8d8a673782dace9d90000061288e565b611f9791906128bb565b8152602001611faa426305a39a806128e8565b81524260209182015282546001818101855560009485529382902083516003909202019081559082015192810192909255604001516002909101555b505050505b5050336000908152600660205260409020805460ff1916600117905550505050565b3360009081526006602052604090205460ff16151560011461206a5760405162461bcd60e51b8152602060048201526016602482015275165bdd48185c99481b9bdd081c9959da5cdd195c995960521b60448201526064016108ba565b600061207461150d565b9050670d2f13f7789f000081101561209e5760405162461bcd60e51b81526004016108ba906128fb565b6002546040516370a0823160e01b815233600482015283916001600160a01b0316906370a0823190602401602060405180830381865afa1580156120e6573d6000803e3d6000fd5b505050506040513d601f19601f8201168201806040525081019061210a9190612998565b10156121285760405162461bcd60e51b81526004016108ba906129b1565b60035460009061214084670de0b6b3a764000061288e565b61214a91906128bb565b6001546040516340c10f1960e01b8152336004820152602481018390529192506001600160a01b0316906340c10f1990604401600060405180830381600087803b15801561219757600080fd5b505af11580156121ab573d6000803e3d6000fd5b50506002546121d992506001600160a01b03169050336121d36000546001600160a01b031690565b86612482565b505050565b6121e66123d8565b6001600160a01b03811661224b5760405162461bcd60e51b815260206004820152602660248201527f4f776e61626c653a206e6577206f776e657220697320746865207a65726f206160448201526564647265737360d01b60648201526084016108ba565b61085781612432565b805b6001600160a01b03831660009081526007602052604090205461227b90600190612875565b811015612333576001600160a01b03831660009081526007602052604090206122a58260016128e8565b815481106122b5576122b5612849565b906000526020600020906003020160076000856001600160a01b03166001600160a01b0316815260200190815260200160002082815481106122f9576122f9612849565b600091825260209091208254600390920201908155600180830154908201556002918201549101558061232b816128cf565b915050612256565b506001600160a01b0382166000908152600760205260409020805461235a90600190612875565b8154811061236a5761236a612849565b600091825260208083206003909202909101828155600181018390556002018290556001600160a01b038416825260079052604090208054806123af576123af612b69565b600082815260208120600360001990930192830201818155600181018290556002015590555050565b6000546001600160a01b03163314610c095760405162461bcd60e51b815260206004820181905260248201527f4f776e61626c653a2063616c6c6572206973206e6f7420746865206f776e657260448201526064016108ba565b600080546001600160a01b038381166001600160a01b0319831681178455604051919092169283917f8be0079c531659141344cd1fd0a4f28419497f9722a3daafe3b4186f6b6457e09190a35050565b604080516001600160a01b0385811660248301528416604482015260648082018490528251808303909101815260849091019091526020810180516001600160e01b03166323b872dd60e01b1790526124dc908590612555565b50505050565b60008160ff168360ff16101561251b576124fc8383612b7f565b61250a9060ff16600a612ae4565b6125149085612b98565b905061254e565b8160ff168360ff16111561254b576125338284612b7f565b6125419060ff16600a612ae4565b6125149085612bc8565b50825b9392505050565b60006125aa826040518060400160405280602081526020017f5361666545524332303a206c6f772d6c6576656c2063616c6c206661696c6564815250856001600160a01b03166126279092919063ffffffff16565b8051909150156121d957808060200190518101906125c89190612bf6565b6121d95760405162461bcd60e51b815260206004820152602a60248201527f5361666545524332303a204552433230206f7065726174696f6e20646964206e6044820152691bdd081cdd58d8d9595960b21b60648201526084016108ba565b6060611616848460008585600080866001600160a01b0316858760405161264e9190612c3c565b60006040518083038185875af1925050503d806000811461268b576040519150601f19603f3d011682016040523d82523d6000602084013e612690565b606091505b50915091506126a1878383876126ac565b979650505050505050565b6060831561271b578251600003612714576001600160a01b0385163b6127145760405162461bcd60e51b815260206004820152601d60248201527f416464726573733a2063616c6c20746f206e6f6e2d636f6e747261637400000060448201526064016108ba565b5081611616565b61161683838151156127305781518083602001fd5b8060405162461bcd60e51b81526004016108ba9190612c58565b80356001600160a01b038116811461276157600080fd5b919050565b60006020828403121561277857600080fd5b61254e8261274a565b602080825282518282018190526000919060409081850190868401855b828110156127cd578151805185528681015187860152850151858501526060909301929085019060010161279e565b5091979650505050505050565b6000602082840312156127ec57600080fd5b5035919050565b6000806040838503121561280657600080fd5b823591506128166020840161274a565b90509250929050565b6000806040838503121561283257600080fd5b61283b8361274a565b946020939093013593505050565b634e487b7160e01b600052603260045260246000fd5b634e487b7160e01b600052601160045260246000fd5b818103818111156128885761288861285f565b92915050565b80820281158282048414176128885761288861285f565b634e487b7160e01b600052601260045260246000fd5b6000826128ca576128ca6128a5565b500490565b6000600182016128e1576128e161285f565b5060010190565b808201808211156128885761288861285f565b6020808252601e908201527f55534443207072696365206973206e6f742061626f766520302e393520240000604082015260600190565b60006020828403121561294457600080fd5b815160ff8116811461254e57600080fd5b60208082526023908201527f596f752063616e27742070757420796f757220616464726573732061732072656040820152623332b960e91b606082015260800190565b6000602082840312156129aa57600080fd5b5051919050565b6020808252602f908201527f596f7520646f6e2774206861766520656e6f75676820737461626c65636f696e60408201526e2062616c616e636520746f2062757960881b606082015260800190565b600181815b80851115612a3b578160001904821115612a2157612a2161285f565b80851615612a2e57918102915b93841c9390800290612a05565b509250929050565b600082612a5257506001612888565b81612a5f57506000612888565b8160018114612a755760028114612a7f57612a9b565b6001915050612888565b60ff841115612a9057612a9061285f565b50506001821b612888565b5060208310610133831016604e8410600b8410161715612abe575081810a612888565b612ac88383612a00565b8060001904821115612adc57612adc61285f565b029392505050565b600061254e8383612a43565b805169ffffffffffffffffffff8116811461276157600080fd5b600080600080600060a08688031215612b2257600080fd5b612b2b86612af0565b9450602086015193506040860151925060608601519150612b4e60808701612af0565b90509295509295909350565b600061254e60ff841683612a43565b634e487b7160e01b600052603160045260246000fd5b60ff82811682821603908111156128885761288861285f565b80820260008212600160ff1b84141615612bb457612bb461285f565b81810583148215176128885761288861285f565b600082612bd757612bd76128a5565b600160ff1b821460001984141615612bf157612bf161285f565b500590565b600060208284031215612c0857600080fd5b8151801515811461254e57600080fd5b60005b83811015612c33578181015183820152602001612c1b565b50506000910152565b60008251612c4e818460208701612c18565b9190910192915050565b6020815260008251806020840152612c77816040850160208701612c18565b601f01601f1916919091016040019291505056fea264697066735822122056a9fecd0dbff296014811427059006243ec5cde143170d6962d372d75389c0264736f6c63430008110033",
    "linkReferences": {}
  },
  "methodIdentifiers": {
    "allRewardAmounts(address)": "68c95f09",
    "baseRegisterAmount()": "3a8ce33c",
    "buyToken(uint256,address)": "9134709e",
    "buyTokenWhitoutRef(uint256)": "e174a9c4",
    "cbdToken()": "36f1187f",
    "claimRewards()": "372500ab",
    "getOracleUsdcPrice()": "981a6ea3",
    "getUnclaimedRewards(address)": "69a69e29",
    "isRegistered(address)": "c3c5a547",
    "owner()": "8da5cb5b",
    "priceFeed()": "741bef1a",
    "purchaseToken()": "a95c4d62",
    "refer(address)": "1d509afd",
    "register(uint256,address)": "dbbdf083",
    "renounceOwnership()": "715018a6",
    "rewards(address,uint256)": "b933ceac",
    "setBaseRegisterAmount(uint256)": "689ae9bf",
    "setCBDToken(address)": "b4e3934d",
    "setPurchaseToken(address)": "8456bd2e",
    "setTokenPrice(uint256)": "6a61e5fc",
    "tokenPrice()": "7ff9b596",
    "transferOwnership(address)": "f2fde38b",
    "userRewards(address)": "0660f1e8"
  },
  "id": 1
}