{
  "abi": [
    {
      "inputs": [
        {
          "internalType": "address",
          "name": "_cbdToken",
          "type": "address"
        },
        {
          "internalType": "address",
          "name": "_purchaseToken",
          "type": "address"
        },
        {
          "internalType": "uint256",
          "name": "_tokenPrice",
          "type": "uint256"
        },
        {
          "internalType": "address",
          "name": "_priceFeed",
          "type": "address"
        }
      ],
      "stateMutability": "nonpayable",
      "type": "constructor"
    },
    {
      "anonymous": false,
      "inputs": [
        {
          "indexed": true,
          "internalType": "address",
          "name": "previousOwner",
          "type": "address"
        },
        {
          "indexed": true,
          "internalType": "address",
          "name": "newOwner",
          "type": "address"
        }
      ],
      "name": "OwnershipTransferred",
      "type": "event"
    },
    {
      "inputs": [
        {
          "internalType": "address",
          "name": "_user",
          "type": "address"
        }
      ],
      "name": "allRewardAmounts",
      "outputs": [
        {
          "internalType": "uint256",
          "name": "",
          "type": "uint256"
        }
      ],
      "stateMutability": "view",
      "type": "function"
    },
    {
      "inputs": [
        {
          "internalType": "uint256",
          "name": "stableCoinAmount",
          "type": "uint256"
        },
        {
          "internalType": "address",
          "name": "_refer",
          "type": "address"
        }
      ],
      "name": "buyToken",
      "outputs": [],
      "stateMutability": "nonpayable",
      "type": "function"
    },
    {
      "inputs": [],
      "name": "cbdToken",
      "outputs": [
        {
          "internalType": "contract CBDToken",
          "name": "",
          "type": "address"
        }
      ],
      "stateMutability": "view",
      "type": "function"
    },
    {
      "inputs": [],
      "name": "claimRewards",
      "outputs": [],
      "stateMutability": "nonpayable",
      "type": "function"
    },
    {
      "inputs": [],
      "name": "getOracleUsdcPrice",
      "outputs": [
        {
          "internalType": "uint256",
          "name": "",
          "type": "uint256"
        }
      ],
      "stateMutability": "view",
      "type": "function"
    },
    {
      "inputs": [
        {
          "internalType": "address",
          "name": "_user",
          "type": "address"
        }
      ],
      "name": "getUnclaimedRewards",
      "outputs": [
        {
          "internalType": "uint256",
          "name": "",
          "type": "uint256"
        }
      ],
      "stateMutability": "view",
      "type": "function"
    },
    {
      "inputs": [],
      "name": "owner",
      "outputs": [
        {
          "internalType": "address",
          "name": "",
          "type": "address"
        }
      ],
      "stateMutability": "view",
      "type": "function"
    },
    {
      "inputs": [],
      "name": "priceFeed",
      "outputs": [
        {
          "internalType": "contract AggregatorV3Interface",
          "name": "",
          "type": "address"
        }
      ],
      "stateMutability": "view",
      "type": "function"
    },
    {
      "inputs": [],
      "name": "purchaseToken",
      "outputs": [
        {
          "internalType": "address",
          "name": "",
          "type": "address"
        }
      ],
      "stateMutability": "view",
      "type": "function"
    },
    {
      "inputs": [
        {
          "internalType": "address",
          "name": "",
          "type": "address"
        }
      ],
      "name": "refer",
      "outputs": [
        {
          "internalType": "address",
          "name": "",
          "type": "address"
        }
      ],
      "stateMutability": "view",
      "type": "function"
    },
    {
      "inputs": [],
      "name": "renounceOwnership",
      "outputs": [],
      "stateMutability": "nonpayable",
      "type": "function"
    },
    {
      "inputs": [
        {
          "internalType": "address",
          "name": "",
          "type": "address"
        },
        {
          "internalType": "uint256",
          "name": "",
          "type": "uint256"
        }
      ],
      "name": "rewards",
      "outputs": [
        {
          "internalType": "uint256",
          "name": "rewardAmount",
          "type": "uint256"
        },
        {
          "internalType": "uint256",
          "name": "endTime",
          "type": "uint256"
        },
        {
          "internalType": "uint256",
          "name": "lastUpdateTime",
          "type": "uint256"
        }
      ],
      "stateMutability": "view",
      "type": "function"
    },
    {
      "inputs": [
        {
          "internalType": "address",
          "name": "_CBDToken",
          "type": "address"
        }
      ],
      "name": "setCBDToken",
      "outputs": [],
      "stateMutability": "nonpayable",
      "type": "function"
    },
    {
      "inputs": [
        {
          "internalType": "address",
          "name": "_purchaseToken",
          "type": "address"
        }
      ],
      "name": "setPurchaseToken",
      "outputs": [],
      "stateMutability": "nonpayable",
      "type": "function"
    },
    {
      "inputs": [
        {
          "internalType": "uint256",
          "name": "_newTokenPrice",
          "type": "uint256"
        }
      ],
      "name": "setTokenPrice",
      "outputs": [],
      "stateMutability": "nonpayable",
      "type": "function"
    },
    {
      "inputs": [],
      "name": "tokenPrice",
      "outputs": [
        {
          "internalType": "uint256",
          "name": "",
          "type": "uint256"
        }
      ],
      "stateMutability": "view",
      "type": "function"
    },
    {
      "inputs": [
        {
          "internalType": "address",
          "name": "newOwner",
          "type": "address"
        }
      ],
      "name": "transferOwnership",
      "outputs": [],
      "stateMutability": "nonpayable",
      "type": "function"
    },
    {
      "inputs": [
        {
          "internalType": "address",
          "name": "_user",
          "type": "address"
        }
      ],
      "name": "userRewards",
      "outputs": [
        {
          "components": [
            {
              "internalType": "uint256",
              "name": "rewardAmount",
              "type": "uint256"
            },
            {
              "internalType": "uint256",
              "name": "endTime",
              "type": "uint256"
            },
            {
              "internalType": "uint256",
              "name": "lastUpdateTime",
              "type": "uint256"
            }
          ],
          "internalType": "struct Purchase.UserRewards[]",
          "name": "",
          "type": "tuple[]"
        }
      ],
      "stateMutability": "view",
      "type": "function"
    }
  ],
  "bytecode": {
    "object": "0x60806040523480156200001157600080fd5b5060405162002117380380620021178339810160408190526200003491620000f5565b6200003f3362000088565b600180546001600160a01b039586166001600160a01b03199182161790915560028054948616948216949094179093556003919091556004805491909316911617905562000149565b600080546001600160a01b038381166001600160a01b0319831681178455604051919092169283917f8be0079c531659141344cd1fd0a4f28419497f9722a3daafe3b4186f6b6457e09190a35050565b80516001600160a01b0381168114620000f057600080fd5b919050565b600080600080608085870312156200010c57600080fd5b6200011785620000d8565b93506200012760208601620000d8565b9250604085015191506200013e60608601620000d8565b905092959194509250565b611fbe80620001596000396000f3fe608060405234801561001057600080fd5b50600436106101165760003560e01c80637ff9b596116100a2578063981a6ea311610071578063981a6ea314610244578063a95c4d621461024c578063b4e3934d1461025f578063b933ceac14610272578063f2fde38b146102a057600080fd5b80637ff9b596146102045780638456bd2e1461020d5780638da5cb5b146102205780639134709e1461023157600080fd5b806368c95f09116100e957806368c95f09146101a257806369a69e29146101c35780636a61e5fc146101d6578063715018a6146101e9578063741bef1a146101f157600080fd5b80630660f1e81461011b5780631d509afd1461014457806336f1187f14610185578063372500ab14610198575b600080fd5b61012e610129366004611b3b565b6102b3565b60405161013b9190611b56565b60405180910390f35b61016d610152366004611b3b565b6006602052600090815260409020546001600160a01b031681565b6040516001600160a01b03909116815260200161013b565b60015461016d906001600160a01b031681565b6101a0610346565b005b6101b56101b0366004611b3b565b6107ae565b60405190815260200161013b565b6101b56101d1366004611b3b565b610878565b6101a06101e4366004611baf565b610ad0565b6101a0610add565b60045461016d906001600160a01b031681565b6101b560035481565b6101a061021b366004611b3b565b610af1565b6000546001600160a01b031661016d565b6101a061023f366004611bc8565b610b85565b6101b56113e9565b60025461016d906001600160a01b031681565b6101a061026d366004611b3b565b6114e2565b610285610280366004611bf4565b61156c565b6040805193845260208401929092529082015260600161013b565b6101a06102ae366004611b3b565b6115ae565b6001600160a01b0381166000908152600560209081526040808320805482518185028101850190935280835260609492939192909184015b8282101561033b57838290600052602060002090600302016040518060600160405290816000820154815260200160018201548152602001600282015481525050815260200190600101906102eb565b505050509050919050565b60005b3360009081526005602052604090205481101561073a5733600090815260056020526040812080548390811061038157610381611c1e565b9060005260206000209060030201600001541115610728573360009081526005602052604090208054829081106103ba576103ba611c1e565b906000526020600020906003020160010154421015610621573360009081526005602052604081208054839081106103f4576103f4611c1e565b90600052602060002090600302016002015460056000336001600160a01b03166001600160a01b03168152602001908152602001600020838154811061043c5761043c611c1e565b9060005260206000209060030201600101546104589190611c4a565b336000908152600560205260408120805492935090918490811061047e5761047e611c1e565b9060005260206000209060030201600201544261049b9190611c4a565b3360009081526005602052604081208054929350909184918491879081106104c5576104c5611c1e565b9060005260206000209060030201600001546104e19190611c63565b6104eb9190611c90565b336000908152600560205260409020805491925082918690811061051157610511611c1e565b906000526020600020906003020160000160008282546105319190611c4a565b909155505033600090815260056020526040902080544291908690811061055a5761055a611c1e565b600091825260208083206002600390930201919091019290925533815260059091526040902080548590811061059257610592611c1e565b9060005260206000209060030201600001546000036105b5576105b53385611624565b6001546040516340c10f1960e01b8152336004820152602481018390526001600160a01b03909116906340c10f1990604401600060405180830381600087803b15801561060157600080fd5b505af1158015610615573d6000803e3d6000fd5b50505050505050610728565b33600090815260056020526040812080548390811061064257610642611c1e565b600091825260208083206003909202909101543383526005909152604082208054919350908490811061067757610677611c1e565b600091825260208083206003909202909101929092553381526005909152604090208054429190849081106106ae576106ae611c1e565b60009182526020909120600390910201600201556001546040516340c10f1960e01b8152336004820152602481018390526001600160a01b03909116906340c10f1990604401600060405180830381600087803b15801561070e57600080fd5b505af1158015610722573d6000803e3d6000fd5b50505050505b8061073281611ca4565b915050610349565b5060005b336000908152600560205260409020548110156107ab5733600090815260056020526040902080548290811061077657610776611c1e565b906000526020600020906003020160000154600003610799576107993382611624565b806107a381611ca4565b91505061073e565b50565b600080805b6001600160a01b038416600090815260056020526040902054811015610871576001600160a01b03841660009081526005602052604081208054839081106107fd576107fd611c1e565b906000526020600020906003020160000154111561085f576001600160a01b038416600090815260056020526040902080548290811061083f5761083f611c1e565b9060005260206000209060030201600001548261085c9190611cbd565b91505b8061086981611ca4565b9150506107b3565b5092915050565b600080805b6001600160a01b038416600090815260056020526040902054811015610871576001600160a01b03841660009081526005602052604081208054839081106108c7576108c7611c1e565b9060005260206000209060030201600001541115610abe576001600160a01b038416600090815260056020526040902080548290811061090957610909611c1e565b906000526020600020906003020160010154421015610a74576001600160a01b038416600090815260056020526040812080548390811061094c5761094c611c1e565b90600052602060002090600302016002015460056000876001600160a01b03166001600160a01b03168152602001908152602001600020838154811061099457610994611c1e565b9060005260206000209060030201600101546109b09190611c4a565b6001600160a01b038616600090815260056020526040812080549293509091849081106109df576109df611c1e565b906000526020600020906003020160020154426109fc9190611c4a565b905060008282600560008a6001600160a01b03166001600160a01b031681526020019081526020016000208681548110610a3857610a38611c1e565b906000526020600020906003020160000154610a549190611c63565b610a5e9190611c90565b9050610a6a8186611cbd565b9450505050610abe565b6001600160a01b0384166000908152600560205260409020805482908110610a9e57610a9e611c1e565b90600052602060002090600302016000015482610abb9190611cbd565b91505b80610ac881611ca4565b91505061087d565b610ad86117a8565b600355565b610ae56117a8565b610aef6000611802565b565b610af96117a8565b6001600160a01b038116610b635760405162461bcd60e51b815260206004820152602660248201527f507572636861736520746f6b656e2063616e206e6f74206265207a65726f206160448201526564647265737360d01b60648201526084015b60405180910390fd5b600280546001600160a01b0319166001600160a01b0392909216919091179055565b6000610b8f6113e9565b9050670d2f13f7789f0000811015610be95760405162461bcd60e51b815260206004820152601e60248201527f55534443207072696365206973206e6f742061626f766520302e3935202400006044820152606401610b5a565b6002546040805163313ce56760e01b815290516000926001600160a01b03169163313ce5679160048083019260209291908290030181865afa158015610c33573d6000803e3d6000fd5b505050506040513d601f19601f82011682018060405250810190610c579190611cd0565b60ff169050610c6781600a611dd7565b610c73906101f4611c63565b841480610c955750610c8681600a611dd7565b610c92906103e8611c63565b84145b80610cb55750610ca681600a611dd7565b610cb2906107d0611c63565b84145b610d1c5760405162461bcd60e51b815260206004820152603260248201527f537461626c6520636f696e20616d6f756e742073686f756c642062652035303060448201527109081bdc880c4c0c09081bdc880c8c0c0c0960721b6064820152608401610b5a565b336001600160a01b03841603610d805760405162461bcd60e51b815260206004820152602360248201527f596f752063616e27742070757420796f757220616464726573732061732072656044820152623332b960e91b6064820152608401610b5a565b6002546040516370a0823160e01b815233600482015285916001600160a01b0316906370a0823190602401602060405180830381865afa158015610dc8573d6000803e3d6000fd5b505050506040513d601f19601f82011682018060405250810190610dec9190611de3565b1015610e525760405162461bcd60e51b815260206004820152602f60248201527f596f7520646f6e2774206861766520656e6f75676820737461626c65636f696e60448201526e2062616c616e636520746f2062757960881b6064820152608401610b5a565b600354600090610e6a86670de0b6b3a7640000611c63565b610e749190611c90565b6001546040516340c10f1960e01b8152336004820152602481018390529192506001600160a01b0316906340c10f1990604401600060405180830381600087803b158015610ec157600080fd5b505af1158015610ed5573d6000803e3d6000fd5b5050600254610f0392506001600160a01b0316905033610efd6000546001600160a01b031690565b88611852565b6001600160a01b038416156113e2573360009081526006602052604080822080546001600160a01b0319166001600160a01b03888116918217909255808452828420548216808552838520548316808652939094205488949392169015801590610fd957506001546040516370a0823160e01b81526001600160a01b03868116600483015260009216906370a0823190602401602060405180830381865afa158015610fb3573d6000803e3d6000fd5b505050506040513d601f19601f82011682018060405250810190610fd79190611de3565b115b156110c8576001546040516340c10f1960e01b81526001600160a01b038681166004830152674563918244f400006024830152909116906340c10f1990604401600060405180830381600087803b15801561103357600080fd5b505af1158015611047573d6000803e3d6000fd5b5050506001600160a01b0385166000908152600560209081526040918290208251606081019093526783d6c7aab636000083529250810161108c426305a39a80611cbd565b81524260209182015282546001818101855560009485529382902083516003909202019081559082015192810192909255604001516002909101555b6001600160a01b0383161580159061114c57506001546040516370a0823160e01b81526001600160a01b03858116600483015260009216906370a0823190602401602060405180830381865afa158015611126573d6000803e3d6000fd5b505050506040513d601f19601f8201168201806040525081019061114a9190611de3565b115b156111cf576001600160a01b0383166000908152600560209081526040918290208251606081019093526768155a43676e0000835291908101611193426305a39a80611cbd565b81524260209182015282546001818101855560009485529382902083516003909202019081559082015192810192909255604001516002909101555b6001600160a01b0382161580159061125357506001546040516370a0823160e01b81526001600160a01b03848116600483015260009216906370a0823190602401602060405180830381865afa15801561122d573d6000803e3d6000fd5b505050506040513d601f19601f820116820180604052508101906112519190611de3565b115b156112d6576001600160a01b0382166000908152600560209081526040918290208251606081019093526753444835ec58000083529190810161129a426305a39a80611cbd565b81524260209182015282546001818101855560009485529382902083516003909202019081559082015192810192909255604001516002909101555b6001600160a01b0381161580159061135a57506001546040516370a0823160e01b81526001600160a01b03838116600483015260009216906370a0823190602401602060405180830381865afa158015611334573d6000803e3d6000fd5b505050506040513d601f19601f820116820180604052508101906113589190611de3565b115b156113dd576001600160a01b038116600090815260056020908152604091829020825160608101909352673782dace9d9000008352919081016113a1426305a39a80611cbd565b81524260209182015282546001818101855560009485529382902083516003909202019081559082015192810192909255604001516002909101555b505050505b5050505050565b6004805460408051633fabe5a360e21b8152905160009384936001600160a01b03169263feaf968c928183019260a0928290030181865afa158015611432573d6000803e3d6000fd5b505050506040513d601f19601f820116820180604052508101906114569190611e16565b5050600480546040805163313ce56760e01b81529051949650600095506001600160a01b039091169363313ce5679350818301926020928290030181865afa1580156114a6573d6000803e3d6000fd5b505050506040513d601f19601f820116820180604052508101906114ca9190611cd0565b905060006114da838360126118b2565b949350505050565b6114ea6117a8565b6001600160a01b03811661154a5760405162461bcd60e51b815260206004820152602160248201527f43424420746f6b656e2063616e206e6f74206265207a65726f206164647265736044820152607360f81b6064820152608401610b5a565b600180546001600160a01b0319166001600160a01b0392909216919091179055565b6005602052816000526040600020818154811061158857600080fd5b600091825260209091206003909102018054600182015460029092015490935090915083565b6115b66117a8565b6001600160a01b03811661161b5760405162461bcd60e51b815260206004820152602660248201527f4f776e61626c653a206e6577206f776e657220697320746865207a65726f206160448201526564647265737360d01b6064820152608401610b5a565b6107ab81611802565b805b6001600160a01b03831660009081526005602052604090205461164b90600190611c4a565b811015611703576001600160a01b0383166000908152600560205260409020611675826001611cbd565b8154811061168557611685611c1e565b906000526020600020906003020160056000856001600160a01b03166001600160a01b0316815260200190815260200160002082815481106116c9576116c9611c1e565b60009182526020909120825460039092020190815560018083015490820155600291820154910155806116fb81611ca4565b915050611626565b506001600160a01b0382166000908152600560205260409020805461172a90600190611c4a565b8154811061173a5761173a611c1e565b600091825260208083206003909202909101828155600181018390556002018290556001600160a01b0384168252600590526040902080548061177f5761177f611e66565b600082815260208120600360001990930192830201818155600181018290556002015590555050565b6000546001600160a01b03163314610aef5760405162461bcd60e51b815260206004820181905260248201527f4f776e61626c653a2063616c6c6572206973206e6f7420746865206f776e65726044820152606401610b5a565b600080546001600160a01b038381166001600160a01b0319831681178455604051919092169283917f8be0079c531659141344cd1fd0a4f28419497f9722a3daafe3b4186f6b6457e09190a35050565b604080516001600160a01b0385811660248301528416604482015260648082018490528251808303909101815260849091019091526020810180516001600160e01b03166323b872dd60e01b1790526118ac908590611925565b50505050565b60008160ff168360ff1610156118eb576118cc8383611e7c565b6118da9060ff16600a611dd7565b6118e49085611e95565b905061191e565b8160ff168360ff16111561191b576119038284611e7c565b6119119060ff16600a611dd7565b6118e49085611ec5565b50825b9392505050565b600061197a826040518060400160405280602081526020017f5361666545524332303a206c6f772d6c6576656c2063616c6c206661696c6564815250856001600160a01b03166119fc9092919063ffffffff16565b8051909150156119f757808060200190518101906119989190611ef3565b6119f75760405162461bcd60e51b815260206004820152602a60248201527f5361666545524332303a204552433230206f7065726174696f6e20646964206e6044820152691bdd081cdd58d8d9595960b21b6064820152608401610b5a565b505050565b60606114da848460008585600080866001600160a01b03168587604051611a239190611f39565b60006040518083038185875af1925050503d8060008114611a60576040519150601f19603f3d011682016040523d82523d6000602084013e611a65565b606091505b5091509150611a7687838387611a81565b979650505050505050565b60608315611af0578251600003611ae9576001600160a01b0385163b611ae95760405162461bcd60e51b815260206004820152601d60248201527f416464726573733a2063616c6c20746f206e6f6e2d636f6e74726163740000006044820152606401610b5a565b50816114da565b6114da8383815115611b055781518083602001fd5b8060405162461bcd60e51b8152600401610b5a9190611f55565b80356001600160a01b0381168114611b3657600080fd5b919050565b600060208284031215611b4d57600080fd5b61191e82611b1f565b602080825282518282018190526000919060409081850190868401855b82811015611ba25781518051855286810151878601528501518585015260609093019290850190600101611b73565b5091979650505050505050565b600060208284031215611bc157600080fd5b5035919050565b60008060408385031215611bdb57600080fd5b82359150611beb60208401611b1f565b90509250929050565b60008060408385031215611c0757600080fd5b611c1083611b1f565b946020939093013593505050565b634e487b7160e01b600052603260045260246000fd5b634e487b7160e01b600052601160045260246000fd5b81810381811115611c5d57611c5d611c34565b92915050565b8082028115828204841417611c5d57611c5d611c34565b634e487b7160e01b600052601260045260246000fd5b600082611c9f57611c9f611c7a565b500490565b600060018201611cb657611cb6611c34565b5060010190565b80820180821115611c5d57611c5d611c34565b600060208284031215611ce257600080fd5b815160ff8116811461191e57600080fd5b600181815b80851115611d2e578160001904821115611d1457611d14611c34565b80851615611d2157918102915b93841c9390800290611cf8565b509250929050565b600082611d4557506001611c5d565b81611d5257506000611c5d565b8160018114611d685760028114611d7257611d8e565b6001915050611c5d565b60ff841115611d8357611d83611c34565b50506001821b611c5d565b5060208310610133831016604e8410600b8410161715611db1575081810a611c5d565b611dbb8383611cf3565b8060001904821115611dcf57611dcf611c34565b029392505050565b600061191e8383611d36565b600060208284031215611df557600080fd5b5051919050565b805169ffffffffffffffffffff81168114611b3657600080fd5b600080600080600060a08688031215611e2e57600080fd5b611e3786611dfc565b9450602086015193506040860151925060608601519150611e5a60808701611dfc565b90509295509295909350565b634e487b7160e01b600052603160045260246000fd5b60ff8281168282160390811115611c5d57611c5d611c34565b80820260008212600160ff1b84141615611eb157611eb1611c34565b8181058314821517611c5d57611c5d611c34565b600082611ed457611ed4611c7a565b600160ff1b821460001984141615611eee57611eee611c34565b500590565b600060208284031215611f0557600080fd5b8151801515811461191e57600080fd5b60005b83811015611f30578181015183820152602001611f18565b50506000910152565b60008251611f4b818460208701611f15565b9190910192915050565b6020815260008251806020840152611f74816040850160208701611f15565b601f01601f1916919091016040019291505056fea2646970667358221220973d0f4e7ad5e151f6027ee384c90874c3960d051e5c56d24290fb061b7d4c2164736f6c63430008110033",
    "linkReferences": {}
  },
  "methodIdentifiers": {
    "allRewardAmounts(address)": "68c95f09",
    "buyToken(uint256,address)": "9134709e",
    "cbdToken()": "36f1187f",
    "claimRewards()": "372500ab",
    "getOracleUsdcPrice()": "981a6ea3",
    "getUnclaimedRewards(address)": "69a69e29",
    "owner()": "8da5cb5b",
    "priceFeed()": "741bef1a",
    "purchaseToken()": "a95c4d62",
    "refer(address)": "1d509afd",
    "renounceOwnership()": "715018a6",
    "rewards(address,uint256)": "b933ceac",
    "setCBDToken(address)": "b4e3934d",
    "setPurchaseToken(address)": "8456bd2e",
    "setTokenPrice(uint256)": "6a61e5fc",
    "tokenPrice()": "7ff9b596",
    "transferOwnership(address)": "f2fde38b",
    "userRewards(address)": "0660f1e8"
  },
  "id": 1
}