{
  "abi": [
    {
      "inputs": [
        {
          "internalType": "address",
          "name": "_cbdToken",
          "type": "address"
        },
        {
          "internalType": "address",
          "name": "_purchaseToken",
          "type": "address"
        },
        {
          "internalType": "uint256",
          "name": "_tokenPrice",
          "type": "uint256"
        },
        {
          "internalType": "address",
          "name": "_priceFeed",
          "type": "address"
        }
      ],
      "stateMutability": "nonpayable",
      "type": "constructor"
    },
    {
      "anonymous": false,
      "inputs": [
        {
          "indexed": true,
          "internalType": "address",
          "name": "previousOwner",
          "type": "address"
        },
        {
          "indexed": true,
          "internalType": "address",
          "name": "newOwner",
          "type": "address"
        }
      ],
      "name": "OwnershipTransferred",
      "type": "event"
    },
    {
      "inputs": [
        {
          "internalType": "address",
          "name": "_user",
          "type": "address"
        }
      ],
      "name": "allRewardAmounts",
      "outputs": [
        {
          "internalType": "uint256",
          "name": "",
          "type": "uint256"
        }
      ],
      "stateMutability": "view",
      "type": "function"
    },
    {
      "inputs": [
        {
          "internalType": "uint256",
          "name": "",
          "type": "uint256"
        }
      ],
      "name": "allowedAmounts",
      "outputs": [
        {
          "internalType": "bool",
          "name": "isAllowed",
          "type": "bool"
        },
        {
          "internalType": "uint256",
          "name": "totalReward",
          "type": "uint256"
        }
      ],
      "stateMutability": "view",
      "type": "function"
    },
    {
      "inputs": [
        {
          "internalType": "uint256",
          "name": "_amount",
          "type": "uint256"
        },
        {
          "internalType": "uint256",
          "name": "_totalRewardByAmount",
          "type": "uint256"
        }
      ],
      "name": "anableAllawanceForAmount",
      "outputs": [],
      "stateMutability": "nonpayable",
      "type": "function"
    },
    {
      "inputs": [],
      "name": "baseRegisterAmount",
      "outputs": [
        {
          "internalType": "uint256",
          "name": "",
          "type": "uint256"
        }
      ],
      "stateMutability": "view",
      "type": "function"
    },
    {
      "inputs": [
        {
          "internalType": "uint256",
          "name": "stableCoinAmount",
          "type": "uint256"
        },
        {
          "internalType": "address",
          "name": "_refer",
          "type": "address"
        }
      ],
      "name": "buyToken",
      "outputs": [],
      "stateMutability": "nonpayable",
      "type": "function"
    },
    {
      "inputs": [
        {
          "internalType": "uint256",
          "name": "stableCoinAmount",
          "type": "uint256"
        }
      ],
      "name": "buyTokenWhitoutRef",
      "outputs": [],
      "stateMutability": "nonpayable",
      "type": "function"
    },
    {
      "inputs": [],
      "name": "cbdToken",
      "outputs": [
        {
          "internalType": "contract CBDToken",
          "name": "",
          "type": "address"
        }
      ],
      "stateMutability": "view",
      "type": "function"
    },
    {
      "inputs": [
        {
          "internalType": "bool",
          "name": "_status",
          "type": "bool"
        }
      ],
      "name": "changeAllowAmountsActivation",
      "outputs": [],
      "stateMutability": "nonpayable",
      "type": "function"
    },
    {
      "inputs": [],
      "name": "claimRewards",
      "outputs": [],
      "stateMutability": "nonpayable",
      "type": "function"
    },
    {
      "inputs": [
        {
          "internalType": "uint256",
          "name": "_amount",
          "type": "uint256"
        }
      ],
      "name": "disableAllawanceForAmount",
      "outputs": [],
      "stateMutability": "nonpayable",
      "type": "function"
    },
    {
      "inputs": [],
      "name": "getOracleUsdcPrice",
      "outputs": [
        {
          "internalType": "uint256",
          "name": "",
          "type": "uint256"
        }
      ],
      "stateMutability": "view",
      "type": "function"
    },
    {
      "inputs": [
        {
          "internalType": "address",
          "name": "_user",
          "type": "address"
        }
      ],
      "name": "getUnclaimedRewards",
      "outputs": [
        {
          "internalType": "uint256",
          "name": "",
          "type": "uint256"
        }
      ],
      "stateMutability": "view",
      "type": "function"
    },
    {
      "inputs": [
        {
          "internalType": "address",
          "name": "",
          "type": "address"
        }
      ],
      "name": "isRegistered",
      "outputs": [
        {
          "internalType": "bool",
          "name": "",
          "type": "bool"
        }
      ],
      "stateMutability": "view",
      "type": "function"
    },
    {
      "inputs": [],
      "name": "owner",
      "outputs": [
        {
          "internalType": "address",
          "name": "",
          "type": "address"
        }
      ],
      "stateMutability": "view",
      "type": "function"
    },
    {
      "inputs": [],
      "name": "priceFeed",
      "outputs": [
        {
          "internalType": "contract AggregatorV3Interface",
          "name": "",
          "type": "address"
        }
      ],
      "stateMutability": "view",
      "type": "function"
    },
    {
      "inputs": [],
      "name": "purchaseToken",
      "outputs": [
        {
          "internalType": "address",
          "name": "",
          "type": "address"
        }
      ],
      "stateMutability": "view",
      "type": "function"
    },
    {
      "inputs": [
        {
          "internalType": "address",
          "name": "",
          "type": "address"
        }
      ],
      "name": "refer",
      "outputs": [
        {
          "internalType": "address",
          "name": "",
          "type": "address"
        }
      ],
      "stateMutability": "view",
      "type": "function"
    },
    {
      "inputs": [
        {
          "internalType": "uint256",
          "name": "stableCoinAmount",
          "type": "uint256"
        },
        {
          "internalType": "address",
          "name": "_refer",
          "type": "address"
        }
      ],
      "name": "register",
      "outputs": [],
      "stateMutability": "nonpayable",
      "type": "function"
    },
    {
      "inputs": [],
      "name": "renounceOwnership",
      "outputs": [],
      "stateMutability": "nonpayable",
      "type": "function"
    },
    {
      "inputs": [
        {
          "internalType": "address",
          "name": "",
          "type": "address"
        },
        {
          "internalType": "uint256",
          "name": "",
          "type": "uint256"
        }
      ],
      "name": "rewards",
      "outputs": [
        {
          "internalType": "uint256",
          "name": "rewardAmount",
          "type": "uint256"
        },
        {
          "internalType": "uint256",
          "name": "endTime",
          "type": "uint256"
        },
        {
          "internalType": "uint256",
          "name": "lastUpdateTime",
          "type": "uint256"
        }
      ],
      "stateMutability": "view",
      "type": "function"
    },
    {
      "inputs": [
        {
          "internalType": "uint256",
          "name": "_baseRegisterAmount",
          "type": "uint256"
        }
      ],
      "name": "setBaseRegisterAmount",
      "outputs": [],
      "stateMutability": "nonpayable",
      "type": "function"
    },
    {
      "inputs": [
        {
          "internalType": "address",
          "name": "_CBDToken",
          "type": "address"
        }
      ],
      "name": "setCBDToken",
      "outputs": [],
      "stateMutability": "nonpayable",
      "type": "function"
    },
    {
      "inputs": [
        {
          "internalType": "address",
          "name": "_purchaseToken",
          "type": "address"
        }
      ],
      "name": "setPurchaseToken",
      "outputs": [],
      "stateMutability": "nonpayable",
      "type": "function"
    },
    {
      "inputs": [
        {
          "internalType": "uint256",
          "name": "_newTokenPrice",
          "type": "uint256"
        }
      ],
      "name": "setTokenPrice",
      "outputs": [],
      "stateMutability": "nonpayable",
      "type": "function"
    },
    {
      "inputs": [],
      "name": "tokenPrice",
      "outputs": [
        {
          "internalType": "uint256",
          "name": "",
          "type": "uint256"
        }
      ],
      "stateMutability": "view",
      "type": "function"
    },
    {
      "inputs": [
        {
          "internalType": "address",
          "name": "newOwner",
          "type": "address"
        }
      ],
      "name": "transferOwnership",
      "outputs": [],
      "stateMutability": "nonpayable",
      "type": "function"
    },
    {
      "inputs": [
        {
          "internalType": "address",
          "name": "_user",
          "type": "address"
        }
      ],
      "name": "userRewards",
      "outputs": [
        {
          "components": [
            {
              "internalType": "uint256",
              "name": "rewardAmount",
              "type": "uint256"
            },
            {
              "internalType": "uint256",
              "name": "endTime",
              "type": "uint256"
            },
            {
              "internalType": "uint256",
              "name": "lastUpdateTime",
              "type": "uint256"
            }
          ],
          "internalType": "struct Purchase.UserRewards[]",
          "name": "",
          "type": "tuple[]"
        }
      ],
      "stateMutability": "view",
      "type": "function"
    }
  ],
  "bytecode": {
    "object": "0x60806040523480156200001157600080fd5b5060405162002da238038062002da2833981016040819052620000349162000307565b6200003f336200020f565b600180546001600160a01b038087166001600160a01b031992831617909255600280548684169083168117909155600385905560058054938516939092169290921790556040805163313ce56760e01b815290516000929163313ce5679160048083019260209291908290030181865afa158015620000c2573d6000803e3d6000fd5b505050506040513d601f19601f82011682018060405250810190620000e891906200035b565b60ff169050620000fa81600a6200049c565b62000107906032620004aa565b6004556007805460ff19166001179055620001566200012882600a6200049c565b620001359060fa620004aa565b6200014283600a6200049c565b62000150906101f4620004aa565b6200025f565b620001906200016782600a6200049c565b62000175906101f4620004aa565b6200018283600a6200049c565b62000150906105dc620004aa565b620001ca620001a182600a6200049c565b620001af906103e8620004aa565b620001bc83600a6200049c565b6200015090610bb8620004aa565b62000204620001db82600a6200049c565b620001e9906107d0620004aa565b620001f683600a6200049c565b6200015090611770620004aa565b5050505050620004c4565b600080546001600160a01b038381166001600160a01b0319831681178455604051919092169283917f8be0079c531659141344cd1fd0a4f28419497f9722a3daafe3b4186f6b6457e09190a35050565b6200026962000289565b600091825260086020526040909120805460ff1916600190811782550155565b6000546001600160a01b03163314620002e85760405162461bcd60e51b815260206004820181905260248201527f4f776e61626c653a2063616c6c6572206973206e6f7420746865206f776e6572604482015260640160405180910390fd5b565b80516001600160a01b03811681146200030257600080fd5b919050565b600080600080608085870312156200031e57600080fd5b6200032985620002ea565b93506200033960208601620002ea565b9250604085015191506200035060608601620002ea565b905092959194509250565b6000602082840312156200036e57600080fd5b815160ff811681146200038057600080fd5b9392505050565b634e487b7160e01b600052601160045260246000fd5b600181815b80851115620003de578160001904821115620003c257620003c262000387565b80851615620003d057918102915b93841c9390800290620003a2565b509250929050565b600082620003f75750600162000496565b81620004065750600062000496565b81600181146200041f57600281146200042a576200044a565b600191505062000496565b60ff8411156200043e576200043e62000387565b50506001821b62000496565b5060208310610133831016604e8410600b84101617156200046f575081810a62000496565b6200047b83836200039d565b806000190482111562000492576200049262000387565b0290505b92915050565b6000620003808383620003e6565b808202811582820484141762000496576200049662000387565b6128ce80620004d46000396000f3fe608060405234801561001057600080fd5b50600436106101a95760003560e01c8063772f4427116100f9578063b4e3934d11610097578063d895acb811610071578063d895acb8146103ec578063dbbdf083146103ff578063e174a9c414610412578063f2fde38b1461042557600080fd5b8063b4e3934d14610378578063b933ceac1461038b578063c3c5a547146103b957600080fd5b80638da5cb5b116100d35780638da5cb5b146103395780639134709e1461034a578063981a6ea31461035d578063a95c4d621461036557600080fd5b8063772f4427146102d95780637ff9b5961461031d5780638456bd2e1461032657600080fd5b80633a8ce33c1161016657806369a69e291161014057806369a69e29146102985780636a61e5fc146102ab578063715018a6146102be578063741bef1a146102c657600080fd5b80633a8ce33c1461025b578063689ae9bf1461027257806368c95f091461028557600080fd5b80630660f1e8146101ae5780631547e29d146101d75780631d509afd146101ec578063352d80e01461022d57806336f1187f14610240578063372500ab14610253575b600080fd5b6101c16101bc36600461233a565b610438565b6040516101ce9190612355565b60405180910390f35b6101ea6101e53660046123ae565b6104cb565b005b6102156101fa36600461233a565b600a602052600090815260409020546001600160a01b031681565b6040516001600160a01b0390911681526020016101ce565b6101ea61023b3660046123d0565b6104f3565b600154610215906001600160a01b031681565b6101ea610517565b61026460045481565b6040519081526020016101ce565b6101ea6102803660046123d0565b610935565b61026461029336600461233a565b6109a3565b6102646102a636600461233a565b610a6d565b6101ea6102b93660046123d0565b610cc5565b6101ea610cd2565b600554610215906001600160a01b031681565b6103066102e73660046123d0565b6008602052600090815260409020805460019091015460ff9091169082565b6040805192151583526020830191909152016101ce565b61026460035481565b6101ea61033436600461233a565b610ce6565b6000546001600160a01b0316610215565b6101ea6103583660046123e9565b610d75565b6102646117d5565b600254610215906001600160a01b031681565b6101ea61038636600461233a565b6118e6565b61039e610399366004612415565b611970565b604080519384526020840192909252908201526060016101ce565b6103dc6103c736600461233a565b60066020526000908152604090205460ff1681565b60405190151581526020016101ce565b6101ea6103fa36600461244d565b6119b2565b6101ea61040d3660046123e9565b6119cd565b6101ea6104203660046123d0565b611be4565b6101ea61043336600461233a565b611daf565b6001600160a01b0381166000908152600960209081526040808320805482518185028101850190935280835260609492939192909184015b828210156104c05783829060005260206000209060030201604051806060016040529081600082015481526020016001820154815260200160028201548152505081526020019060010190610470565b505050509050919050565b6104d3611e28565b600091825260086020526040909120805460ff1916600190811782550155565b6104fb611e28565b6000908152600860205260408120805460ff1916815560010155565b6000805b3360009081526009602052604090205481101561085c573360009081526009602052604081208054839081106105535761055361246a565b906000526020600020906003020160000154111561084a5733600090815260096020526040902080548290811061058c5761058c61246a565b90600052602060002090600302016001015442101561079b573360009081526009602052604081208054839081106105c6576105c661246a565b90600052602060002090600302016002015460096000336001600160a01b03166001600160a01b03168152602001908152602001600020838154811061060e5761060e61246a565b90600052602060002090600302016001015461062a9190612496565b33600090815260096020526040812080549293509091849081106106505761065061246a565b9060005260206000209060030201600201544261066d9190612496565b3360009081526009602052604081208054929350909184918491879081106106975761069761246a565b9060005260206000209060030201600001546106b391906124af565b6106bd91906124dc565b33600090815260096020526040902080549192508291869081106106e3576106e361246a565b906000526020600020906003020160000160008282546107039190612496565b909155505033600090815260096020526040902080544291908690811061072c5761072c61246a565b60009182526020808320600260039093020191909101929092553381526009909152604090208054859081106107645761076461246a565b906000526020600020906003020160000154600003610787576107873385611e82565b61079181866124f0565b945050505061084a565b3360009081526009602052604081208054839081106107bc576107bc61246a565b60009182526020808320600390920290910154338352600990915260408220805491935090849081106107f1576107f161246a565b600091825260208083206003909202909101929092553381526009909152604090208054429190849081106108285761082861246a565b600091825260209091206002600390920201015561084681846124f0565b9250505b8061085481612503565b91505061051b565b506001546040516340c10f1960e01b8152336004820152602481018390526001600160a01b03909116906340c10f1990604401600060405180830381600087803b1580156108a957600080fd5b505af11580156108bd573d6000803e3d6000fd5b5050505060005b33600090815260096020526040902054811015610931573360009081526009602052604090208054829081106108fc576108fc61246a565b90600052602060002090600302016000015460000361091f5761091f3382611e82565b8061092981612503565b9150506108c4565b5050565b61093d611e28565b8060000361099e5760405162461bcd60e51b8152602060048201526024808201527f4261736520726567697374657220616d6f756e742063616e206e6f74206265206044820152637a65726f60e01b60648201526084015b60405180910390fd5b600455565b600080805b6001600160a01b038416600090815260096020526040902054811015610a66576001600160a01b03841660009081526009602052604081208054839081106109f2576109f261246a565b9060005260206000209060030201600001541115610a54576001600160a01b0384166000908152600960205260409020805482908110610a3457610a3461246a565b90600052602060002090600302016000015482610a5191906124f0565b91505b80610a5e81612503565b9150506109a8565b5092915050565b600080805b6001600160a01b038416600090815260096020526040902054811015610a66576001600160a01b0384166000908152600960205260408120805483908110610abc57610abc61246a565b9060005260206000209060030201600001541115610cb3576001600160a01b0384166000908152600960205260409020805482908110610afe57610afe61246a565b906000526020600020906003020160010154421015610c69576001600160a01b0384166000908152600960205260408120805483908110610b4157610b4161246a565b90600052602060002090600302016002015460096000876001600160a01b03166001600160a01b031681526020019081526020016000208381548110610b8957610b8961246a565b906000526020600020906003020160010154610ba59190612496565b6001600160a01b03861660009081526009602052604081208054929350909184908110610bd457610bd461246a565b90600052602060002090600302016002015442610bf19190612496565b905060008282600960008a6001600160a01b03166001600160a01b031681526020019081526020016000208681548110610c2d57610c2d61246a565b906000526020600020906003020160000154610c4991906124af565b610c5391906124dc565b9050610c5f81866124f0565b9450505050610cb3565b6001600160a01b0384166000908152600960205260409020805482908110610c9357610c9361246a565b90600052602060002090600302016000015482610cb091906124f0565b91505b80610cbd81612503565b915050610a72565b610ccd611e28565b600355565b610cda611e28565b610ce46000612006565b565b610cee611e28565b6001600160a01b038116610d535760405162461bcd60e51b815260206004820152602660248201527f507572636861736520746f6b656e2063616e206e6f74206265207a65726f206160448201526564647265737360d01b6064820152608401610995565b600280546001600160a01b0319166001600160a01b0392909216919091179055565b3360009081526006602052604090205460ff161515600114610dd25760405162461bcd60e51b8152602060048201526016602482015275165bdd48185c99481b9bdd081c9959da5cdd195c995960521b6044820152606401610995565b6001600160a01b03811615610e4e576001600160a01b03811660009081526006602052604090205460ff161515600114610e4e5760405162461bcd60e51b815260206004820152601c60248201527f596f7572207265666572206973206e6f742072656769737465726564000000006044820152606401610995565b6000610e586117d5565b9050670d2f13f7789f0000811015610e825760405162461bcd60e51b81526004016109959061251c565b6002546040805163313ce56760e01b815290516000926001600160a01b03169163313ce5679160048083019260209291908290030181865afa158015610ecc573d6000803e3d6000fd5b505050506040513d601f19601f82011682018060405250810190610ef09190612553565b60ff169050336001600160a01b03841603610f1d5760405162461bcd60e51b815260040161099590612576565b6002546040516370a0823160e01b815233600482015285916001600160a01b0316906370a0823190602401602060405180830381865afa158015610f65573d6000803e3d6000fd5b505050506040513d601f19601f82011682018060405250810190610f8991906125b9565b1015610fa75760405162461bcd60e51b8152600401610995906125d2565b600354600090610fbf86670de0b6b3a76400006124af565b610fc991906124dc565b9050600060035483600a610fdd9190612705565b610fe9906103e86124af565b610ffb90670de0b6b3a76400006124af565b61100591906124dc565b60075490915060ff1615156001036111f35760008681526008602052604090205460ff166110845760405162461bcd60e51b815260206004820152602660248201527f5468697320737461626c6520636f696e20616d6f756e74206973206e6f7420616044820152651b1b1bddd95960d21b6064820152608401610995565b6003546000878152600860205260408120600101549091906110ae90670de0b6b3a76400006124af565b6110b891906124dc565b6001549091506001600160a01b03166340c10f193360646110da85600a6124af565b6110e491906124dc565b6040516001600160e01b031960e085901b1681526001600160a01b0390921660048301526024820152604401600060405180830381600087803b15801561112a57600080fd5b505af115801561113e573d6000803e3d6000fd5b505060025461116c92506001600160a01b03169050336111666000546001600160a01b031690565b8a612056565b33600090815260096020526040908190208151606081019092529080606461119585605a6124af565b61119f91906124dc565b81526020016111b2426305a39a806124f0565b815242602091820152825460018181018555600094855293829020835160039092020190815590820151928101929092556040015160029091015550611281565b6001546040516340c10f1960e01b8152336004820152602481018490526001600160a01b03909116906340c10f1990604401600060405180830381600087803b15801561123f57600080fd5b505af1158015611253573d6000803e3d6000fd5b505060025461128192506001600160a01b031690503361127b6000546001600160a01b031690565b89612056565b6001600160a01b038516156117cd57336000908152600a602052604080822080546001600160a01b0319166001600160a01b0389811691821790925580845282842054821680855283852054831680865293909420548994939216901580159061135757506001546040516370a0823160e01b81526001600160a01b03868116600483015260009216906370a0823190602401602060405180830381865afa158015611331573d6000803e3d6000fd5b505050506040513d601f19601f8201168201806040525081019061135591906125b9565b115b1561147a576001546001600160a01b03166340c10f1985876113818a674563918244f400006124af565b61138b91906124dc565b6040516001600160e01b031960e085901b1681526001600160a01b0390921660048301526024820152604401600060405180830381600087803b1580156113d157600080fd5b505af11580156113e5573d6000803e3d6000fd5b5050506001600160a01b03851660009081526009602052604090819020815160608101909252915080876114218a6783d6c7aab63600006124af565b61142b91906124dc565b815260200161143e426305a39a806124f0565b81524260209182015282546001818101855560009485529382902083516003909202019081559082015192810192909255604001516002909101555b6001600160a01b038316158015906114fe57506001546040516370a0823160e01b81526001600160a01b03858116600483015260009216906370a0823190602401602060405180830381865afa1580156114d8573d6000803e3d6000fd5b505050506040513d601f19601f820116820180604052508101906114fc91906125b9565b115b15611594576001600160a01b0383166000908152600960205260409081902081516060810190925290808761153b8a6768155a43676e00006124af565b61154591906124dc565b8152602001611558426305a39a806124f0565b81524260209182015282546001818101855560009485529382902083516003909202019081559082015192810192909255604001516002909101555b6001600160a01b0382161580159061161857506001546040516370a0823160e01b81526001600160a01b03848116600483015260009216906370a0823190602401602060405180830381865afa1580156115f2573d6000803e3d6000fd5b505050506040513d601f19601f8201168201806040525081019061161691906125b9565b115b156116ae576001600160a01b038216600090815260096020526040908190208151606081019092529080876116558a6753444835ec5800006124af565b61165f91906124dc565b8152602001611672426305a39a806124f0565b81524260209182015282546001818101855560009485529382902083516003909202019081559082015192810192909255604001516002909101555b6001600160a01b0381161580159061173257506001546040516370a0823160e01b81526001600160a01b03838116600483015260009216906370a0823190602401602060405180830381865afa15801561170c573d6000803e3d6000fd5b505050506040513d601f19601f8201168201806040525081019061173091906125b9565b115b156117c8576001600160a01b0381166000908152600960205260409081902081516060810190925290808761176f8a673782dace9d9000006124af565b61177991906124dc565b815260200161178c426305a39a806124f0565b81524260209182015282546001818101855560009485529382902083516003909202019081559082015192810192909255604001516002909101555b505050505b505050505050565b600080600560009054906101000a90046001600160a01b03166001600160a01b031663feaf968c6040518163ffffffff1660e01b815260040160a060405180830381865afa15801561182b573d6000803e3d6000fd5b505050506040513d601f19601f8201168201806040525081019061184f919061272b565b5050509150506000600560009054906101000a90046001600160a01b03166001600160a01b031663313ce5676040518163ffffffff1660e01b8152600401602060405180830381865afa1580156118aa573d6000803e3d6000fd5b505050506040513d601f19601f820116820180604052508101906118ce9190612553565b905060006118de838360126120b6565b949350505050565b6118ee611e28565b6001600160a01b03811661194e5760405162461bcd60e51b815260206004820152602160248201527f43424420746f6b656e2063616e206e6f74206265207a65726f206164647265736044820152607360f81b6064820152608401610995565b600180546001600160a01b0319166001600160a01b0392909216919091179055565b6009602052816000526040600020818154811061198c57600080fd5b600091825260209091206003909102018054600182015460029092015490935090915083565b6119ba611e28565b6007805460ff1916911515919091179055565b6001600160a01b03811615611a49576001600160a01b03811660009081526006602052604090205460ff161515600114611a495760405162461bcd60e51b815260206004820152601c60248201527f596f7572207265666572206973206e6f742072656769737465726564000000006044820152606401610995565b600454821015611ab65760405162461bcd60e51b815260206004820152603260248201527f596f757220616d6f756e74206973206c6f776572207468616e207468652062616044820152711cd9481c9959da5cdd195c88185b5bdd5b9d60721b6064820152608401610995565b6000611ac06117d5565b9050670d2f13f7789f0000811015611aea5760405162461bcd60e51b81526004016109959061251c565b336001600160a01b03831603611b125760405162461bcd60e51b815260040161099590612576565b6002546040516370a0823160e01b815233600482015284916001600160a01b0316906370a0823190602401602060405180830381865afa158015611b5a573d6000803e3d6000fd5b505050506040513d601f19601f82011682018060405250810190611b7e91906125b9565b1015611b9c5760405162461bcd60e51b8152600401610995906125d2565b600254611bc5906001600160a01b031633611bbf6000546001600160a01b031690565b86612056565b5050336000908152600660205260409020805460ff1916600117905550565b3360009081526006602052604090205460ff161515600114611c415760405162461bcd60e51b8152602060048201526016602482015275165bdd48185c99481b9bdd081c9959da5cdd195c995960521b6044820152606401610995565b6000611c4b6117d5565b9050670d2f13f7789f0000811015611c755760405162461bcd60e51b81526004016109959061251c565b6002546040516370a0823160e01b815233600482015283916001600160a01b0316906370a0823190602401602060405180830381865afa158015611cbd573d6000803e3d6000fd5b505050506040513d601f19601f82011682018060405250810190611ce191906125b9565b1015611cff5760405162461bcd60e51b8152600401610995906125d2565b600354600090611d1784670de0b6b3a76400006124af565b611d2191906124dc565b6001546040516340c10f1960e01b8152336004820152602481018390529192506001600160a01b0316906340c10f1990604401600060405180830381600087803b158015611d6e57600080fd5b505af1158015611d82573d6000803e3d6000fd5b5050600254611daa92506001600160a01b0316905033611bbf6000546001600160a01b031690565b505050565b611db7611e28565b6001600160a01b038116611e1c5760405162461bcd60e51b815260206004820152602660248201527f4f776e61626c653a206e6577206f776e657220697320746865207a65726f206160448201526564647265737360d01b6064820152608401610995565b611e2581612006565b50565b6000546001600160a01b03163314610ce45760405162461bcd60e51b815260206004820181905260248201527f4f776e61626c653a2063616c6c6572206973206e6f7420746865206f776e65726044820152606401610995565b805b6001600160a01b038316600090815260096020526040902054611ea990600190612496565b811015611f61576001600160a01b0383166000908152600960205260409020611ed38260016124f0565b81548110611ee357611ee361246a565b906000526020600020906003020160096000856001600160a01b03166001600160a01b031681526020019081526020016000208281548110611f2757611f2761246a565b6000918252602090912082546003909202019081556001808301549082015560029182015491015580611f5981612503565b915050611e84565b506001600160a01b03821660009081526009602052604090208054611f8890600190612496565b81548110611f9857611f9861246a565b600091825260208083206003909202909101828155600181018390556002018290556001600160a01b03841682526009905260409020805480611fdd57611fdd61277b565b600082815260208120600360001990930192830201818155600181018290556002015590555050565b600080546001600160a01b038381166001600160a01b0319831681178455604051919092169283917f8be0079c531659141344cd1fd0a4f28419497f9722a3daafe3b4186f6b6457e09190a35050565b604080516001600160a01b0385811660248301528416604482015260648082018490528251808303909101815260849091019091526020810180516001600160e01b03166323b872dd60e01b1790526120b0908590612129565b50505050565b60008160ff168360ff1610156120ef576120d08383612791565b6120de9060ff16600a612705565b6120e890856127aa565b9050612122565b8160ff168360ff16111561211f576121078284612791565b6121159060ff16600a612705565b6120e890856127da565b50825b9392505050565b600061217e826040518060400160405280602081526020017f5361666545524332303a206c6f772d6c6576656c2063616c6c206661696c6564815250856001600160a01b03166121fb9092919063ffffffff16565b805190915015611daa578080602001905181019061219c9190612808565b611daa5760405162461bcd60e51b815260206004820152602a60248201527f5361666545524332303a204552433230206f7065726174696f6e20646964206e6044820152691bdd081cdd58d8d9595960b21b6064820152608401610995565b60606118de848460008585600080866001600160a01b031685876040516122229190612849565b60006040518083038185875af1925050503d806000811461225f576040519150601f19603f3d011682016040523d82523d6000602084013e612264565b606091505b509150915061227587838387612280565b979650505050505050565b606083156122ef5782516000036122e8576001600160a01b0385163b6122e85760405162461bcd60e51b815260206004820152601d60248201527f416464726573733a2063616c6c20746f206e6f6e2d636f6e74726163740000006044820152606401610995565b50816118de565b6118de83838151156123045781518083602001fd5b8060405162461bcd60e51b81526004016109959190612865565b80356001600160a01b038116811461233557600080fd5b919050565b60006020828403121561234c57600080fd5b6121228261231e565b602080825282518282018190526000919060409081850190868401855b828110156123a15781518051855286810151878601528501518585015260609093019290850190600101612372565b5091979650505050505050565b600080604083850312156123c157600080fd5b50508035926020909101359150565b6000602082840312156123e257600080fd5b5035919050565b600080604083850312156123fc57600080fd5b8235915061240c6020840161231e565b90509250929050565b6000806040838503121561242857600080fd5b6124318361231e565b946020939093013593505050565b8015158114611e2557600080fd5b60006020828403121561245f57600080fd5b81356121228161243f565b634e487b7160e01b600052603260045260246000fd5b634e487b7160e01b600052601160045260246000fd5b818103818111156124a9576124a9612480565b92915050565b80820281158282048414176124a9576124a9612480565b634e487b7160e01b600052601260045260246000fd5b6000826124eb576124eb6124c6565b500490565b808201808211156124a9576124a9612480565b60006001820161251557612515612480565b5060010190565b6020808252601e908201527f55534443207072696365206973206e6f742061626f766520302e393520240000604082015260600190565b60006020828403121561256557600080fd5b815160ff8116811461212257600080fd5b60208082526023908201527f596f752063616e27742070757420796f757220616464726573732061732072656040820152623332b960e91b606082015260800190565b6000602082840312156125cb57600080fd5b5051919050565b6020808252602f908201527f596f7520646f6e2774206861766520656e6f75676820737461626c65636f696e60408201526e2062616c616e636520746f2062757960881b606082015260800190565b600181815b8085111561265c57816000190482111561264257612642612480565b8085161561264f57918102915b93841c9390800290612626565b509250929050565b600082612673575060016124a9565b81612680575060006124a9565b816001811461269657600281146126a0576126bc565b60019150506124a9565b60ff8411156126b1576126b1612480565b50506001821b6124a9565b5060208310610133831016604e8410600b84101617156126df575081810a6124a9565b6126e98383612621565b80600019048211156126fd576126fd612480565b029392505050565b60006121228383612664565b805169ffffffffffffffffffff8116811461233557600080fd5b600080600080600060a0868803121561274357600080fd5b61274c86612711565b945060208601519350604086015192506060860151915061276f60808701612711565b90509295509295909350565b634e487b7160e01b600052603160045260246000fd5b60ff82811682821603908111156124a9576124a9612480565b80820260008212600160ff1b841416156127c6576127c6612480565b81810583148215176124a9576124a9612480565b6000826127e9576127e96124c6565b600160ff1b82146000198414161561280357612803612480565b500590565b60006020828403121561281a57600080fd5b81516121228161243f565b60005b83811015612840578181015183820152602001612828565b50506000910152565b6000825161285b818460208701612825565b9190910192915050565b6020815260008251806020840152612884816040850160208701612825565b601f01601f1916919091016040019291505056fea2646970667358221220442b2a3290406b8a2c17729b75d96e03751f654e02e808eb59d78661ca9f5bc064736f6c63430008110033",
    "linkReferences": {}
  },
  "methodIdentifiers": {
    "allRewardAmounts(address)": "68c95f09",
    "allowedAmounts(uint256)": "772f4427",
    "anableAllawanceForAmount(uint256,uint256)": "1547e29d",
    "baseRegisterAmount()": "3a8ce33c",
    "buyToken(uint256,address)": "9134709e",
    "buyTokenWhitoutRef(uint256)": "e174a9c4",
    "cbdToken()": "36f1187f",
    "changeAllowAmountsActivation(bool)": "d895acb8",
    "claimRewards()": "372500ab",
    "disableAllawanceForAmount(uint256)": "352d80e0",
    "getOracleUsdcPrice()": "981a6ea3",
    "getUnclaimedRewards(address)": "69a69e29",
    "isRegistered(address)": "c3c5a547",
    "owner()": "8da5cb5b",
    "priceFeed()": "741bef1a",
    "purchaseToken()": "a95c4d62",
    "refer(address)": "1d509afd",
    "register(uint256,address)": "dbbdf083",
    "renounceOwnership()": "715018a6",
    "rewards(address,uint256)": "b933ceac",
    "setBaseRegisterAmount(uint256)": "689ae9bf",
    "setCBDToken(address)": "b4e3934d",
    "setPurchaseToken(address)": "8456bd2e",
    "setTokenPrice(uint256)": "6a61e5fc",
    "tokenPrice()": "7ff9b596",
    "transferOwnership(address)": "f2fde38b",
    "userRewards(address)": "0660f1e8"
  },
  "id": 1
}