{
  "abi": [
    {
      "inputs": [
        {
          "internalType": "address",
          "name": "_cbdToken",
          "type": "address"
        },
        {
          "internalType": "address",
          "name": "_purchaseToken",
          "type": "address"
        },
        {
          "internalType": "uint256",
          "name": "_tokenPrice",
          "type": "uint256"
        },
        {
          "internalType": "address",
          "name": "_priceFeed",
          "type": "address"
        }
      ],
      "stateMutability": "nonpayable",
      "type": "constructor"
    },
    {
      "anonymous": false,
      "inputs": [
        {
          "indexed": true,
          "internalType": "address",
          "name": "previousOwner",
          "type": "address"
        },
        {
          "indexed": true,
          "internalType": "address",
          "name": "newOwner",
          "type": "address"
        }
      ],
      "name": "OwnershipTransferred",
      "type": "event"
    },
    {
      "inputs": [
        {
          "internalType": "address",
          "name": "_user",
          "type": "address"
        }
      ],
      "name": "allRewardAmounts",
      "outputs": [
        {
          "internalType": "uint256",
          "name": "",
          "type": "uint256"
        }
      ],
      "stateMutability": "view",
      "type": "function"
    },
    {
      "inputs": [
        {
          "internalType": "uint256",
          "name": "stableCoinAmount",
          "type": "uint256"
        },
        {
          "internalType": "address",
          "name": "_refer",
          "type": "address"
        }
      ],
      "name": "buyToken",
      "outputs": [],
      "stateMutability": "nonpayable",
      "type": "function"
    },
    {
      "inputs": [
        {
          "internalType": "uint256",
          "name": "stableCoinAmount",
          "type": "uint256"
        }
      ],
      "name": "buyTokenWhitoutRef",
      "outputs": [],
      "stateMutability": "nonpayable",
      "type": "function"
    },
    {
      "inputs": [],
      "name": "cbdToken",
      "outputs": [
        {
          "internalType": "contract CBDToken",
          "name": "",
          "type": "address"
        }
      ],
      "stateMutability": "view",
      "type": "function"
    },
    {
      "inputs": [],
      "name": "claimRewards",
      "outputs": [],
      "stateMutability": "nonpayable",
      "type": "function"
    },
    {
      "inputs": [],
      "name": "getOracleUsdcPrice",
      "outputs": [
        {
          "internalType": "uint256",
          "name": "",
          "type": "uint256"
        }
      ],
      "stateMutability": "view",
      "type": "function"
    },
    {
      "inputs": [
        {
          "internalType": "address",
          "name": "_user",
          "type": "address"
        }
      ],
      "name": "getUnclaimedRewards",
      "outputs": [
        {
          "internalType": "uint256",
          "name": "",
          "type": "uint256"
        }
      ],
      "stateMutability": "view",
      "type": "function"
    },
    {
      "inputs": [
        {
          "internalType": "address",
          "name": "",
          "type": "address"
        }
      ],
      "name": "isRegistered",
      "outputs": [
        {
          "internalType": "bool",
          "name": "",
          "type": "bool"
        }
      ],
      "stateMutability": "view",
      "type": "function"
    },
    {
      "inputs": [],
      "name": "owner",
      "outputs": [
        {
          "internalType": "address",
          "name": "",
          "type": "address"
        }
      ],
      "stateMutability": "view",
      "type": "function"
    },
    {
      "inputs": [],
      "name": "priceFeed",
      "outputs": [
        {
          "internalType": "contract AggregatorV3Interface",
          "name": "",
          "type": "address"
        }
      ],
      "stateMutability": "view",
      "type": "function"
    },
    {
      "inputs": [],
      "name": "purchaseToken",
      "outputs": [
        {
          "internalType": "address",
          "name": "",
          "type": "address"
        }
      ],
      "stateMutability": "view",
      "type": "function"
    },
    {
      "inputs": [
        {
          "internalType": "address",
          "name": "",
          "type": "address"
        }
      ],
      "name": "refer",
      "outputs": [
        {
          "internalType": "address",
          "name": "",
          "type": "address"
        }
      ],
      "stateMutability": "view",
      "type": "function"
    },
    {
      "inputs": [
        {
          "internalType": "uint256",
          "name": "stableCoinAmount",
          "type": "uint256"
        },
        {
          "internalType": "address",
          "name": "_refer",
          "type": "address"
        }
      ],
      "name": "register",
      "outputs": [],
      "stateMutability": "nonpayable",
      "type": "function"
    },
    {
      "inputs": [],
      "name": "renounceOwnership",
      "outputs": [],
      "stateMutability": "nonpayable",
      "type": "function"
    },
    {
      "inputs": [
        {
          "internalType": "address",
          "name": "",
          "type": "address"
        },
        {
          "internalType": "uint256",
          "name": "",
          "type": "uint256"
        }
      ],
      "name": "rewards",
      "outputs": [
        {
          "internalType": "uint256",
          "name": "rewardAmount",
          "type": "uint256"
        },
        {
          "internalType": "uint256",
          "name": "endTime",
          "type": "uint256"
        },
        {
          "internalType": "uint256",
          "name": "lastUpdateTime",
          "type": "uint256"
        }
      ],
      "stateMutability": "view",
      "type": "function"
    },
    {
      "inputs": [
        {
          "internalType": "address",
          "name": "_CBDToken",
          "type": "address"
        }
      ],
      "name": "setCBDToken",
      "outputs": [],
      "stateMutability": "nonpayable",
      "type": "function"
    },
    {
      "inputs": [
        {
          "internalType": "address",
          "name": "_purchaseToken",
          "type": "address"
        }
      ],
      "name": "setPurchaseToken",
      "outputs": [],
      "stateMutability": "nonpayable",
      "type": "function"
    },
    {
      "inputs": [
        {
          "internalType": "uint256",
          "name": "_newTokenPrice",
          "type": "uint256"
        }
      ],
      "name": "setTokenPrice",
      "outputs": [],
      "stateMutability": "nonpayable",
      "type": "function"
    },
    {
      "inputs": [],
      "name": "tokenPrice",
      "outputs": [
        {
          "internalType": "uint256",
          "name": "",
          "type": "uint256"
        }
      ],
      "stateMutability": "view",
      "type": "function"
    },
    {
      "inputs": [
        {
          "internalType": "address",
          "name": "newOwner",
          "type": "address"
        }
      ],
      "name": "transferOwnership",
      "outputs": [],
      "stateMutability": "nonpayable",
      "type": "function"
    },
    {
      "inputs": [
        {
          "internalType": "address",
          "name": "_user",
          "type": "address"
        }
      ],
      "name": "userRewards",
      "outputs": [
        {
          "components": [
            {
              "internalType": "uint256",
              "name": "rewardAmount",
              "type": "uint256"
            },
            {
              "internalType": "uint256",
              "name": "endTime",
              "type": "uint256"
            },
            {
              "internalType": "uint256",
              "name": "lastUpdateTime",
              "type": "uint256"
            }
          ],
          "internalType": "struct Purchase.UserRewards[]",
          "name": "",
          "type": "tuple[]"
        }
      ],
      "stateMutability": "view",
      "type": "function"
    }
  ],
  "bytecode": {
    "object": "0x60806040523480156200001157600080fd5b5060405162002d4a38038062002d4a8339810160408190526200003491620000f5565b6200003f3362000088565b600180546001600160a01b039586166001600160a01b03199182161790915560028054948616948216949094179093556003919091556004805491909316911617905562000149565b600080546001600160a01b038381166001600160a01b0319831681178455604051919092169283917f8be0079c531659141344cd1fd0a4f28419497f9722a3daafe3b4186f6b6457e09190a35050565b80516001600160a01b0381168114620000f057600080fd5b919050565b600080600080608085870312156200010c57600080fd5b6200011785620000d8565b93506200012760208601620000d8565b9250604085015191506200013e60608601620000d8565b905092959194509250565b612bf180620001596000396000f3fe608060405234801561001057600080fd5b50600436106101375760003560e01c80638456bd2e116100b8578063b4e3934d1161007c578063b4e3934d14610280578063b933ceac14610293578063c3c5a547146102c1578063dbbdf083146102f4578063e174a9c414610307578063f2fde38b1461031a57600080fd5b80638456bd2e1461022e5780638da5cb5b146102415780639134709e14610252578063981a6ea314610265578063a95c4d621461026d57600080fd5b806369a69e29116100ff57806369a69e29146101e45780636a61e5fc146101f7578063715018a61461020a578063741bef1a146102125780637ff9b5961461022557600080fd5b80630660f1e81461013c5780631d509afd1461016557806336f1187f146101a6578063372500ab146101b957806368c95f09146101c3575b600080fd5b61014f61014a366004612696565b61032d565b60405161015c91906126b1565b60405180910390f35b61018e610173366004612696565b6007602052600090815260409020546001600160a01b031681565b6040516001600160a01b03909116815260200161015c565b60015461018e906001600160a01b031681565b6101c16103c0565b005b6101d66101d1366004612696565b610828565b60405190815260200161015c565b6101d66101f2366004612696565b6108f2565b6101c161020536600461270a565b610b4a565b6101c1610b57565b60045461018e906001600160a01b031681565b6101d660035481565b6101c161023c366004612696565b610b6b565b6000546001600160a01b031661018e565b6101c1610260366004612723565b610bff565b6101d6611472565b60025461018e906001600160a01b031681565b6101c161028e366004612696565b61156b565b6102a66102a136600461274f565b6115f5565b6040805193845260208401929092529082015260600161015c565b6102e46102cf366004612696565b60056020526000908152604090205460ff1681565b604051901515815260200161015c565b6101c1610302366004612723565b611637565b6101c161031536600461270a565b611f3d565b6101c1610328366004612696565b61210e565b6001600160a01b0381166000908152600660209081526040808320805482518185028101850190935280835260609492939192909184015b828210156103b55783829060005260206000209060030201604051806060016040529081600082015481526020016001820154815260200160028201548152505081526020019060010190610365565b505050509050919050565b60005b336000908152600660205260409020548110156107b4573360009081526006602052604081208054839081106103fb576103fb612779565b90600052602060002090600302016000015411156107a25733600090815260066020526040902080548290811061043457610434612779565b90600052602060002090600302016001015442101561069b5733600090815260066020526040812080548390811061046e5761046e612779565b90600052602060002090600302016002015460066000336001600160a01b03166001600160a01b0316815260200190815260200160002083815481106104b6576104b6612779565b9060005260206000209060030201600101546104d291906127a5565b33600090815260066020526040812080549293509091849081106104f8576104f8612779565b9060005260206000209060030201600201544261051591906127a5565b33600090815260066020526040812080549293509091849184918790811061053f5761053f612779565b90600052602060002090600302016000015461055b91906127be565b61056591906127eb565b336000908152600660205260409020805491925082918690811061058b5761058b612779565b906000526020600020906003020160000160008282546105ab91906127a5565b90915550503360009081526006602052604090208054429190869081106105d4576105d4612779565b600091825260208083206002600390930201919091019290925533815260069091526040902080548590811061060c5761060c612779565b90600052602060002090600302016000015460000361062f5761062f3385612184565b6001546040516340c10f1960e01b8152336004820152602481018390526001600160a01b03909116906340c10f1990604401600060405180830381600087803b15801561067b57600080fd5b505af115801561068f573d6000803e3d6000fd5b505050505050506107a2565b3360009081526006602052604081208054839081106106bc576106bc612779565b60009182526020808320600390920290910154338352600690915260408220805491935090849081106106f1576106f1612779565b6000918252602080832060039092029091019290925533815260069091526040902080544291908490811061072857610728612779565b60009182526020909120600390910201600201556001546040516340c10f1960e01b8152336004820152602481018390526001600160a01b03909116906340c10f1990604401600060405180830381600087803b15801561078857600080fd5b505af115801561079c573d6000803e3d6000fd5b50505050505b806107ac816127ff565b9150506103c3565b5060005b33600090815260066020526040902054811015610825573360009081526006602052604090208054829081106107f0576107f0612779565b906000526020600020906003020160000154600003610813576108133382612184565b8061081d816127ff565b9150506107b8565b50565b600080805b6001600160a01b0384166000908152600660205260409020548110156108eb576001600160a01b038416600090815260066020526040812080548390811061087757610877612779565b90600052602060002090600302016000015411156108d9576001600160a01b03841660009081526006602052604090208054829081106108b9576108b9612779565b906000526020600020906003020160000154826108d69190612818565b91505b806108e3816127ff565b91505061082d565b5092915050565b600080805b6001600160a01b0384166000908152600660205260409020548110156108eb576001600160a01b038416600090815260066020526040812080548390811061094157610941612779565b9060005260206000209060030201600001541115610b38576001600160a01b038416600090815260066020526040902080548290811061098357610983612779565b906000526020600020906003020160010154421015610aee576001600160a01b03841660009081526006602052604081208054839081106109c6576109c6612779565b90600052602060002090600302016002015460066000876001600160a01b03166001600160a01b031681526020019081526020016000208381548110610a0e57610a0e612779565b906000526020600020906003020160010154610a2a91906127a5565b6001600160a01b03861660009081526006602052604081208054929350909184908110610a5957610a59612779565b90600052602060002090600302016002015442610a7691906127a5565b905060008282600660008a6001600160a01b03166001600160a01b031681526020019081526020016000208681548110610ab257610ab2612779565b906000526020600020906003020160000154610ace91906127be565b610ad891906127eb565b9050610ae48186612818565b9450505050610b38565b6001600160a01b0384166000908152600660205260409020805482908110610b1857610b18612779565b90600052602060002090600302016000015482610b359190612818565b91505b80610b42816127ff565b9150506108f7565b610b52612308565b600355565b610b5f612308565b610b696000612362565b565b610b73612308565b6001600160a01b038116610bdd5760405162461bcd60e51b815260206004820152602660248201527f507572636861736520746f6b656e2063616e206e6f74206265207a65726f206160448201526564647265737360d01b60648201526084015b60405180910390fd5b600280546001600160a01b0319166001600160a01b0392909216919091179055565b3360009081526005602052604090205460ff161515600114610c5c5760405162461bcd60e51b8152602060048201526016602482015275165bdd48185c99481b9bdd081c9959da5cdd195c995960521b6044820152606401610bd4565b6001600160a01b03811615610cd8576001600160a01b03811660009081526005602052604090205460ff161515600114610cd85760405162461bcd60e51b815260206004820152601c60248201527f596f7572207265666572206973206e6f742072656769737465726564000000006044820152606401610bd4565b6000610ce2611472565b9050670d2f13f7789f0000811015610d0c5760405162461bcd60e51b8152600401610bd49061282b565b6002546040805163313ce56760e01b815290516000926001600160a01b03169163313ce5679160048083019260209291908290030181865afa158015610d56573d6000803e3d6000fd5b505050506040513d601f19601f82011682018060405250810190610d7a9190612862565b60ff169050336001600160a01b03841603610da75760405162461bcd60e51b8152600401610bd490612885565b6002546040516370a0823160e01b815233600482015285916001600160a01b0316906370a0823190602401602060405180830381865afa158015610def573d6000803e3d6000fd5b505050506040513d601f19601f82011682018060405250810190610e1391906128c8565b1015610e315760405162461bcd60e51b8152600401610bd4906128e1565b600354600090610e4986670de0b6b3a76400006127be565b610e5391906127eb565b9050600060035483600a610e679190612a14565b610e73906103e86127be565b610e8590670de0b6b3a76400006127be565b610e8f91906127eb565b6001546040516340c10f1960e01b8152336004820152602481018590529192506001600160a01b0316906340c10f1990604401600060405180830381600087803b158015610edc57600080fd5b505af1158015610ef0573d6000803e3d6000fd5b5050600254610f1e92506001600160a01b0316905033610f186000546001600160a01b031690565b896123b2565b6001600160a01b0385161561146a573360009081526007602052604080822080546001600160a01b0319166001600160a01b03898116918217909255808452828420548216808552838520548316808652939094205489949392169015801590610ff457506001546040516370a0823160e01b81526001600160a01b03868116600483015260009216906370a0823190602401602060405180830381865afa158015610fce573d6000803e3d6000fd5b505050506040513d601f19601f82011682018060405250810190610ff291906128c8565b115b15611117576001546001600160a01b03166340c10f19858761101e8a674563918244f400006127be565b61102891906127eb565b6040516001600160e01b031960e085901b1681526001600160a01b0390921660048301526024820152604401600060405180830381600087803b15801561106e57600080fd5b505af1158015611082573d6000803e3d6000fd5b5050506001600160a01b03851660009081526006602052604090819020815160608101909252915080876110be8a6783d6c7aab63600006127be565b6110c891906127eb565b81526020016110db426305a39a80612818565b81524260209182015282546001818101855560009485529382902083516003909202019081559082015192810192909255604001516002909101555b6001600160a01b0383161580159061119b57506001546040516370a0823160e01b81526001600160a01b03858116600483015260009216906370a0823190602401602060405180830381865afa158015611175573d6000803e3d6000fd5b505050506040513d601f19601f8201168201806040525081019061119991906128c8565b115b15611231576001600160a01b038316600090815260066020526040908190208151606081019092529080876111d88a6768155a43676e00006127be565b6111e291906127eb565b81526020016111f5426305a39a80612818565b81524260209182015282546001818101855560009485529382902083516003909202019081559082015192810192909255604001516002909101555b6001600160a01b038216158015906112b557506001546040516370a0823160e01b81526001600160a01b03848116600483015260009216906370a0823190602401602060405180830381865afa15801561128f573d6000803e3d6000fd5b505050506040513d601f19601f820116820180604052508101906112b391906128c8565b115b1561134b576001600160a01b038216600090815260066020526040908190208151606081019092529080876112f28a6753444835ec5800006127be565b6112fc91906127eb565b815260200161130f426305a39a80612818565b81524260209182015282546001818101855560009485529382902083516003909202019081559082015192810192909255604001516002909101555b6001600160a01b038116158015906113cf57506001546040516370a0823160e01b81526001600160a01b03838116600483015260009216906370a0823190602401602060405180830381865afa1580156113a9573d6000803e3d6000fd5b505050506040513d601f19601f820116820180604052508101906113cd91906128c8565b115b15611465576001600160a01b0381166000908152600660205260409081902081516060810190925290808761140c8a673782dace9d9000006127be565b61141691906127eb565b8152602001611429426305a39a80612818565b81524260209182015282546001818101855560009485529382902083516003909202019081559082015192810192909255604001516002909101555b505050505b505050505050565b6004805460408051633fabe5a360e21b8152905160009384936001600160a01b03169263feaf968c928183019260a0928290030181865afa1580156114bb573d6000803e3d6000fd5b505050506040513d601f19601f820116820180604052508101906114df9190612a3a565b5050600480546040805163313ce56760e01b81529051949650600095506001600160a01b039091169363313ce5679350818301926020928290030181865afa15801561152f573d6000803e3d6000fd5b505050506040513d601f19601f820116820180604052508101906115539190612862565b9050600061156383836012612412565b949350505050565b611573612308565b6001600160a01b0381166115d35760405162461bcd60e51b815260206004820152602160248201527f43424420746f6b656e2063616e206e6f74206265207a65726f206164647265736044820152607360f81b6064820152608401610bd4565b600180546001600160a01b0319166001600160a01b0392909216919091179055565b6006602052816000526040600020818154811061161157600080fd5b600091825260209091206003909102018054600182015460029092015490935090915083565b6001600160a01b038116156116b3576001600160a01b03811660009081526005602052604090205460ff1615156001146116b35760405162461bcd60e51b815260206004820152601c60248201527f596f7572207265666572206973206e6f742072656769737465726564000000006044820152606401610bd4565b600260009054906101000a90046001600160a01b03166001600160a01b031663313ce5676040518163ffffffff1660e01b8152600401602060405180830381865afa158015611706573d6000803e3d6000fd5b505050506040513d601f19601f8201168201806040525081019061172a9190612862565b61173590600a612a8a565b6117409060506127be565b82101561178f5760405162461bcd60e51b815260206004820152601e60248201527f4d696e696d756d20726567697374657220616d6f756e742069732038302400006044820152606401610bd4565b6000611799611472565b9050670d2f13f7789f00008110156117c35760405162461bcd60e51b8152600401610bd49061282b565b6002546040805163313ce56760e01b815290516000926001600160a01b03169163313ce5679160048083019260209291908290030181865afa15801561180d573d6000803e3d6000fd5b505050506040513d601f19601f820116820180604052508101906118319190612862565b60ff169050336001600160a01b0384160361185e5760405162461bcd60e51b8152600401610bd490612885565b6002546040516370a0823160e01b815233600482015285916001600160a01b0316906370a0823190602401602060405180830381865afa1580156118a6573d6000803e3d6000fd5b505050506040513d601f19601f820116820180604052508101906118ca91906128c8565b10156118e85760405162461bcd60e51b8152600401610bd4906128e1565b60035460009061190086670de0b6b3a76400006127be565b61190a91906127eb565b9050600060035483600a61191e9190612a14565b61192a906103e86127be565b61193c90670de0b6b3a76400006127be565b61194691906127eb565b6001546040516340c10f1960e01b8152336004820152602481018590529192506001600160a01b0316906340c10f1990604401600060405180830381600087803b15801561199357600080fd5b505af11580156119a7573d6000803e3d6000fd5b50506002546119cf92506001600160a01b0316905033610f186000546001600160a01b031690565b6001600160a01b03851615611f1b573360009081526007602052604080822080546001600160a01b0319166001600160a01b03898116918217909255808452828420548216808552838520548316808652939094205489949392169015801590611aa557506001546040516370a0823160e01b81526001600160a01b03868116600483015260009216906370a0823190602401602060405180830381865afa158015611a7f573d6000803e3d6000fd5b505050506040513d601f19601f82011682018060405250810190611aa391906128c8565b115b15611bc8576001546001600160a01b03166340c10f198587611acf8a674563918244f400006127be565b611ad991906127eb565b6040516001600160e01b031960e085901b1681526001600160a01b0390921660048301526024820152604401600060405180830381600087803b158015611b1f57600080fd5b505af1158015611b33573d6000803e3d6000fd5b5050506001600160a01b0385166000908152600660205260409081902081516060810190925291508087611b6f8a6783d6c7aab63600006127be565b611b7991906127eb565b8152602001611b8c426305a39a80612818565b81524260209182015282546001818101855560009485529382902083516003909202019081559082015192810192909255604001516002909101555b6001600160a01b03831615801590611c4c57506001546040516370a0823160e01b81526001600160a01b03858116600483015260009216906370a0823190602401602060405180830381865afa158015611c26573d6000803e3d6000fd5b505050506040513d601f19601f82011682018060405250810190611c4a91906128c8565b115b15611ce2576001600160a01b03831660009081526006602052604090819020815160608101909252908087611c898a6768155a43676e00006127be565b611c9391906127eb565b8152602001611ca6426305a39a80612818565b81524260209182015282546001818101855560009485529382902083516003909202019081559082015192810192909255604001516002909101555b6001600160a01b03821615801590611d6657506001546040516370a0823160e01b81526001600160a01b03848116600483015260009216906370a0823190602401602060405180830381865afa158015611d40573d6000803e3d6000fd5b505050506040513d601f19601f82011682018060405250810190611d6491906128c8565b115b15611dfc576001600160a01b03821660009081526006602052604090819020815160608101909252908087611da38a6753444835ec5800006127be565b611dad91906127eb565b8152602001611dc0426305a39a80612818565b81524260209182015282546001818101855560009485529382902083516003909202019081559082015192810192909255604001516002909101555b6001600160a01b03811615801590611e8057506001546040516370a0823160e01b81526001600160a01b03838116600483015260009216906370a0823190602401602060405180830381865afa158015611e5a573d6000803e3d6000fd5b505050506040513d601f19601f82011682018060405250810190611e7e91906128c8565b115b15611f16576001600160a01b03811660009081526006602052604090819020815160608101909252908087611ebd8a673782dace9d9000006127be565b611ec791906127eb565b8152602001611eda426305a39a80612818565b81524260209182015282546001818101855560009485529382902083516003909202019081559082015192810192909255604001516002909101555b505050505b5050336000908152600560205260409020805460ff1916600117905550505050565b3360009081526005602052604090205460ff161515600114611f9a5760405162461bcd60e51b8152602060048201526016602482015275165bdd48185c99481b9bdd081c9959da5cdd195c995960521b6044820152606401610bd4565b6000611fa4611472565b9050670d2f13f7789f0000811015611fce5760405162461bcd60e51b8152600401610bd49061282b565b6002546040516370a0823160e01b815233600482015283916001600160a01b0316906370a0823190602401602060405180830381865afa158015612016573d6000803e3d6000fd5b505050506040513d601f19601f8201168201806040525081019061203a91906128c8565b10156120585760405162461bcd60e51b8152600401610bd4906128e1565b60035460009061207084670de0b6b3a76400006127be565b61207a91906127eb565b6001546040516340c10f1960e01b8152336004820152602481018390529192506001600160a01b0316906340c10f1990604401600060405180830381600087803b1580156120c757600080fd5b505af11580156120db573d6000803e3d6000fd5b505060025461210992506001600160a01b03169050336121036000546001600160a01b031690565b866123b2565b505050565b612116612308565b6001600160a01b03811661217b5760405162461bcd60e51b815260206004820152602660248201527f4f776e61626c653a206e6577206f776e657220697320746865207a65726f206160448201526564647265737360d01b6064820152608401610bd4565b61082581612362565b805b6001600160a01b0383166000908152600660205260409020546121ab906001906127a5565b811015612263576001600160a01b03831660009081526006602052604090206121d5826001612818565b815481106121e5576121e5612779565b906000526020600020906003020160066000856001600160a01b03166001600160a01b03168152602001908152602001600020828154811061222957612229612779565b600091825260209091208254600390920201908155600180830154908201556002918201549101558061225b816127ff565b915050612186565b506001600160a01b0382166000908152600660205260409020805461228a906001906127a5565b8154811061229a5761229a612779565b600091825260208083206003909202909101828155600181018390556002018290556001600160a01b038416825260069052604090208054806122df576122df612a99565b600082815260208120600360001990930192830201818155600181018290556002015590555050565b6000546001600160a01b03163314610b695760405162461bcd60e51b815260206004820181905260248201527f4f776e61626c653a2063616c6c6572206973206e6f7420746865206f776e65726044820152606401610bd4565b600080546001600160a01b038381166001600160a01b0319831681178455604051919092169283917f8be0079c531659141344cd1fd0a4f28419497f9722a3daafe3b4186f6b6457e09190a35050565b604080516001600160a01b0385811660248301528416604482015260648082018490528251808303909101815260849091019091526020810180516001600160e01b03166323b872dd60e01b17905261240c908590612485565b50505050565b60008160ff168360ff16101561244b5761242c8383612aaf565b61243a9060ff16600a612a14565b6124449085612ac8565b905061247e565b8160ff168360ff16111561247b576124638284612aaf565b6124719060ff16600a612a14565b6124449085612af8565b50825b9392505050565b60006124da826040518060400160405280602081526020017f5361666545524332303a206c6f772d6c6576656c2063616c6c206661696c6564815250856001600160a01b03166125579092919063ffffffff16565b80519091501561210957808060200190518101906124f89190612b26565b6121095760405162461bcd60e51b815260206004820152602a60248201527f5361666545524332303a204552433230206f7065726174696f6e20646964206e6044820152691bdd081cdd58d8d9595960b21b6064820152608401610bd4565b6060611563848460008585600080866001600160a01b0316858760405161257e9190612b6c565b60006040518083038185875af1925050503d80600081146125bb576040519150601f19603f3d011682016040523d82523d6000602084013e6125c0565b606091505b50915091506125d1878383876125dc565b979650505050505050565b6060831561264b578251600003612644576001600160a01b0385163b6126445760405162461bcd60e51b815260206004820152601d60248201527f416464726573733a2063616c6c20746f206e6f6e2d636f6e74726163740000006044820152606401610bd4565b5081611563565b61156383838151156126605781518083602001fd5b8060405162461bcd60e51b8152600401610bd49190612b88565b80356001600160a01b038116811461269157600080fd5b919050565b6000602082840312156126a857600080fd5b61247e8261267a565b602080825282518282018190526000919060409081850190868401855b828110156126fd57815180518552868101518786015285015185850152606090930192908501906001016126ce565b5091979650505050505050565b60006020828403121561271c57600080fd5b5035919050565b6000806040838503121561273657600080fd5b823591506127466020840161267a565b90509250929050565b6000806040838503121561276257600080fd5b61276b8361267a565b946020939093013593505050565b634e487b7160e01b600052603260045260246000fd5b634e487b7160e01b600052601160045260246000fd5b818103818111156127b8576127b861278f565b92915050565b80820281158282048414176127b8576127b861278f565b634e487b7160e01b600052601260045260246000fd5b6000826127fa576127fa6127d5565b500490565b6000600182016128115761281161278f565b5060010190565b808201808211156127b8576127b861278f565b6020808252601e908201527f55534443207072696365206973206e6f742061626f766520302e393520240000604082015260600190565b60006020828403121561287457600080fd5b815160ff8116811461247e57600080fd5b60208082526023908201527f596f752063616e27742070757420796f757220616464726573732061732072656040820152623332b960e91b606082015260800190565b6000602082840312156128da57600080fd5b5051919050565b6020808252602f908201527f596f7520646f6e2774206861766520656e6f75676820737461626c65636f696e60408201526e2062616c616e636520746f2062757960881b606082015260800190565b600181815b8085111561296b5781600019048211156129515761295161278f565b8085161561295e57918102915b93841c9390800290612935565b509250929050565b600082612982575060016127b8565b8161298f575060006127b8565b81600181146129a557600281146129af576129cb565b60019150506127b8565b60ff8411156129c0576129c061278f565b50506001821b6127b8565b5060208310610133831016604e8410600b84101617156129ee575081810a6127b8565b6129f88383612930565b8060001904821115612a0c57612a0c61278f565b029392505050565b600061247e8383612973565b805169ffffffffffffffffffff8116811461269157600080fd5b600080600080600060a08688031215612a5257600080fd5b612a5b86612a20565b9450602086015193506040860151925060608601519150612a7e60808701612a20565b90509295509295909350565b600061247e60ff841683612973565b634e487b7160e01b600052603160045260246000fd5b60ff82811682821603908111156127b8576127b861278f565b80820260008212600160ff1b84141615612ae457612ae461278f565b81810583148215176127b8576127b861278f565b600082612b0757612b076127d5565b600160ff1b821460001984141615612b2157612b2161278f565b500590565b600060208284031215612b3857600080fd5b8151801515811461247e57600080fd5b60005b83811015612b63578181015183820152602001612b4b565b50506000910152565b60008251612b7e818460208701612b48565b9190910192915050565b6020815260008251806020840152612ba7816040850160208701612b48565b601f01601f1916919091016040019291505056fea2646970667358221220c8eaa075cfefb27f9792d4cc2905749d3792d8c3d7efe2dc1dfa6bbc2f3f66a164736f6c63430008110033",
    "linkReferences": {}
  },
  "methodIdentifiers": {
    "allRewardAmounts(address)": "68c95f09",
    "buyToken(uint256,address)": "9134709e",
    "buyTokenWhitoutRef(uint256)": "e174a9c4",
    "cbdToken()": "36f1187f",
    "claimRewards()": "372500ab",
    "getOracleUsdcPrice()": "981a6ea3",
    "getUnclaimedRewards(address)": "69a69e29",
    "isRegistered(address)": "c3c5a547",
    "owner()": "8da5cb5b",
    "priceFeed()": "741bef1a",
    "purchaseToken()": "a95c4d62",
    "refer(address)": "1d509afd",
    "register(uint256,address)": "dbbdf083",
    "renounceOwnership()": "715018a6",
    "rewards(address,uint256)": "b933ceac",
    "setCBDToken(address)": "b4e3934d",
    "setPurchaseToken(address)": "8456bd2e",
    "setTokenPrice(uint256)": "6a61e5fc",
    "tokenPrice()": "7ff9b596",
    "transferOwnership(address)": "f2fde38b",
    "userRewards(address)": "0660f1e8"
  },
  "id": 1
}