{
  "abi": [
    {
      "inputs": [
        {
          "internalType": "string",
          "name": "_name",
          "type": "string"
        },
        {
          "internalType": "string",
          "name": "_symbol",
          "type": "string"
        }
      ],
      "stateMutability": "nonpayable",
      "type": "constructor"
    },
    {
      "anonymous": false,
      "inputs": [
        {
          "indexed": true,
          "internalType": "address",
          "name": "owner",
          "type": "address"
        },
        {
          "indexed": true,
          "internalType": "address",
          "name": "spender",
          "type": "address"
        },
        {
          "indexed": false,
          "internalType": "uint256",
          "name": "value",
          "type": "uint256"
        }
      ],
      "name": "Approval",
      "type": "event"
    },
    {
      "anonymous": false,
      "inputs": [
        {
          "indexed": true,
          "internalType": "address",
          "name": "from",
          "type": "address"
        },
        {
          "indexed": true,
          "internalType": "address",
          "name": "to",
          "type": "address"
        },
        {
          "indexed": false,
          "internalType": "uint256",
          "name": "value",
          "type": "uint256"
        }
      ],
      "name": "Transfer",
      "type": "event"
    },
    {
      "inputs": [
        {
          "internalType": "address",
          "name": "_distributor",
          "type": "address"
        }
      ],
      "name": "addDistributor",
      "outputs": [],
      "stateMutability": "nonpayable",
      "type": "function"
    },
    {
      "inputs": [
        {
          "internalType": "address",
          "name": "_newOwner",
          "type": "address"
        }
      ],
      "name": "addOwner",
      "outputs": [],
      "stateMutability": "nonpayable",
      "type": "function"
    },
    {
      "inputs": [
        {
          "internalType": "address",
          "name": "owner",
          "type": "address"
        },
        {
          "internalType": "address",
          "name": "spender",
          "type": "address"
        }
      ],
      "name": "allowance",
      "outputs": [
        {
          "internalType": "uint256",
          "name": "",
          "type": "uint256"
        }
      ],
      "stateMutability": "view",
      "type": "function"
    },
    {
      "inputs": [
        {
          "internalType": "address",
          "name": "spender",
          "type": "address"
        },
        {
          "internalType": "uint256",
          "name": "amount",
          "type": "uint256"
        }
      ],
      "name": "approve",
      "outputs": [
        {
          "internalType": "bool",
          "name": "",
          "type": "bool"
        }
      ],
      "stateMutability": "nonpayable",
      "type": "function"
    },
    {
      "inputs": [
        {
          "internalType": "address",
          "name": "account",
          "type": "address"
        }
      ],
      "name": "balanceOf",
      "outputs": [
        {
          "internalType": "uint256",
          "name": "",
          "type": "uint256"
        }
      ],
      "stateMutability": "view",
      "type": "function"
    },
    {
      "inputs": [
        {
          "internalType": "uint256",
          "name": "amount",
          "type": "uint256"
        }
      ],
      "name": "burn",
      "outputs": [],
      "stateMutability": "nonpayable",
      "type": "function"
    },
    {
      "inputs": [
        {
          "internalType": "address",
          "name": "account",
          "type": "address"
        },
        {
          "internalType": "uint256",
          "name": "amount",
          "type": "uint256"
        }
      ],
      "name": "burn",
      "outputs": [],
      "stateMutability": "nonpayable",
      "type": "function"
    },
    {
      "inputs": [
        {
          "internalType": "address",
          "name": "account",
          "type": "address"
        },
        {
          "internalType": "uint256",
          "name": "amount",
          "type": "uint256"
        }
      ],
      "name": "burnFrom",
      "outputs": [],
      "stateMutability": "nonpayable",
      "type": "function"
    },
    {
      "inputs": [],
      "name": "decimals",
      "outputs": [
        {
          "internalType": "uint8",
          "name": "",
          "type": "uint8"
        }
      ],
      "stateMutability": "view",
      "type": "function"
    },
    {
      "inputs": [
        {
          "internalType": "address",
          "name": "spender",
          "type": "address"
        },
        {
          "internalType": "uint256",
          "name": "subtractedValue",
          "type": "uint256"
        }
      ],
      "name": "decreaseAllowance",
      "outputs": [
        {
          "internalType": "bool",
          "name": "",
          "type": "bool"
        }
      ],
      "stateMutability": "nonpayable",
      "type": "function"
    },
    {
      "inputs": [
        {
          "internalType": "address",
          "name": "",
          "type": "address"
        }
      ],
      "name": "distributors",
      "outputs": [
        {
          "internalType": "bool",
          "name": "",
          "type": "bool"
        }
      ],
      "stateMutability": "view",
      "type": "function"
    },
    {
      "inputs": [
        {
          "internalType": "address",
          "name": "spender",
          "type": "address"
        },
        {
          "internalType": "uint256",
          "name": "addedValue",
          "type": "uint256"
        }
      ],
      "name": "increaseAllowance",
      "outputs": [
        {
          "internalType": "bool",
          "name": "",
          "type": "bool"
        }
      ],
      "stateMutability": "nonpayable",
      "type": "function"
    },
    {
      "inputs": [
        {
          "internalType": "address",
          "name": "_user",
          "type": "address"
        }
      ],
      "name": "isOwner",
      "outputs": [
        {
          "internalType": "bool",
          "name": "",
          "type": "bool"
        }
      ],
      "stateMutability": "view",
      "type": "function"
    },
    {
      "inputs": [
        {
          "internalType": "address",
          "name": "to",
          "type": "address"
        },
        {
          "internalType": "uint256",
          "name": "amount",
          "type": "uint256"
        }
      ],
      "name": "mint",
      "outputs": [],
      "stateMutability": "nonpayable",
      "type": "function"
    },
    {
      "inputs": [],
      "name": "name",
      "outputs": [
        {
          "internalType": "string",
          "name": "",
          "type": "string"
        }
      ],
      "stateMutability": "view",
      "type": "function"
    },
    {
      "inputs": [
        {
          "internalType": "address",
          "name": "",
          "type": "address"
        }
      ],
      "name": "owners",
      "outputs": [
        {
          "internalType": "bool",
          "name": "",
          "type": "bool"
        }
      ],
      "stateMutability": "view",
      "type": "function"
    },
    {
      "inputs": [
        {
          "internalType": "address",
          "name": "_distributor",
          "type": "address"
        }
      ],
      "name": "removeDistributor",
      "outputs": [],
      "stateMutability": "nonpayable",
      "type": "function"
    },
    {
      "inputs": [
        {
          "internalType": "address",
          "name": "_newOwner",
          "type": "address"
        }
      ],
      "name": "removeOwner",
      "outputs": [],
      "stateMutability": "nonpayable",
      "type": "function"
    },
    {
      "inputs": [],
      "name": "symbol",
      "outputs": [
        {
          "internalType": "string",
          "name": "",
          "type": "string"
        }
      ],
      "stateMutability": "view",
      "type": "function"
    },
    {
      "inputs": [],
      "name": "totalSupply",
      "outputs": [
        {
          "internalType": "uint256",
          "name": "",
          "type": "uint256"
        }
      ],
      "stateMutability": "view",
      "type": "function"
    },
    {
      "inputs": [
        {
          "internalType": "address",
          "name": "to",
          "type": "address"
        },
        {
          "internalType": "uint256",
          "name": "amount",
          "type": "uint256"
        }
      ],
      "name": "transfer",
      "outputs": [
        {
          "internalType": "bool",
          "name": "",
          "type": "bool"
        }
      ],
      "stateMutability": "nonpayable",
      "type": "function"
    },
    {
      "inputs": [
        {
          "internalType": "address",
          "name": "from",
          "type": "address"
        },
        {
          "internalType": "address",
          "name": "to",
          "type": "address"
        },
        {
          "internalType": "uint256",
          "name": "amount",
          "type": "uint256"
        }
      ],
      "name": "transferFrom",
      "outputs": [
        {
          "internalType": "bool",
          "name": "",
          "type": "bool"
        }
      ],
      "stateMutability": "nonpayable",
      "type": "function"
    },
    {
      "inputs": [
        {
          "internalType": "address",
          "name": "_newOwner",
          "type": "address"
        }
      ],
      "name": "transferUserOwnership",
      "outputs": [],
      "stateMutability": "nonpayable",
      "type": "function"
    }
  ],
  "bytecode": {
    "object": "0x60806040523480156200001157600080fd5b506040516200116b3803806200116b83398101604081905262000034916200013e565b8181600362000044838262000237565b50600462000053828262000237565b5050336000908152600660205260409020805460ff191660011790555062000303915050565b634e487b7160e01b600052604160045260246000fd5b600082601f830112620000a157600080fd5b81516001600160401b0380821115620000be57620000be62000079565b604051601f8301601f19908116603f01168101908282118183101715620000e957620000e962000079565b816040528381526020925086838588010111156200010657600080fd5b600091505b838210156200012a57858201830151818301840152908201906200010b565b600093810190920192909252949350505050565b600080604083850312156200015257600080fd5b82516001600160401b03808211156200016a57600080fd5b62000178868387016200008f565b935060208501519150808211156200018f57600080fd5b506200019e858286016200008f565b9150509250929050565b600181811c90821680620001bd57607f821691505b602082108103620001de57634e487b7160e01b600052602260045260246000fd5b50919050565b601f8211156200023257600081815260208120601f850160051c810160208610156200020d5750805b601f850160051c820191505b818110156200022e5782815560010162000219565b5050505b505050565b81516001600160401b0381111562000253576200025362000079565b6200026b81620002648454620001a8565b84620001e4565b602080601f831160018114620002a357600084156200028a5750858301515b600019600386901b1c1916600185901b1785556200022e565b600085815260208120601f198616915b82811015620002d457888601518255948401946001909101908401620002b3565b5085821015620002f35787850151600019600388901b60f8161c191681555b5050505050600190811b01905550565b610e5880620003136000396000f3fe608060405234801561001057600080fd5b506004361061014d5760003560e01c806357c1f9e2116100c357806395d89b411161007c57806395d89b41146102e85780639dc29fac146102f0578063a457c2d714610303578063a9059cbb14610316578063cc64278414610329578063dd62ed3e1461034c57600080fd5b806357c1f9e2146102605780637065cb481461027357806370a08231146102865780637250e224146102af57806379cc6790146102c25780637cdfecdb146102d557600080fd5b806323b872dd1161011557806323b872dd146101d95780632f54bf6e146101ec578063313ce56714610218578063395093511461022757806340c10f191461023a57806342966c681461024d57600080fd5b8063022914a71461015257806306fdde031461018a578063095ea7b31461019f578063173825d9146101b257806318160ddd146101c7575b600080fd5b610175610160366004610ca5565b60066020526000908152604090205460ff1681565b60405190151581526020015b60405180910390f35b61019261035f565b6040516101819190610cc7565b6101756101ad366004610d15565b6103f1565b6101c56101c0366004610ca5565b61040b565b005b6002545b604051908152602001610181565b6101756101e7366004610d3f565b610434565b6101756101fa366004610ca5565b6001600160a01b031660009081526006602052604090205460ff1690565b60405160128152602001610181565b610175610235366004610d15565b610458565b6101c5610248366004610d15565b61047a565b6101c561025b366004610d7b565b610490565b6101c561026e366004610ca5565b61049d565b6101c5610281366004610ca5565b6104c6565b6101cb610294366004610ca5565b6001600160a01b031660009081526020819052604090205490565b6101c56102bd366004610ca5565b6104f2565b6101c56102d0366004610d15565b61051e565b6101c56102e3366004610ca5565b610533565b610192610572565b6101c56102fe366004610d15565b610581565b610175610311366004610d15565b610589565b610175610324366004610d15565b610609565b610175610337366004610ca5565b60056020526000908152604090205460ff1681565b6101cb61035a366004610d94565b610617565b60606003805461036e90610dc7565b80601f016020809104026020016040519081016040528092919081815260200182805461039a90610dc7565b80156103e75780601f106103bc576101008083540402835291602001916103e7565b820191906000526020600020905b8154815290600101906020018083116103ca57829003601f168201915b5050505050905090565b6000336103ff818585610642565b60019150505b92915050565b610413610767565b6001600160a01b03166000908152600660205260409020805460ff19169055565b6000336104428582856107e3565b61044d85858561085d565b506001949350505050565b6000336103ff81858561046b8383610617565b6104759190610e01565b610642565b610482610a01565b61048c8282610aa0565b5050565b61049a3382610b5f565b50565b6104a5610767565b6001600160a01b03166000908152600560205260409020805460ff19169055565b6104ce610767565b6001600160a01b03166000908152600660205260409020805460ff19166001179055565b6104fa610767565b6001600160a01b03166000908152600560205260409020805460ff19166001179055565b6105298233836107e3565b61048c8282610b5f565b61053b610767565b33600090815260066020526040808220805460ff199081169091556001600160a01b03939093168252902080549091166001179055565b60606004805461036e90610dc7565b610529610a01565b600033816105978286610617565b9050838110156105fc5760405162461bcd60e51b815260206004820152602560248201527f45524332303a2064656372656173656420616c6c6f77616e63652062656c6f77604482015264207a65726f60d81b60648201526084015b60405180910390fd5b61044d8286868403610642565b6000336103ff81858561085d565b6001600160a01b03918216600090815260016020908152604080832093909416825291909152205490565b6001600160a01b0383166106a45760405162461bcd60e51b8152602060048201526024808201527f45524332303a20617070726f76652066726f6d20746865207a65726f206164646044820152637265737360e01b60648201526084016105f3565b6001600160a01b0382166107055760405162461bcd60e51b815260206004820152602260248201527f45524332303a20617070726f766520746f20746865207a65726f206164647265604482015261737360f01b60648201526084016105f3565b6001600160a01b0383811660008181526001602090815260408083209487168084529482529182902085905590518481527f8c5be1e5ebec7d5bd14f71427d1e84f3dd0314c0f7b2291e5b200ac8c7c3b92591015b60405180910390a3505050565b3360009081526006602052604090205460ff166107e15760405162461bcd60e51b815260206004820152603260248201527f4f776e61626c655f4469737472696275746f723a2063616c6c6572206973206e6044820152716f742066726f6d20746865206f776e65727360701b60648201526084016105f3565b565b60006107ef8484610617565b90506000198114610857578181101561084a5760405162461bcd60e51b815260206004820152601d60248201527f45524332303a20696e73756666696369656e7420616c6c6f77616e636500000060448201526064016105f3565b6108578484848403610642565b50505050565b6001600160a01b0383166108c15760405162461bcd60e51b815260206004820152602560248201527f45524332303a207472616e736665722066726f6d20746865207a65726f206164604482015264647265737360d81b60648201526084016105f3565b6001600160a01b0382166109235760405162461bcd60e51b815260206004820152602360248201527f45524332303a207472616e7366657220746f20746865207a65726f206164647260448201526265737360e81b60648201526084016105f3565b6001600160a01b0383166000908152602081905260409020548181101561099b5760405162461bcd60e51b815260206004820152602660248201527f45524332303a207472616e7366657220616d6f756e7420657863656564732062604482015265616c616e636560d01b60648201526084016105f3565b6001600160a01b03848116600081815260208181526040808320878703905593871680835291849020805487019055925185815290927fddf252ad1be2c89b69c2b068fc378daa952ba7f163c4a11628f55a4df523b3ef910160405180910390a3610857565b3360009081526006602052604090205460ff1680610a2e57503360009081526005602052604090205460ff165b6107e15760405162461bcd60e51b815260206004820152603b60248201527f4f776e61626c655f4469737472696275746f723a2063616c6c6572206973206e60448201527f6f7420746865206f776e6572206f72206469737472696275746f72000000000060648201526084016105f3565b6001600160a01b038216610af65760405162461bcd60e51b815260206004820152601f60248201527f45524332303a206d696e7420746f20746865207a65726f20616464726573730060448201526064016105f3565b8060026000828254610b089190610e01565b90915550506001600160a01b038216600081815260208181526040808320805486019055518481527fddf252ad1be2c89b69c2b068fc378daa952ba7f163c4a11628f55a4df523b3ef910160405180910390a35050565b6001600160a01b038216610bbf5760405162461bcd60e51b815260206004820152602160248201527f45524332303a206275726e2066726f6d20746865207a65726f206164647265736044820152607360f81b60648201526084016105f3565b6001600160a01b03821660009081526020819052604090205481811015610c335760405162461bcd60e51b815260206004820152602260248201527f45524332303a206275726e20616d6f756e7420657863656564732062616c616e604482015261636560f01b60648201526084016105f3565b6001600160a01b0383166000818152602081815260408083208686039055600280548790039055518581529192917fddf252ad1be2c89b69c2b068fc378daa952ba7f163c4a11628f55a4df523b3ef910161075a565b80356001600160a01b0381168114610ca057600080fd5b919050565b600060208284031215610cb757600080fd5b610cc082610c89565b9392505050565b600060208083528351808285015260005b81811015610cf457858101830151858201604001528201610cd8565b506000604082860101526040601f19601f8301168501019250505092915050565b60008060408385031215610d2857600080fd5b610d3183610c89565b946020939093013593505050565b600080600060608486031215610d5457600080fd5b610d5d84610c89565b9250610d6b60208501610c89565b9150604084013590509250925092565b600060208284031215610d8d57600080fd5b5035919050565b60008060408385031215610da757600080fd5b610db083610c89565b9150610dbe60208401610c89565b90509250929050565b600181811c90821680610ddb57607f821691505b602082108103610dfb57634e487b7160e01b600052602260045260246000fd5b50919050565b8082018082111561040557634e487b7160e01b600052601160045260246000fdfea2646970667358221220c89316a343adf886d5a4c35ddef0044348d037edfa83a2fd845c3eb430444ff664736f6c63430008110033",
    "linkReferences": {}
  },
  "methodIdentifiers": {
    "addDistributor(address)": "7250e224",
    "addOwner(address)": "7065cb48",
    "allowance(address,address)": "dd62ed3e",
    "approve(address,uint256)": "095ea7b3",
    "balanceOf(address)": "70a08231",
    "burn(address,uint256)": "9dc29fac",
    "burn(uint256)": "42966c68",
    "burnFrom(address,uint256)": "79cc6790",
    "decimals()": "313ce567",
    "decreaseAllowance(address,uint256)": "a457c2d7",
    "distributors(address)": "cc642784",
    "increaseAllowance(address,uint256)": "39509351",
    "isOwner(address)": "2f54bf6e",
    "mint(address,uint256)": "40c10f19",
    "name()": "06fdde03",
    "owners(address)": "022914a7",
    "removeDistributor(address)": "57c1f9e2",
    "removeOwner(address)": "173825d9",
    "symbol()": "95d89b41",
    "totalSupply()": "18160ddd",
    "transfer(address,uint256)": "a9059cbb",
    "transferFrom(address,address,uint256)": "23b872dd",
    "transferUserOwnership(address)": "7cdfecdb"
  },
  "id": 0
}